:0600000000F038EF04F0EF
:100600000052454144203A0057524954453A0000AF
:10061000FFFF3A6E3A04D8A411D03350800F3B6EDE
:100620003B380F0B3D6E3350800F0F0B3C6E3D502F
:100630006BEC04F03C506BEC04F014D03A50020A1E
:10064000D8A410D03350C00F3B6E3B380F0B3D6E1B
:100650003350C00F0F0B3C6E3D506BEC04F03C5020
:100660006BEC04F0000E396E000E386E1DD034C0F5
:1006700036F035C037F0385036263950372236C07C
:10068000F6FF37C0F7FFF86A050EF76404D00800DC
:10069000FFFFF55005D0F6CFE9FFF7CFEAFFEF50A7
:1006A00014EC04F0384A392A34C036F035C037F03B
:1006B000385036263950372236C0F6FF37C0F7FF9C
:1006C000F86A050EF76404D00800FFFFF55005D066
:1006D000F6CFE9FFF7CFEAFFEF500009D8B41200D8
:1006E000FFFFC5D7FFFFFFFF000E936EDAEC03F0AC
:1006F000A6EC04F0010E336E060E356E080E346E55
:10070000010E08EC03F0010E336E060E356E010E7D
:10071000346E020E08EC03F0070E336E000E356ED9
:100720003F0E346E010E08EC03F09CEC04F0BEECBE
:1007300004F0A00E88EC04F0000E88EC04F0000E2B
:1007400088EC04F0410E88EC04F0B7EC04F0620E83
:100750003E6E760EE82EFED73E2EFCD700D0BEECC5
:1007600004F0A00E88EC04F0000E88EC04F0000EFB
:1007700088EC04F0C5EC04F0A10E88EC04F0000E47
:100780000F6E0F50010D100EF324D96E000EF420E1
:10079000DA6E7DEC04F0DF6EAFEC04F0B7EC04F041
:1007A000070E336E000E356E100E346E020E08EC1E
:1007B00003F0FFD7FFFF000E53EC04F0140E316E70
:1007C0007D0EE82EFED7312EFCD700D0030E6BEC49
:1007D00004F0050E316EDF0EE82EFED7312EFCD769
:1007E000030E6BEC04F00B0E316EB80EE82EFED744
:1007F000312EFCD7030E6BEC04F0020E6BEC04F010
:10080000020E6BEC04F0080E6BEC04F0000E6BECC7
:1008100004F00C0E6BEC04F0000E6BEC04F0060E12
:100820006BEC04F01200FFFFFFFF326E32500F0B33
:10083000306E3250F00B316E818031380F0B53EC3B
:1008400004F08182050E2F6EDF0EE82EFED72F2ECC
:10085000FCD78192305053EC04F08182050E2F6E4C
:10086000DF0EE82EFED72F2EFCD781921200FFFF5D
:1008700000EE01F02D0EEE6AE806FDE1980EF66E30
:10088000090EF76E000EF86E00EE3FF010EE07F066
:100890000900F5CFEEFFE550E150FAE1000EF86EE9
:1008A000000173EF03F0FFFF2E6E2EA002D08184B3
:1008B00001D081942EA202D0818601D081962EA4EF
:1008C00002D0818801D081982EA602D0818A01D0E1
:1008D000819A1200FFFFFFFF306E8190305053EC81
:1008E00004F08182040E2F6EE50EE82EFED72F2E27
:1008F000FCD700D081921200FFFFFFFFC586C7A082
:10090000FED7C9CF2FF092EC04F02F501200FFFF5A
:10091000FFFF2F6E2FC0C9FFC7B0FED792EC04F0C7
:100920001200FFFFFFFFC5CF2EF01F0E2E16D8B40A
:10093000C7B4F9D71200FFFFFFFF94869488C78ED3
:10094000280EC66E280EC86E1200FFFFFFFF000EB5
:100950006BEC04F0010E6BEC04F01200FFFFFFFFE4
:10096000C58AC588C5A81200FFFFFCD7FFFFFFFF9F
:10097000C584C5A41200FFFFFCD7FFFFFFFFC580A1
:10098000C5A01200FFFFFCD7FFFFFFFFC582C5A275
:100990001200FFFFFCD7FFFF53687265796100000A
:0209A000FFFF57
:020000040030CA
:04000000FF210D0EC1
:0200060081FF78
:00000001FF
