:020000001028C6
:10000800FE00030EF0000408F1000A08F200831253
:1000180003137F08F300932A9F2A83120313A50171
:10002800A401A901A301A001AA01A601A101A2019D
:10003800A701A8010630831603139F00850101302C
:10004800860007308700C030810090308B00831213
:100058000313860185018701FE3086000630F6000D
:100068001330F500B130F400F40B3828F50B3828BC
:10007800F60B38283F288312031386010630F60052
:100088001330F500B130F400F40B4828F50B48287C
:10009800F60B48284F28FE308312031386000630DB
:1000A800F6001330F500B130F400F40B5928F50BC5
:1000B8005928F60B59286028831203138601063045
:1000C800F6001330F500B130F400F40B6928F50B95
:1000D8006928F60B69287028FE30831203138600FE
:1000E8000630F6001330F500B130F400F40B7A282E
:1000F800F50B7A28F60B7A288128831203138601D8
:100108000630F6001330F500B130F400F40B8A28FD
:10011800F50B8A28F60B8A289128FE3083120313E0
:1001280086000630F6001330F500B130F400F40B09
:100138009B28F50B9B28F60B9B28A22883120313F8
:1001480086010630F6001330F500B130F400F40BE8
:10015800AB28F50BAB28F60BAB28B228FE30831280
:10016800031386000630F6001330F500B130F400B2
:10017800F40BBC28F50BBC28F60BBC28C32883124B
:10018800031386010630F6001330F500B130F40091
:10019800F40BCC28F50BCC28F60BCC28D328D42884
:1001A8002030831603138500DF3083120313850084
:1001B800F930F4000000F40BDE28E2280000831276
:1001C8000313851EE828E928ED28A701A70A0616C3
:1001D800F028A7010612F02883160313850183125D
:1001E800031385010430831603138500FB30831243
:1001F80003138500F930F4000000F40B00290429EA
:10020800000083120313051D0A290B291729A101D0
:10021800A10A06152808013A031D132914296A2979
:10022800A8016A296A29A10106112808013A031DB3
:100238001E291F296A290716AA0108302A02031C49
:10024800262927292929422942290630F600133070
:10025800F500B130F400F40B2F29F50B2F29F60B1C
:100268002F2936290130F400740883120313AA07D2
:1002780008302A02031C4129422929290712A90109
:10028800A30187128312031386170630F600133072
:10029800F500B130F400F40B4F29F50B4F29F60B9C
:1002A8004F2956298312031386130630F60013309C
:1002B800F500B130F400F40B5F29F50B5F29F60B5C
:1002C8005F296629462946296A296A29831603135C
:1002D80085018312031385010830831603138500F3
:1002E800F730831203138500F930F4000000F40B93
:1002F8007A297E29000083120313851D8429852904
:100308008929A201A20A86158C29A20186118C29A5
:1003180083160313850183120313850102308316A4
:1003280003138500FD30831203138500F930F400B0
:100338000000F40B9C29A029000083120313851CDC
:10034800A629A729AB29A601A60A8614AE29A601C3
:100358008610AE29831603138501831203138501C2
:100368002308013A031DB929BA29CF290130F4001D
:100378007408AB07A608031DC229C329CC2927087E
:10038800013A031DC829C929CC29A401A40AEA29CC
:10039800A401EA29EA29A608031DD329D429E829B2
:1003A800A108031DD829D929E8292208013A031DE3
:1003B800DE29DF29E8292708013A031DE429E52970
:1003C800E829A401A40AEA29A401EA29071CED29BD
:1003D800EE29F929871CF129F229F929071DF529A0
:1003E800F629F929A001A00AFB29A001FB29240864
:1003F800013A031D002A012A3F2A2008013A031D59
:10040800062A072A3F2A15302B0203180C2A0D2A20
:100418003F2AA908031D112A122A6D2A8715AA0145
:1004280008302A02031C192A1A2A1C2A352A352AB6
:100438000630F6001330F500B130F400F40B222A30
:10044800F50B222AF60B222A292A0130F400740817
:1004580083120313AA0708302A02031C342A352AF8
:100468001C2A8711A901A90AA301A30AA801A80A9D
:1004780087166D2A6D2A2908013A031D442A452A40
:100488006D2A0716AA0108302A02031C4C2A4D2A95
:100498004F2A682A682A0630F6001330F500B13072
:1004A800F400F40B552AF50B552AF60B552A5C2A4D
:1004B8000130F400740883120313AA0708302A02D3
:1004C800031C672A682A4F2A0712A901A301871269
:1004D8006D2AA5010F302502031C732A742A762A77
:1004E800D428D4280630F6001330F500B130F400D3
:1004F800F40B7C2AF50B7C2AF60B7C2A832A013024
:10050800F400740883120313A5070F302502031C97
:100518008E2A8F2A762AD428D428D4281028AB01EA
:100528007308FF0072088A0071088400700E830047
:0C053800FE0E7E0E0900AB0183011128AD
:00000001FF
