:020000001028C6
:10000800FE00030EF7000408F8000A08F90083123E
:1000180003137F08FA00EB281128F001F101F2011F
:10002800F301F401F501A001A101A201A301A4219A
:10003800A70083011F280630831603139F0085013C
:10004800813086008701C030810090308B00831298
:100058000313860185018701F0010530700203183A
:100068005E28FF3086000630A6001330A500B130A8
:10007800A400A40B3D28A50B3D28A60B3D28442829
:100088008312031386010630A6001330A500B13091
:10009800A400A40B4D28A50B4D28A60B4D285428C9
:1000A800013083120313A4002408F00705307002FE
:1000B800031C3528F001831203132208013A031D9B
:1000C8006B280130A4002408A307F5087328F50855
:1000D800031D7C28F408031D7C287308013A031DBE
:1000E8007C287108013A031D7C28A101A10A7D28FA
:1000F800A1012108013A031D8F2815302302031896
:100108008F28F208031D97280716F201F20AA201A8
:10011800A20A871697287208013A031D9728071222
:10012800F201A20187122708013A0319861BCD287C
:100138002208013A031DCD280130A4002408A00795
:1001480007302002031CD0280712F201A2018712EF
:100158008312031306170630A6001330A500B1302A
:10016800A400A40BB528A50BB528A60BB528BC2858
:100178008312031306130630A6001330A500B1300E
:10018800A400A40BC528A50BC528A60BC528CC28F8
:10019800AC2883120313A001F0010F30700203187A
:1001A8005F28063083120313A6001330A500B13070
:1001B800A400A40BDD28A50BDD28A60BDD28E42868
:1001C800013083120313A4002408F007D128A301E7
:1001D80083160313850183120313850104308316E4
:1001E8000313850083120313051D0829F930F6004F
:1001F8000000F60BFC280029000083120313051DDC
:100208000929F401F40A0929F40183160313850165
:1002180083120313850102308316031385008312AA
:100228000313851C2729F930F6000000F60B19295D
:100238001D29000083120313851C2829F501F50ADE
:10024800F401F40A2829F5017508013A031D2E293D
:1002580086142F2986107408013A031D35290615BE
:1002680036290611831603138501831203138501AA
:100278002030831603138500831203138515F93084
:10028800F6000000F60B45294929000083120313E4
:10029800851E5C29F930F6000000F60B5029542918
:1002A800000083120313851E5D29F101F10A5D29FF
:1002B800F1018316031385018312031385010830A6
:1002C800831603138500831203138516F930F6008D
:1002D8000000F60B6C297029000083120313851D9A
:1002E8008329F930F6000000F60B77297B290000F6
:1002F80083120313851D8429F301F30A8429F3016A
:100308008316031385018312031385017308013AC9
:10031800031D90298615912986117108013A031D3C
:1003280097290616982906128B107A08FF00790873
:100338008A0078088400770E8300FE0E7E0E09007E
:0203480001347E
:00000001FF
