:0600000000F044EF00F0E7
:10000800FFFFFACF4DF0FBCF4EF0E9CF4FF0EACF2C
:1000180050F0E1CF51F0E2CF52F0D9CF53F0DACF20
:1000280054F0F3CF55F0F4CF56F0F6CF57F0F7CFA2
:1000380058F0F8CF59F0F5CF5AF09DBA9EAA02D0E1
:1000480087EC00F05AC0F5FF59C0F8FF58C0F7FF19
:1000580057C0F6FF56C0F4FF55C0F3FF54C0DAFF8F
:1000680053C0D9FF52C0E2FF51C0E1FF50C0EAFFC0
:100078004FC0E9FF4EC0FBFF4DC0FAFF1100FFFF64
:100088003DEF01F0FFFF4668476809D0AF682CD004
:10009800810E03D0400E01D02A0EAF6E25D05BC072
:1000A8005DF05CC05EF05E50250AD8B40AD06E0AD6
:1000B800D8B40CD0DD0AD8B40ED0770AD8B410D092
:1000C80013D05D50800AD8B4E1D70ED05D50000A35
:1000D800D8B4DED709D05D50000AD8B4DBD704D035
:1000E8005D50000AD8B4D8D7949C948EAC9CAC8A46
:1000F800AC98AC84AB8EAB9CAB88AB969D8AF28CEB
:10010800F28E1200FFFFFFFFAECF4CF046503F0AC1
:10011800D8A403D04750D8B415D047C048F0496A8E
:1001280048BE490646C04AF04B6A4ABE4B06010E15
:100138004A26000E4B2249504B1802E148504A18F3
:10014800D8A407D0472A4750400AD8A402D0000EA6
:10015800476E46503F0AD8A403D0000E466E01D021
:10016800462A4650010D010EF324D96E000EF420E4
:10017800DA6E4CC0DFFF4728D8A402D0000E476EC5
:100188001200FFFFFFFFFFFF000E936E000E606E70
:100198000CD08168020E00F0E82EFDD7000E816EAB
:1001A800020E00F0E82EFDD7602A090E6064F1D730
:1001B800250E5C6E800E5B6E46EC00F0F9EC00F0EC
:1001C8005F6E5F50D8B4FAD71DEC01F0616E6150D4
:1001D800520AD8B481686150420AD8A402D0000EED
:1001E800816E615048EC01F0E9D7FFFF4728D8A499
:1001F80002D0000E1CD04750800A5B6E4650800A21
:100208005B5CD8B006D04750000846245B6E5B287C
:100218000ED04650800A5B6E4750800A5B5CD8B0AF
:1002280005D0475000084624410F01D0010E1200A6
:10023800FFFFFFFF4728D8A402D0000E18D0475070
:10024800010D010EF324D96E000EF420DA6EDF5092
:100258005B6E4650476203D04668476807D0472A16
:100268004750400AD8A402D0000E476E5B501200D7
:10027800FFFF00EE01F0470EEE6AE806FDE1000E12
:10028800F86E0001C7EF00F0FFFF5B6E9EA8FED777
:0A0298005BC0ADFF1200FFFFFFFF87
:020000040030CA
:04000000FF260D0EBC
:0200060081FF78
:00000001FF
