:08000000803102288731FC2F3A
:100F4800163021009700080072302100990098019E
:100F58002200960108008731B82787318731A827F2
:100F680087318731A4270800220090018F018C0166
:100F78008D018E010F3021009000FF308C00FE3073
:100F88008D00FF308E00FF308F00FF3023008F0070
:100F98003E308D00073090003F308C0024009001D7
:100FA8008D012100951722009D0108008731AF2788
:100FB800873122000D140630F2001330F100B130F1
:100FC800F000F00BE52FF10BE52FF20BE52F0032C7
:100FD80022000D100630F2001330F100B130F0009D
:100FE800F00BF42FF10BF42FF20BF42F0032DD2F5E
:080FF8007E1020008731DA2F82
:020000040001F9
:04000E00E4FFFFFE0E
:00000001FF
