:0600000000F087EF00F0A4
:10000800FFFFFACF18F0FBCF19F0E9CF1AF0EACFCB
:100018001BF0E1CF1CF0E2CF1DF0D9CF1EF0DACFF4
:100028001FF0F3CF20F0F4CF21F0F6CF22F0F7CF76
:1000380023F0F8CF24F0F5CF25F0D7EC05F0000E2B
:10004800046E010EE0EC06F0060E0B6E010E0A6E51
:10005800F9EC04F0010E0A6E040E64EC07F04BC0D4
:100068000AF00B6A020E0C6E12EC03F0010E0A6E17
:10007800060E64EC07F0060E0B6E200E0A6EF9EC05
:1000880004F0010E0A6E070E64EC07F04CC00AF08B
:100098000B6A020E0C6E12EC03F0010E0A6E090ECA
:1000A80064EC07F0060E0B6E200E0A6EF9EC04F0F5
:1000B800010E0A6E0A0E64EC07F04EC00AF00B6AD5
:1000C800020E0C6E12EC03F0F29225C0F5FF24C06C
:1000D800F8FF23C0F7FF22C0F6FF21C0F4FF20C0BD
:1000E800F3FF1FC0DAFF1EC0D9FF1DC0E2FF1CC00E
:1000F800E1FF1BC0EAFF1AC0E9FF19C0FBFF18C0E7
:0A010800FAFF1100FFFF86EF07F079
:10060000004E4954494E204E2E2053414E47414CF6
:10061000450048656C6C6F20576F726C6420210038
:100620003A000000FFFF20EE44F010EE0FF0050E40
:10063000DECFE6FFE82EFCD7000E176E040E166E16
:10064000000E156E000E146E0B50800AF36E800EB5
:10065000F35C000ED8B40A5CD8B02DD0010E046E45
:100660002D0EE0EC06F00A6C0B1ED8B00B2A23D03E
:100670000F0E1624D96E000E1720DA6E0AC001F094
:100680000BC002F0000E046E0A0E036E4BEC05F078
:100690000150DF6E0AC001F00BC002F0000E046EC4
:1006A0000A0E036E53EC04F001C00AF002C00BF016
:1006B0001606D8A017060B500A10D8A4D9D70C28B4
:1006C000D8B403D00CD0144A152A0F0E1424D96EB6
:1006D000000E1520DA6EDF50D8A410D0F4D70CC06D
:1006E0000DF00E6A0DBE0E060D1E0E1E0D4A0E2AD0
:1006F000050E0D24146E000E0E20156E14C016F09B
:1007000015C017F01750800A800F050ED8B4165C7C
:10071000D8B00FD0010E046E0F0E1624D96E000E45
:100720001720DA6EDF50300FE0EC06F0164A172A79
:10073000E9D71200FFFFFFFF4E9E3F0E4B164E50B3
:10074000CDEC07F04E6E4C50CDEC07F04C6E4B509C
:10075000CDEC07F04B6E4A50CDEC07F04A6E495095
:10076000CDEC07F0496E4D50CDEC07F04D6E4F507B
:10077000CDEC07F04F6E17EC08F0C580C5B0FED782
:10078000D00E16EC06F017EC08F0000E16EC06F092
:1007900017EC08F04E5016EC06F017EC08F04C5031
:1007A00016EC06F017EC08F04B5016EC06F017ECC0
:1007B00008F04A5016EC06F017EC08F0495016EC19
:1007C00006F017EC08F04D5016EC06F017EC08F0A8
:1007D0004F5016EC06F017EC08F0100E16EC06F071
:1007E00017EC08F0C584C5A41200FFFFFCD7FFFF7B
:1007F000FFFF000E296E17EC08F0C580C5B0FED7CC
:10080000D00E16EC06F017EC08F0000E16EC06F011
:1008100017EC08F0C582C5B2FED7D10E16EC06F073
:10082000A1EC07F0296EC58AC588C5B8FED7C58476
:10083000C5B4FED72950E0EC07F0296E299E295057
:10084000CDEC07F0296E020E00F0E82EFDD717EC74
:1008500008F0C580C5B0FED7D00E16EC06F017EC38
:1008600008F0000E16EC06F017EC08F0295016EC14
:1008700006F017EC08F0C582C5B2FED7D00E16EC14
:1008800006F017EC08F0070E16EC06F017EC08F06F
:10089000100E16EC06F017EC08F0C584C5A4120083
:1008A000FFFFFCD7FFFFFFFF000E066E0450800A1B
:1008B000F36E800EF35C000ED8B4035CD8B006D0A3
:1008C000036C041ED8B0042A010E066E0250800A82
:1008D000F36E800EF35C000ED8B4015CD8B006D085
:1008E000016C021ED8B0022A010E061A000E086E14
:1008F000000E076E04500310D8B41CD0010E056E14
:1009000004D0D89003360436052A04AEFAD7D8901E
:10091000073608360350015C04500258D8A005D0B1
:100920000350015E0450025A0780D890043203320B
:10093000052EEDD70650D8B404D0076C081ED8B0E9
:10094000082A07C001F008C002F01200FFFFFFFFF5
:1009500043D02FC0F6FF30C0F7FF0800FFFFF5506F
:10096000250AD8A42CD02F4A302A2FC0F6FF30C039
:10097000F7FF0800FFFFF550D00F326E32BE0ED0E9
:100980003250800A316E080E800A315CD8B006D031
:10099000010E296E3250B0EC06F01CD0010E296E0B
:1009A000250EB0EC06F0010E296E2FC0F6FF30C008
:1009B000F7FF0800FFFFF550B0EC06F00BD0010E7A
:1009C000296E2FC0F6FF30C0F7FF0800FFFFF5507B
:1009D000B0EC06F02F4A302A2FC0F6FF30C0F7FFE8
:1009E0000800FFFFF5500009D8B41200FFFFB1D78F
:1009F000FFFFFFFF43D00AC0F6FF0BC0F7FF080060
:100A0000FFFFF550250AD8A42CD00A4A0B2A0AC0A9
:100A1000F6FF0BC0F7FF0800FFFFF550D00F0D6E7B
:100A20000DBE0ED00D50800A0C6E080E800A0C5CB4
:100A3000D8B006D0010E046E0D50E0EC06F01CD0CC
:100A4000010E046E250EE0EC06F0010E046E0AC0E5
:100A5000F6FF0BC0F7FF0800FFFFF550E0EC06F0D3
:100A60000BD0010E046E0AC0F6FF0BC0F7FF0800A2
:100A7000FFFFF550E0EC06F00A4A0B2A0AC0F6FF29
:100A80000BC0F7FF0800FFFFF5500009D8B41200B3
:100A9000FFFFB1D7FFFFFFFF000E066E0250800A76
:100AA000F36E800EF35C000ED8B4015CD8B006D0B3
:100AB000016C021ED8B0022A010E066E0450800A94
:100AC000F36E800EF35C000ED8B4035CD8B004D093
:100AD000036C041ED8B0042A04500310D8B418D0F4
:100AE000010E056E04D0D89003360436052A04AEF4
:100AF000FAD70350015C04500258D8A004D0035028
:100B0000015E0450025AD89004320332052EF1D708
:100B10000650D8B404D0016C021ED8B0022A01C01D
:100B200001F002C002F01200FFFFFFFF306E4A0E1C
:100B30002F6E180EE82EFED72F2EFCD700D00F0EEA
:100B400093169396939293940F0E811681968194A7
:100B5000819200F08186818A00D0819600D010ECCD
:100B600007F0000E296E280EB0EC06F0000E296E7C
:100B700030500C09B0EC06F0000E296E400EB0ECBF
:100B800006F0000E316E0ED0010E296E3150010DAF
:100B9000340EF324D96E000EF420DA6EDF50B0EC80
:100BA00006F0312A0F0E3164EFD71200FFFFFFFF6E
:100BB00021EC08F0C580C5B0FED7D00E4AEC06F097
:100BC00021EC08F0000E4AEC06F021EC08F0C5829A
:100BD000C5B2FED7D10E4AEC06F0B7EC07F04E6E68
:100BE000C59AC588C5B8FED7B7EC07F04C6EC59A54
:100BF000C588C5B8FED7B7EC07F04B6EC58AC58867
:100C0000C5B8FED7C584C5B4FED74E507F0BF3ECF4
:100C100007F04E6E4C507F0BF3EC07F04C6E4B50D0
:100C20003F0BF3EC07F04B6E1200FFFFFFFF286E47
:100C300028C0C9FFC6BE2CD0C6CF27F00F0E27167E
:100C40002750080AD8B40FD0C6CF27F00F0E2716AA
:100C500027500B0AD8B407D0C6889EA6FED7C7B4C3
:100C600017D0C75015D0C6CF27F00F0E2716275024
:100C7000080AD8B408D0C6CF27F00F0E2716275081
:100C80000B0AD8A405D0C7B0FED717EC08F0C550A2
:100C90001200FFFFFFFF036E03C0C9FFC6BE2CD0CA
:100CA000C6CF02F00F0E02160250080AD8B40FD0B9
:100CB000C6CF02F00F0E021602500B0AD8B407D0AE
:100CC000C6889EA6FED7C7B417D0C75015D0C6CFCA
:100CD00002F00F0E02160250080AD8B408D0C6CF90
:100CE00002F00F0E021602500B0AD8A405D0C7B0AE
:100CF000FED721EC08F0C5501200FFFFFFFF000EE9
:100D0000336E010E936E000E816E000E95EC05F0B1
:100D1000000E296E010EB0EC06F0060E306E120EBB
:100D20002F6EA7EC04F0800E266E080E06EC08F07D
:100D3000190EC86EF8EC03F0010E496E010E4D6EEF
:100D40000F0E4F6E020E4A6E0C0E4B6E000E4C6E66
:100D5000000E4E6E9BEC03F0F18CF288F28EFFD702
:100D6000FFFF2D6E2D380F0B2B6E2D500F0B2C6EA1
:100D7000296602D0819201D0818200F081862BC049
:100D80002AF02A3AF00E2A1681500F0B2A102E6EE6
:100D90002EC081FF00D0819600D081862CC02AF021
:100DA0002A3AF00E2A1681500F0B2A102E6E2EC0F2
:100DB00081FF00D0819600D010EC07F01200FFFFF9
:100DC000FFFF066E06380F0B076E06500F0B086EFE
:100DD000046602D0819201D0818200F0818607C032
:100DE00005F0053AF00E051681500F0B0510096E3F
:100DF00009C081FF00D0819600D0818608C005F02F
:100E0000053AF00E051681500F0B0510096E09C04A
:100E100081FF00D0819600D03AEC07F01200FFFF6E
:100E2000FFFF000E286EF00E93128184819200F075
:100E3000818600F081380F0B286E2838F00B286E61
:100E400000F0819600D0818600F081380F0B276E6C
:100E50000F0E271628502710286E2850800B266E5C
:100E600000F0819600D02666E3D781940F0E93168A
:100E70001200FFFFFFFF000E036EF00E931281843D
:100E8000819200F0818600F081380F0B036E0338E9
:100E9000F00B036E00F0819600D0818600F081385F
:100EA0000F0B026E0F0E021603500210036E03505A
:100EB000800B016E00F0819600D00166E3D781942B
:100EC0000F0E93161200FFFFFFFF0B6E130E0B6445
:100ED00008D01AD00B8C12D0140E01D0540E0B2651
:100EE0000DD00A50000AD8B409D0010AD8B4F2D7FC
:100EF000030AD8B4F1D7010AD8B4F0D70B8E000E8C
:100F0000046E0B50E0EC06F01200FFFF00EE44F020
:100F10000C0EEE6AE806FDE1560EF66E100EF76E48
:100F2000000EF86E00EE34F010EE10F00900F5CF70
:100F3000EEFFE550E150FAE1000EF86E00017EEFA1
:100F400006F0FFFFC6CF26F00F0E26162650080A21
:100F5000D8B407D0C6CF26F00F0E261626500B0A9F
:100F6000D8B4C586C7A0FED7C9501200FFFFFFFF47
:100F7000C6CF01F00F0E01160150080AD8B407D0F1
:100F8000C6CF01F00F0E011601500B0AD8B4C5866A
:100F9000C7A0FED7C9501200FFFFFFFF266E26C074
:100FA00028F0000E276E090E286405D00A0E285E70
:100FB000100E2726F8D72850272627501200FFFFAB
:100FC000FFFF276E27C028F0D8902832780E281609
:100FD00027C026F00F0E26162840E8423F0B262495
:100FE00028241200FFFFFFFF026E02C003F0D8901A
:100FF0000332780E031602C001F00F0E01160340F3
:10100000E8423F0B012403241200FFFFFFFF276E7D
:101010003F0EC716000EC66E000EC56E2750C612D4
:101020002650C71294869488C68A1200FFFFFFFFDD
:10103000C5CF26F01F0E2616D8B4C7B4F9D71200B4
:10104000FFFFFFFFC5CF01F01F0E0116D8B4C7B4D4
:10105000F9D71200FFFF000103161C080000001B57
:081060000E040E1B0000FFFF4F
:020000040030CA
:04000000FF220D0EC0
:0200060081FF78
:00000001FF
