:020000040000FA
:020000000C28CA
:10000800FE00030EF5000408F6000A08F700D729D9
:100018000D28F801F9018313203084006730F4219A
:1000280083011628FE308316031385008601873066
:10003800870006309F0083120313ED0187160630F0
:1000480083120313EC001330EB00AD30EA00EA0B27
:100058002B28EB0B2B28EC0B2B2800008312031307
:100068008712063083120313EC001330EB00AD3017
:10007800EA00EA0B3D28EB0B3D28EC0B3D2800007D
:10008800013083120313EA006A08ED0705306D0298
:10009800031C2228B030E7000430E80096208312C1
:1000A80003136603031D74288B13E921013A031D0A
:1000B8006928831203136508031D73285221BC2184
:1000C80083120313E501E50A7328831203136503FA
:1000D800031D73282C21BC2183120313E5018B1700
:1000E8009B21003A03195328782183120313EA004D
:1000F8006A08EE0023306E06031D8428BC215328AD
:1001080043306E06031D8B28E601E60A5328423069
:100118006E06031D53282C2183120313E601E50103
:10012800BC215328FF30F80083120313E900690843
:10013800F900AB28CF30A7281930A7280C30A728FA
:100148000830A7280630831603139900D5286808B5
:10015800043A0319BC28213A0319C1286E3A031935
:10016800C6283B3A0319CB28F33A0319D028D528D7
:100178006708B03A03199E28D5286708803A0319FA
:10018800A028D5286708003A0319A228D5286708A7
:10019800803A0319A428D5286708403A0319A628E5
:1001A800D5288316031318139816181218158312D6
:1001B80003139817181318169811831603138C161F
:1001C8000B178B17080083120313861CED28861063
:1001D800EE2886141A08F0007008F4003F307806FC
:1001E8000319790803190D297908F000F101F01BAA
:1001F800F10301307807F200F3010318F30AF81B42
:10020800F30371087306031D0B2970087206031D9A
:1002180015290130F0007008F907403079060319F4
:10022800F9013F307806031D1B29F8011F29013009
:10023800F0007008F8077408F0007808203E840081
:10024800700883138000790A031D0800F90108006B
:10025800063083120313E9001330E800AD30E700DD
:10026800E70B3429E80B3429E90B34290000831201
:1002780003130716333083120313E900BB30E80079
:10028800DF30E700E70B4629E80B4629E90B46294A
:100298000000831203130712871208000630831226
:1002A8000313E9001330E800AD30E700E70B5A29E3
:1002B800E80B5A29E90B5A29000083120313871502
:1002C800333083120313E900BB30E800DF30E70066
:1002D800E70B6C29E80B6C29E90B6C2900008312E9
:1002E8000313871187160800790A031D7D2900303A
:1002F80008007908203E8400831300088312031342
:10030800E7006708E80079087806031D9129FF309F
:10031800F800E7006708F90099290130E700670845
:10032800F907403079060319F90168080800790AC5
:10033800031DA029003008007908803A83120313AE
:10034800E7007808803AE7020318AE2979087802AE
:10035800013E08007808803AE7007908803AE70209
:100368000318BA2979087802413E080001300800CC
:1003780083120313E9016603031DC72969080138BD
:10038800E8006808E900E921013A031DD22983122F
:10039800031369080238E8006808E90083120313A8
:1003A8006908FC210800831603138C1EE0298312B8
:1003B80003138C1EE029E72077088A00760884005A
:1003C800750E8300FE0E7E0E0900831203130718B4
:1003D800871CF229071DF2290130080000300800A7
:1003E80064008001840A0406031900340406F52910
:1003F80083120313E7000C1EFF2967089900080001
:02400E0039FD7A
:00000001FF
