:020000040000fa
:080000000002040000000000f2
:020000040000fa
:040008008c03000065
:020000040000fa
:04000c0018030000d5
:020000040000fa
:040010002a030000bf
:020000040000fa
:0400140020030000c5
:020000040000fa
:0400180032030000af
:020000040000fa
:04001c008c03000051
:020000040000fa
:040020008c0300004d
:020000040000fa
:040024008c03000049
:020000040000fa
:040028008c03000045
:020000040000fa
:04002c008c03000041
:020000040000fa
:040030008c0300003d
:020000040000fa
:040034008c03000039
:020000040000fa
:040038008c03000035
:020000040000fa
:04003c008c03000031
:020000040000fa
:040040008c0300002d
:020000040000fa
:040044008c03000029
:020000040000fa
:040048008c03000025
:020000040000fa
:04004c008c03000021
:020000040000fa
:040050008c0300001d
:020000040000fa
:04005400580300004d
:020000040000fa
:040058003a03000067
:020000040000fa
:04005c008c03000011
:020000040000fa
:040060008c0300000d
:020000040000fa
:040064008c03000009
:020000040000fa
:040068008c03000005
:020000040000fa
:04006c008c03000001
:020000040000fa
:040070008c030000fd
:020000040000fa
:040074008c030000f9
:020000040000fa
:040078008c030000f5
:020000040000fa
:04007c008c030000f1
:020000040000fa
:040080008c030000ed
:020000040000fa
:040084008c030000e9
:020000040000fa
:040088008c030000e5
:020000040000fa
:04008c008c030000e1
:020000040000fa
:040090008c030000dd
:020000040000fa
:040094008c030000d9
:020000040000fa
:040098008c030000d5
:020000040000fa
:04009c008c030000d1
:020000040000fa
:0400a0008c030000cd
:020000040000fa
:0400a4008c030000c9
:020000040000fa
:0400a8008c030000c5
:020000040000fa
:0400ac008c030000c1
:020000040000fa
:0400b0008c030000bd
:020000040000fa
:0400b4008c030000b9
:020000040000fa
:0400b8008c030000b5
:020000040000fa
:0400bc008c030000b1
:020000040000fa
:0400c0008c030000ad
:020000040000fa
:0400c4008c030000a9
:020000040000fa
:0400c8008c030000a5
:020000040000fa
:0400cc008c030000a1
:020000040000fa
:0400d0008c0300009d
:020000040000fa
:0400d4008c03000099
:020000040000fa
:0400d8008c03000095
:020000040000fa
:0400dc008c03000091
:020000040000fa
:0400e0008c0300008d
:020000040000fa
:0400e4008c03000089
:020000040000fa
:0400e8008c03000085
:020000040000fa
:0400ec008c03000081
:020000040000fa
:0400f0008c0300007d
:020000040000fa
:0400f4008c03000079
:020000040000fa
:0400f8008c03000075
:020000040000fa
:0400fc008c03000071
:020000040000fa
:040100008c0300006c
:020000040000fa
:040104008c03000068
:020000040000fa
:040108008c03000064
:020000040000fa
:04010c008c03000060
:020000040000fa
:040110008c0300005c
:020000040000fa
:040114008c03000058
:020000040000fa
:040118008c03000054
:020000040000fa
:04011c008c03000050
:020000040000fa
:040120008c0300004c
:020000040000fa
:040124008c03000048
:020000040000fa
:040128008c03000044
:020000040000fa
:04012c007603000056
:020000040000fa
:040130008c0300003c
:020000040000fa
:040134008c03000038
:020000040000fa
:040138008c03000034
:020000040000fa
:04013c008c03000030
:020000040000fa
:040140008c0300002c
:020000040000fa
:040144008c03000028
:020000040000fa
:040148008c03000024
:020000040000fa
:04014c008c03000020
:020000040000fa
:040150008c0300001c
:020000040000fa
:040154008c03000018
:020000040000fa
:040158008c03000014
:020000040000fa
:04015c008c03000010
:020000040000fa
:040160008c0300000c
:020000040000fa
:040164008c03000008
:020000040000fa
:040168008c03000004
:020000040000fa
:04016c008c03000000
:020000040000fa
:040170008c030000fc
:020000040000fa
:040174008c030000f8
:020000040000fa
:040178008c030000f4
:020000040000fa
:04017c008c030000f0
:020000040000fa
:040180008c030000ec
:020000040000fa
:040184008c030000e8
:020000040000fa
:040188008c030000e4
:020000040000fa
:04018c008c030000e0
:020000040000fa
:040190008c030000dc
:020000040000fa
:040194008c030000d8
:020000040000fa
:040198008c030000d4
:020000040000fa
:04019c008c030000d0
:020000040000fa
:0401a0008c030000cc
:020000040000fa
:0401a4008c030000c8
:020000040000fa
:0401a8008c030000c4
:020000040000fa
:0401ac008c030000c0
:020000040000fa
:0401b0008c030000bc
:020000040000fa
:0401b4008c030000b8
:020000040000fa
:0401b8008c030000b4
:020000040000fa
:0401bc008c030000b0
:020000040000fa
:0401c0008c030000ac
:020000040000fa
:0401c4008c030000a8
:020000040000fa
:0401c8008c030000a4
:020000040000fa
:0401cc008c030000a0
:020000040000fa
:0401d0008c0300009c
:020000040000fa
:0401d4008c03000098
:020000040000fa
:0401d8008c03000094
:020000040000fa
:0401dc008c03000090
:020000040000fa
:0401e0008c0300008c
:020000040000fa
:0401e4008c03000088
:020000040000fa
:0401e8008c03000084
:020000040000fa
:0401ec008c03000080
:020000040000fa
:0401f0008c0300007c
:020000040000fa
:0401f4008c03000078
:020000040000fa
:0401f8008c03000074
:020000040000fa
:0401fc008c03000070
:020000040000fa
:040208008c03000063
:020000040000fa
:04020c008c0300005f
:020000040000fa
:040210008c0300005b
:020000040000fa
:040214008c03000057
:020000040000fa
:040218008c03000053
:020000040000fa
:04021c008c0300004f
:020000040000fa
:040220008c0300004b
:020000040000fa
:040224008c03000047
:020000040000fa
:040228008c03000043
:020000040000fa
:04022c008c0300003f
:020000040000fa
:040230008c0300003b
:020000040000fa
:040234008c03000037
:020000040000fa
:040238008c03000033
:020000040000fa
:04023c008c0300002f
:020000040000fa
:040240008c0300002b
:020000040000fa
:040244008c03000027
:020000040000fa
:040248008c03000023
:020000040000fa
:04024c008c0300001f
:020000040000fa
:040250008c0300001b
:020000040000fa
:040254008c03000017
:020000040000fa
:040258008c03000013
:020000040000fa
:04025c008c0300000f
:020000040000fa
:040260008c0300000b
:020000040000fa
:040264008c03000007
:020000040000fa
:040268008c03000003
:020000040000fa
:04026c008c030000ff
:020000040000fa
:040270008c030000fb
:020000040000fa
:040274008c030000f7
:020000040000fa
:040278008c030000f3
:020000040000fa
:04027c008c030000ef
:020000040000fa
:040280008c030000eb
:020000040000fa
:040284008c030000e7
:020000040000fa
:040288008c030000e3
:020000040000fa
:04028c008c030000df
:020000040000fa
:040290008c030000db
:020000040000fa
:040294008c030000d7
:020000040000fa
:040298008c030000d3
:020000040000fa
:04029c008c030000cf
:020000040000fa
:0402a0008c030000cb
:020000040000fa
:0402a4008c030000c7
:020000040000fa
:0402a8008c030000c3
:020000040000fa
:0402ac008c030000bf
:020000040000fa
:0402b0008c030000bb
:020000040000fa
:0402b4008c030000b7
:020000040000fa
:0402b8008c030000b3
:020000040000fa
:0402bc008c030000af
:020000040000fa
:0402c0008c030000ab
:020000040000fa
:0402c4008c030000a7
:020000040000fa
:0402c8008c030000a3
:020000040000fa
:0402cc008c0300009f
:020000040000fa
:0402d0008c0300009b
:020000040000fa
:0402d4008c03000097
:020000040000fa
:0402d8008c03000093
:020000040000fa
:0402dc008c0300008f
:020000040000fa
:0402e0008c0300008b
:020000040000fa
:0402e4008c03000087
:020000040000fa
:0402e8008c03000083
:020000040000fa
:0402ec008c0300007f
:020000040000fa
:0402f0008c0300007b
:020000040000fa
:0402f4008c03000077
:020000040000fa
:0402f8008c03000073
:020000040000fa
:0402fc008c0300006f
:020000040000fa
:040300008c0300006a
:020000040000fa
:040304008c03000066
:020000040000fa
:040308008c03000062
:020000040000fa
:04030c008c0300005e
:020000040000fa
:040310008c0300005a
:020000040000fa
:040314008c03000056
:020000040000fa
:040318008c03000052
:020000040000fa
:04031c008c0300004e
:020000040000fa
:040320008c0300004a
:020000040000fa
:040324008c03000046
:020000040000fa
:040328008c03000042
:020000040000fa
:04032c008c0300003e
:020000040000fa
:040330008c0300003a
:020000040000fa
:040334008c03000036
:020000040000fa
:040338008c03000032
:020000040000fa
:04033c008c0300002e
:020000040000fa
:040340008c0300002a
:020000040000fa
:040344008c03000026
:020000040000fa
:040348008c03000022
:020000040000fa
:04034c008c0300001e
:020000040000fa
:040350008c0300001a
:020000040000fa
:040354008c03000016
:020000040000fa
:040358008c03000012
:020000040000fa
:04035c008c0300000e
:020000040000fa
:040360008c0300000a
:020000040000fa
:040364008c03000006
:020000040000fa
:040368008c03000002
:020000040000fa
:04036c008c030000fe
:020000040000fa
:040370008c030000fa
:020000040000fa
:040374008c030000f6
:020000040000fa
:040378008c030000f2
:020000040000fa
:04037c008c030000ee
:020000040000fa
:040380008c030000ea
:020000040000fa
:040384008c030000e6
:020000040000fa
:040388008c030000e2
:020000040000fa
:04038c008c030000de
:020000040000fa
:040390008c030000da
:020000040000fa
:040394008c030000d6
:020000040000fa
:040398008c030000d2
:020000040000fa
:04039c008c030000ce
:020000040000fa
:0403a0008c030000ca
:020000040000fa
:0403a4008c030000c6
:020000040000fa
:0403a8008c030000c2
:020000040000fa
:0403ac008c030000be
:020000040000fa
:0403b0008c030000ba
:020000040000fa
:0403b4008c030000b6
:020000040000fa
:0403b8008c030000b2
:020000040000fa
:0403bc008c030000ae
:020000040000fa
:0403c0008c030000aa
:020000040000fa
:0403c4008c030000a6
:020000040000fa
:0403c8008c030000a2
:020000040000fa
:0403cc008c0300009e
:020000040000fa
:0403d0008c0300009a
:020000040000fa
:0403d4008c03000096
:020000040000fa
:0403d8008c03000092
:020000040000fa
:0403dc008c0300008e
:020000040000fa
:0403e0008c0300008a
:020000040000fa
:0403e4008c03000086
:020000040000fa
:0403e8008c03000082
:020000040000fa
:0403ec008c0300007e
:020000040000fa
:0403f0008c0300007a
:020000040000fa
:0403f4008c03000076
:020000040000fa
:0403f8008c03000072
:020000040000fa
:0403fc008c0300006e
:020000040000fa
:10040000eff220000e7f22000e01880000000000a5
:10041000000020000000e000020032000001200087
:1004200020028800140007000c0107000000e00013
:1004300003003a0080c422000100200002003700bf
:100440000000200001002000810f70000100320038
:1004500014000700000020000000e000020032004d
:100460000000020000000000922e020000000000c8
:100470000040da000000fe004440a9000003200014
:100480000000e000030032000020200090018800fe
:100490004440a800000006008a1f78008b1f7800e7
:1004a00000000600a1028800800478000000eb0034
:1004b0001f003700e284440054a0b4009905ba003c
:1004c000e284440054a0b4009906ba00e2844400d7
:1004d00054a0b4000006eb00476fde00fd07b20039
:1004e000ae018800636ce10003003a00eaff0700f8
:1004f0000000eb000e003700606ce10008003a00dd
:10050000004deb000a05e800020039003420ec0041
:100510000af0a0008b05e900f9ff3e000400370057
:100520006168e100010032000086eb000b0007006b
:1005300019c7ba001905ba000e04e00003003a001a
:100540000a00e000dbff3a0000000600fe07b200f0
:10055000ae0288008a047800f5ff37000cd0a300b3
:10056000e20f4d001c00390089027800354dba00b9
:100570000a05e800020039003420ec000af0a0006f
:100580008b05e9000f003200254dba000a05e8008e
:10059000020039003420ec000af0a0008b05e900cd
:1005a000080032000c00e0000600320015cdba0051
:1005b0000a05e800020039003420ec000af0a0002f
:1005c0008b05e9008984e80054a0b4000b00e0002a
:1005d000e2ff3a00000006009902ba00055d7800cb
:1005e0008b05e900f7ff3200c82ade00055d7800c0
:1005f0008b05e900f3ff32000c00e000f1ff320050
:1006000019ddba00eeff37004024040000000000ae
:100610009024040000000000fa050400000000001f
:10062000461004000000000000000400000000006c
:100630003600f8008020a9000000eb00f715070045
:100640003600f800f91507008040a90010002000ce
:10065000f21507003600f8008060a9002000200095
:10066000ee1507003600f8008080a9003000200059
:10067000ea1507003600f800809fbe00829fbe008a
:10068000849fbe00869fbe000000fa00f0408000fc
:10069000000001000080fa004f03be004f02be00c0
:1006a0004f01be004f00be003600f90000400600ba
:1006b0003600f800809fbe00829fbe00849fbe006f
:1006c000869fbe000000fa0000418000000001008b
:1006d0000080fa004f03be004f02be004f01be0073
:1006e0004f00be003600f90000400600801f780071
:1006f0000000fa0010118000620060000000e000bd
:10070000010032002222a9008c20a9000080fa00fa
:100710004f007800004006000040da000000fe00b4
:100720000a00fa0011002000b1bf9f00c0bf9f0067
:100730006a8057000a0707004fb897000080fa0048
:10074000000006000a00fa0051002000b1bf9f001f
:10075000c0bf9f006a805700030707005fb897007b
:100760000080fa0000000600889fbe008004780028
:10077000607980000000e00004003a000e000700ed
:100780000084eb000000e00008003500687980007c
:100790000900e000050032000900440006000700df
:1007a0000000e00001003d000084eb00080078003c
:1007b0004f04be0000000600800078000100e00049
:1007c00003003a0000002000607988000000050066
:1007d0000080eb0002002000828f500002003e00eb
:1007e000617988000000eb00000006000a00fa00b2
:1007f000200798003107980042079800be0090003b
:10080000110798000000eb00000f78000c00370083
:10081000000000009f1007000004a2000004e00098
:10082000fcff3a001e009000104078009e009000ef
:100830008100e80011079800761007001e0fe800fd
:100840004e0090009e007800808f5000f0ff39002d
:100850004e0090000080fa00000006000000050035
:100860006900e100040035006d00e1000300340080
:100870000002b10001003200000005001000050078
:1008800041d02000b500370000017800b141780068
:10089000035978000304e000fcff3a000000060062
:1008a00080007800010178003104e000fdff3a008b
:1008b0000000510000000600ee874700889fbe0040
:1008c0008a9fbe008c9fbe008e1f7800f0b79f00ed
:1008d0000106780082057800000478000805780099
:1008e0000a047800b84678000d00fb00dcff070022
:1008f0000000e000f9ff3a00d0c2b30080cf5600fc
:100900000300320000c0e90080cf560002003a0028
:100910000a05e80001003700804678000b00e0007f
:1009200005003500e18f5500030032004002200031
:10093000808f5500060034006044b8000c00e000d1
:10094000720032007fb09700000e78004800370038
:100950000b00e0000e003200f08f55001a003a0044
:1009600000c3b3009a4f100017003a001a409000dd
:1009700081c7b300814f50000300320081c5b3002e
:10098000814f500010003a000a85e8000e00370041
:10099000ab00200000c3b3009a4f10000a003a00d9
:1009a0001a40900081c7b300814f5000040032000c
:1009b0008b00200081c5b300814f500002003a0037
:1009c0000a85e8000b0120000a0078000002780088
:1009d0000400780001c3b300b0cf1000fbff320069
:1009e000040778006044b800b4b79f000d003700da
:1009f00081e1200081405000c1ef9f006159b900a2
:100a00000800be007c0607004fea97000401fb00c7
:100a1000cf91de00c8b79f00d9b79f000204400005
:100a2000838448008e0278003e00fb0085bf9f0053
:100a30003d0007000b0178008000780080e1200075
:100a4000ee0207008fba97000000e000e8ff3a00ce
:100a50003fb29700850f550007003a006044b80088
:100a60000c00e00029003200ffb29700050e78006c
:100a70006044b8002500370004825200d0e3200013
:100a800060c07d000000fb00000252001700330030
:100a900011003a004fe997000200fb00cf80de0012
:100aa0000000540081805c00800f5400818f5c0046
:100ab000090039006159b90085bf9f003b06070056
:100ac0008fba97004fb19700dfb19700820f5000a7
:100ad000838f580005003200200220000079880032
:100ae0000084eb008084eb0005003700d0c2b30027
:100af00080cf560002003a0060041400e0841c001d
:100b00000c00e00001003200050e78000800be0075
:100b10004f0778004f06be004f05be004f04be00d1
:100b2000ef00b10000000600800078001104b10061
:100b3000030035009101b10001003c000050a0000d
:100b400000000600107980000000e0000100320083
:100b50000000010000f2200000000600889fbe0097
:100b60008a1f78000004be00c90090006900900050
:100b7000808f50000500390009007800bc02070092
:100b80008080eb000000e00016003500084578008a
:100b90004900900008587800c004980019007800b7
:100ba00000b8a30004003a0000a8a3000700320028
:100bb000ea4f540005003a000900780000020700df
:100bc0008080eb000000e00006003a0000c020003a
:100bd000190060000200320049009000e004980013
:100be0008a80fb00010078004f0578004f04be00aa
:100bf00000000600889fbe00000478000100780015
:100c00008204780088017800090178001100200032
:100c100026020700890f5000010032000004eb009b
:100c2000080078004f04be00000006000000fa0033
:100c3000e88157004fb9970041d02000a05f200005
:100c4000020007000080fa00000006006200fa00bf
:100c5000889fbe008a1f7800000578008104780014
:100c6000020478008300780080f92f000f00400014
:100c7000b10407009a979f00a9979f000000eb001e
:100c8000b09f9f001885fb008a04fb000a05ea005c
:100c90004f55de0050022000808f54000d003200be
:100ca000e10f55000b003a000a0178008800780037
:100cb0002f9097009f91970003000100a0979f003d
:100cc0000000e0008e0032003f9897000000e8002e
:100cd000b09f9f000a04440050022000808f5400ff
:100ce000040032000900e000e6ff3a003f98970058
:100cf000840037000000eb00909f9f00809f9f00c2
:100d0000f0979f00e0979f00d0979f00c0979f00ab
:100d10000700370061f12000010050000000400092
:100d2000a1f0200061007800df98970001007000ba
:100d3000d09f9f0088047800090478003845780027
:100d40008a00fb0060f120003d0207000000e00087
:100d5000f0ff3a00a1c2b300814f55000e003a00e7
:100d6000cf8897000180e900c08f9f0010007800b5
:100d7000c09f9f000000e00005003d000000ea0069
:100d8000c09f9f005f9897000020a000d09f9f0009
:100d90000904e8000f003700c09f9f000000eb002f
:100da00005003700f2ff2700820f500002003200da
:100db0006a01b900028040000904780088047800c4
:100dc000b900fb000103b100e98f5000f5ff3600c8
:100dd000c09f9f00e0c2b300984f10000200320095
:100de0000080eb0019003700a0c2b300d84f1000fc
:100df00007003a00cf8897000180e900c08f9f006c
:100e000010007800a09f9f000804e8001000370041
:100e10000000eb00a09f9f008800780005003700cd
:100e2000f3ff2700830f5000020032006a02b9006e
:100e30000400410001047800880078003101fb00c3
:100e40000203b100e90f5100f5ff3600a09f9f009b
:100e5000984478008900fb0020f02000f80107008a
:100e60000000e000020032000804e8000100370042
:100e70008044eb00c97f9f0080c6b30080cf540040
:100e800004003a0098cf14000a003a00664050006f
:100e900006003700c0c6b30080cf540005003a00fa
:100ea00098cf140003003a0065404000c07f9f00c7
:100eb0000804e8001801fb00e3fb2f008f814100cc
:100ec00081f92f008f804000a0f92f000f00400013
:100ed000100007000000e00009003a00e1fb2f00cd
:100ee0008f804000a0f92f000f004000560307003c
:100ef0000000e000020035000804e80061ff370050
:100f00000080eb004f0578004f04be000080fa001f
:100f100000000600889fbe008a1f78000004780049
:100f2000e0c6b300804f5100c100320015003c0004
:100f30006b405000804f5100240032000a003c00fa
:100f400070405000804f5100fa0032006540400070
:100f5000804f51006800320050c2b300804f5100f2
:100f60000b013a000701370040c6b300804f510023
:100f70001b00320065404000804f510004013a00e0
:100f80001700370030c7b300804f5100e90032002e
:100f900007003c0064405000804f51005600320072
:100fa0000040e800804f5100f9003a00d3003700bc
:100fb00050c7b300804f51004f00320063404000e3
:100fc000804f5100f2003a004b0037001181e900d8
:100fd000820878007800900012417800ea0037001b
:100fe00028609000c4c6b300844f500007003a0048
:100ff0001102780064005200800878001002be00e0
:101000004fabde00860378001100370014c7b30031
:10101000844f500003003200a4c6b300844f500038
:1010200006003a001102780068005200800878003b
:101030003002be002003be00050037001180e90029
:101040008008780010027800cfa2de00612bb90082
:10105000049cbe000694be002860900081c6b300c8
:10106000814f50000d00320021c6b300814f500067
:1010700004003a000402fb00cfa2de00612bb9009d
:101080000800370041c7b300814f50000300320011
:10109000e6c04000814f500004003a00cfa2de00bd
:1010a000612bb900049cbe000694be003802be004d
:1010b0002803be0078009000d1c2b300e00f5200b8
:1010c000e08f5a00e00f5b00e08f5b000800350006
:1010d000881090000118a30002003200b1c2b300d2
:1010e000030037000108a3004c00320001c2b30026
:1010f000817178004700370028609000c4c6b300b3
:10110000844f500006003a0011027800640052003b
:10111000800878001002be006033b800110037006c
:1011200014c7b300844f500003003200a4c6b300bc
:10113000844f500006003a00110278006800520007
:10114000800878003002be002003be000500370092
:101150001180e90080087800100278008002eb001e
:101160006033b800049cbe000694be002860900066
:1011700081c6b300814f50000d00320021c6b3007c
:10118000814f500004003a000482fb008002eb0013
:101190006033b8000800370041c7b300814f5000ea
:1011a00003003200e6c04000814f500004003a00c6
:1011b0008002eb006033b800049cbe000694be00c1
:1011c000081090000038a300140032003802be005e
:1011d0002803be00e00f5200e08f5a00e00f5b00d2
:1011e000e08f5b000d00320080c7b300804f5100dc
:1011f0000300320080c5b300804f510007003a0061
:101200007800900001c3b300817178000000e8000d
:10121000827178000000e800700498007800900067
:101220008081410063049800824078003e003700ce
:1012300028619000c3c6b3001180e900834f5100bc
:10124000220032000a003c00e4c15100834f5100eb
:101250002500320083c1e800834f510013003200a3
:10126000e8c15100834f51001e003a000a003700c8
:1012700043c7b300834f51001b003200e6c1410059
:10128000834f510018003200e9c15100834f5100d3
:1012900014003a000500370080087800100078003c
:1012a000485c9000084878004100370080087800ca
:1012b00010007800680a9000cfa2de00612bb90010
:1012c0000498be000690be00390037008008780000
:1012d0001000780068099000cf91de000288be00ff
:1012e000330037001180e900800878001000780092
:1012f000680c9000080878002d0037001180e90084
:101300008008780010027800cfa2de00612bb900bf
:10131000049cbe000694be007800900080814100cd
:101320006304980081c7b300080078001701070024
:101330001f0037001180e900800878001005780050
:101340006a049800d80c90000900e00004003d00f9
:101350000a00780052fd070080047800070037007b
:10136000090178008000eb000a007800a300070064
:101370000000e000010032008a045000190c9800bf
:101380000b0037007800900082717800060037006b
:1013900078009000808141000204e00001003a00e2
:1013a00052c2b300824978000000e800700498003f
:1013b0000000eb004f0578004f04be00000006005f
:1013c000889fbe008a1f7800000478000800e000b3
:1013d0000d003a0028d52000700544008004eb0081
:1013e000580078000000e00004003200f4ff07001d
:1013f0000000e00001003d008084eb008a0f5400f3
:10140000f7ff3a00250037000000220018006000b6
:101410008004eb0021003200a80490000f00370088
:1014200009015100384090000000fb00890078005d
:10143000eefc07000000e00007003c0028009000e0
:101440004004980060049800500c98001890a00088
:101450008084eb0011003700808444004801900034
:10146000828f5400eeff390028009000400498005d
:101470009800780002c020000281600001003a005c
:101480003800900001e8a3000200320060049800d8
:1014900001003700500c98008004eb000900780030
:1014a0004f0578004f04be0000000600889fbe0074
:1014b0008a9fbe008c9fbe008e1f780000067800b9
:1014c0000104780002007800830478000881b900e4
:1014d000020778000200e000420032000800e0004d
:1014e0004100320082057800c90090006900900038
:1014f000808f500004003900090078005c0007006c
:101500000000e000290035000040200019006000c4
:101510000a0032000b017800a10020000c007800c6
:1015200036000700800678000d00e000060032005b
:10153000610516000a854600040037000b05780097
:101540008006eb00010037000b0578004900900091
:10155000e9009000808050008a8f50000200310026
:10156000010578008006eb000a0178008c00780005
:101570002c0007008a855500490090000a004000b1
:10158000c00498000d00e00004003200090078005b
:101590008bff07000000e00004003a000b00e000b1
:1015a000020032000a064600cfff3700008020000c
:1015b00019006000020032000900780080ff070077
:1015c00000c02000190060000200320049009000b5
:1015d000e00498008b055700110009008885d800a9
:1015e000010037000000eb004f0778004f06be00f7
:1015f0004f05be004f04be00000006000300370088
:10160000b0cf1000050032000201e900800178002f
:101610000200e000faff3a00000005000300780035
:10162000000006008001780002003700b159780000
:101630000201e9000200e000fcff3a0000000600a1
:10164000020037000304e0000600320000017800c9
:1016500002007800b041780081cf5100f9ff3a00d4
:10166000010037000001eb000200780000000600d6
:10167000889fbe008a1f780000047800c800900090
:10168000680190000000eb00828f50003c003900a0
:10169000180078002200290002016000e20f5100ca
:1016a00007003200012024000000e00001003d009e
:1016b00001202000008c70000080eb00300037001b
:1016c0000200260002006000820f500009003a006c
:1016d00038009000808f5000060039000800780024
:1016e00037ff0700800078000080eb000100e00079
:1016f00023003a001805780000c0200000006500b3
:1017000018003a00a8049000600220000800400081
:10171000808f540013003a0000202000dc020700f4
:10172000200498000000e00005003a002904980019
:10173000490498008904e80039049800080037003b
:101740000a60a0000a0c78004004980001202000e4
:101750008080400031049800400c9800500c9800a4
:10176000f90107002800900050049800380090000c
:101770006004980000002600180c70000000eb00c8
:101780004f0578004f04be0000000600fc874700ac
:10179000889fbe008a9fbe008c9fbe008e1f78006f
:1017a0000006780080c5b30080cf50000a003200e8
:1017b0007740400080cf50000a003200694040006e
:1017c00080cf50000b00320070eb200080bf9f00e4
:1017d000ae0020000a00370062ea200082bf9f00ae
:1017e0000600370073eb200083bf9f008e002000af
:1017f0000300370074eb200084bf9f000e0120001f
:101800003c02be002c03be000605be000404be0060
:1018100040c6b30080cf5000030032006540400056
:1018200080cf50000b003a00e00f5200e08f5a00ca
:10183000e00f5b00e08f5b0006003d006000b80039
:101840006011b80004045000858458000605590052
:1018500087855900e80f570004003200400020003f
:10186000f00f570038003a00010037003000200028
:10187000e00f5400e08f5c00e00f5d00e08f5d0042
:1018800004003a00dc0890008d0120000100e00017
:10189000060032008e00e900888060008fba970051
:1018a000e5c07800f1ef9f007d0120008000780006
:1018b0008100e900050033008b05d1000a85d300c3
:1018c0008984d3000884d300f9ff3700089ebe0046
:1018d0000a96be00120037008d06e9008e00e9006e
:1018e000848060000fb99700e2c1780082fd2f006c
:1018f0000f01410003f17e00800078008100e900c3
:10190000050033008783d1000683d3008582d3008e
:101910000482d300f9ff3700049ebe000696be0085
:101920003c02be002c03be00e00f5200e08f5a00c4
:10193000e00f5b00e08f5b008b0034000d00e000e7
:10194000e5ff3c00880037002c60900081c6b300a2
:10195000814f50000b00320006003c000004e00004
:1019600008003200e6c05000814f50004e003a009f
:1019700004003700c1c6b300814f50004a003a004e
:10198000210037000800e00004003a005c089000e5
:101990008d0120000000e000060032001100090067
:1019a0000e84d8000fb99700e2c07800f1ef9f00d5
:1019b0007d012000110009000e84d8000a003700c4
:1019c000110009000e04d8008d06e9000e81b9004f
:1019d000020454008fb8970061417c0081fd2f0004
:1019e0008f80400082f07e00000478000800e00054
:1019f000020032000d00e000f1ff3c00cfc4de0029
:101a0000614db90025003700e00f5400e08f5c0005
:101a100004003a005c0890008d0120000000e00006
:101a2000070032006171b9000800be006f020700b4
:101a30008fb99700e3417800f3ef9f007d0120000c
:101a40006171b9000800be00580207000b003700a2
:101a50006171b9000800be00450207008d06e9006b
:101a600000f1b900020454000fba9700e4427c0070
:101a700084fd2f000f02420005f27e000004be002c
:101a8000e00f5000e08f5800020032000d00e0002f
:101a9000efff3c004fcdde008a057800089ebe00b7
:101aa0000a96be0030003700e00f5400e08f5c0063
:101ab000e00f5d00e08f5d0004003a005c089000dc
:101ac0008d0120000000e000090032006172b900c1
:101ad000612bb9000800be000a01be00ec0207003d
:101ae0000fba970064427800f4ef9f007d01200058
:101af0006172b900612bb9000800be000a01be0086
:101b0000dc0207000d0037006172b900612bb900db
:101b10000800be000a01be00e10207008d06e900d0
:101b200000f2b900040454008fba970065427c00ab
:101b300085fd2f008f82420084f27e00009ebe0051
:101b40000296be003c04be002c05be00e00f54000f
:101b5000e08f5c00e00f5d00e08f5d00020034006c
:101b60000d00e000e8ff3c00e80f570010003a00cd
:101b70000c1090000038a3000d003200f78f5600c3
:101b800006003e0085fd2f008f824200e5c07e00ea
:101b900000c3b30080cf5000050032008d06e9007d
:101ba00002c3b30081fd2f008f80400082f07e00d1
:101bb00078811600120e98006c00900083fd2f00b3
:101bc0008f8141008d80410096fe07001c08900027
:101bd000dc089000810f500006003d00008050009e
:101be000000e98000c1090000040a1000016980014
:101bf0000f0037000100e0000d003d008c10900048
:101c0000f4806000f08f500009003a007c099000d9
:101c1000fc009000810051000c099000828050006f
:101c2000008050004240a90001003400000e9800de
:101c30004f0778004f06be004f05be004f04be00a0
:101c4000cf01b100000006000400fa00889fbe002a
:101c50008a9fbe008c1f780000047800010678007f
:101c6000f80d9000780090008085550008089000dd
:101c70008085550018089000808555002808900040
:101c800080855500380890008085550048089000f0
:101c9000808555000002220090bf9f0000032300b2
:101ca000a0bf9f00081090000028a30015003a0074
:101cb0000b00e000130034000b0578008a04780064
:101cc000e20f55000100360029002000c8019000f5
:101cd00009017800ee8057005800900003000100d1
:101ce000500498000000e0008c003200680890006a
:101cf00009004000600c9800090555004240a90009
:101d0000eeff3c00780190000200e0000c0034007f
:101d1000c80190008c00780058009000030001007a
:101d2000500498008080eb000000e0007c0032004e
:101d3000e80890007800900000804000600c980057
:101d4000880c90000900e0001100340009057800bb
:101d5000e28f5400010036002a002000c8019000e4
:101d60000a017800ec805700580090000300010041
:101d7000500498000000e0006800320068089000fd
:101d80000a004000600c98008a845400edff370080
:101d9000180990000200e0000c003400c801900017
:101da000e8009000580090000300010050049800e3
:101db0008080eb000000e00059003200e80890004d
:101dc0001808900000804000600c9800a80c90005b
:101dd0000900e0001100340009057800e28f54008a
:101de000010036002a002000c80190000a01780096
:101df000ec80570058009000030001005004980048
:101e00000000e00045003200680890000a00400031
:101e1000600c98008a845400edff37003809900068
:101e20000200e0000e003400e80090001808900066
:101e300080804000c801900058009000030001001d
:101e4000500498008080eb000000e0003400320075
:101e5000e80890003808900000804000600c98006e
:101e6000c80c90000900e00011003400090578005a
:101e7000e28f5400010036002a002000c8019000c3
:101e80000a017800ec805700580090000300010020
:101e9000500498000000e000200032006808900024
:101ea0000a004000600c98008a845400edff37005f
:101eb000081090008000eb000028a30018003200fa
:101ec0000b00e000160034008b0478000905780050
:101ed000e28f5400010036002a002000c801900063
:101ee0000a017800ee8057005800900003000100be
:101ef000500498000000e0000800320068089000dc
:101f00000a004000600c98008a8454004240a900f6
:101f1000eeff3c008000eb00010037008080eb000a
:101f2000010078004f0678004f05be004f04be0048
:101f30000080fa000000060001087800000006009a
:101f40006004210061003700881f780088f22000bb
:101f50001804e00003003a00f9ff070020c0b300b6
:101f6000004c78004f04780000000600889fbe00f7
:101f7000000478000800780011fd07008004780054
:101f800000042000180060000200320028009000c9
:101f90005a0007000000eb00200498003840900031
:101fa0000004e000050035000000fb00dcf907003c
:101fb0000000e000010032008084eb001810900067
:101fc0000000e00008003200def907000000e00039
:101fd000010032008084eb001810900047000700d9
:101fe0000000eb00101498000008200018006000aa
:101ff000150032000001eb006000b80043d520005e
:102000000202d00063027a00880f520005003a00f5
:102010000000400081804800008041000008eb0083
:102020000600370061004000e08048000201e8003f
:10203000e80f5000e08f5800f0ff3a0008007800e9
:102040002e0007000e003700000c780000c0eb00e7
:1020500030449800600220000800400020049800ee
:102060004004980050049800400c980060049800c8
:10207000500c98007004980076004400000c980002
:10208000090078004f04be0000000600881f780099
:102090000004eb006140b800e2ff2f00f3ff2f00c7
:1020a000d500070022d62000620078000000e00082
:1020b00001003200adff07000804e800e80f5400fb
:1020c000f4ff3a004f0478000000060001002000f1
:1020d0000100e00008003200010080000100e00083
:1020e000050032008100e900010088008100d00075
:1020f0000200800000b17800000006000000e0004f
:102100002f003200c0017800e38f51002c00360010
:102110000308a3002a003a00317980000100e000a2
:1021200002003200810f50000400310011009800bd
:102130003079880016003700820078001101900085
:102140000200e00002003200800f5100faff390067
:102150001102780084824000850f50001800390079
:10216000808f520003003a0083084200010078008b
:10217000070037000200e000030032008301400046
:10218000830f51000e003900120098009000980053
:10219000900090000100e0000900320010014000b2
:1021a000828f500006003a0042f220000009eb0046
:1021b0001001780011084100910090001100980072
:1021c00000000600889fbe0000047800217980008e
:1021d0000100e00002003200010078000d0037002d
:1021e0003179800060f2200004003700910f540024
:1021f000250036000180e800910090000100e00019
:10220000faff3a0010003700920f54001e0036000b
:102210000280e800100178000200e000faff3a00b6
:10222000110178003179800060f22000040037004d
:10223000910f5400140036000180e80091009000d6
:10224000828f5000faff3a0059798000888f54003d
:10225000010031008804780009007800360007008a
:102260000000e00004003a00888f540005003200ae
:102270008904d100f5ff3700091878009fff070097
:10228000d2ff37000000eb004f04be000000060044
:10229000881f7800630440000800a1008000eb0064
:1022a000800f540021003600e30f540001003e006f
:1022b0004800200008007800c2ff07008000eb0003
:1022c0000000e000190032009000780091017800d1
:1022d00064815100880f510003003100110190000a
:1022e00002087800070037000881400002087800e3
:1022f0009101900013019800100178001109140059
:1023000088087800100178000000eb000200e0006f
:1023100004003200920190000300e000010032004e
:102320000280e800207988008180e80001007800c0
:102330004f04780000000600800078000000eb00e9
:102340000100e000050034000100780006f90700f4
:10235000e10f400001003a000000eb000000060021
:1023600000c0da000000060000c0da00000006002d
:10237000839f68000100e00002003d006000100043
:10238000e08018000300e00002003d006001110041
:10239000e0811900050007004f00e00002003b004b
:1023a00060001000e0801800000006006022b80005
:1023b000060220000000d0008180d2000482d200fa
:1023c0008582d2000000a0000202520083825a00df
:1023d000030031000202420083824a000000a10093
:1023e0000603e900f3ff3a0000000600efff0700d4
:1023f0000400be0000000600020ab900001bb9007c
:102400000200b80081004200810043000000060085
:10241000889fbe008a9fbe0030044200b0844a00fc
:1024200030054b0090854b006000b1000898be005d
:102430000a90be000440e10005c8e10006d0e100ba
:1024400007d8e10002003100680040001008e800f1
:102450004f05be004f04be0000000600889fbe006e
:102460008a9fbe003004be002005be000418540040
:1024700005985c0006185d0007985d0011002000bb
:102480000440e10005c8e10006d0e10007d8e10002
:10249000010039008000eb00108810004f05be00dd
:1024a0004f04be00000006001200fa00889fbe0024
:1024b0008a9fbe008c9fbe00e0b79f00f1b79f00cf
:1024c00082bf9f0093bf9f000605be000404be00ac
:1024d0000000eb00d0b79f00c0b79f00b0b79f00cf
:1024e000a0b79f0090b79f000006eb005fb1970078
:1024f000cfb09700820141003fb097000200e0009a
:1025000004003d00370007007e805700c0ff070031
:1025100003003700330007007e805700cfff07001d
:10252000dfb697000d00e0000c0035006fb2970099
:10253000ffb297000fbb97009fbb970010002000d1
:10254000010020006011b800000272008182720058
:1025500002037300838373001b0007000c06e8006e
:1025600001042000810f5600e0ff3a000d00e0005a
:1025700004003d000802be000a03be007e80570032
:10258000a3ff07005fa897000000e00005003a00e5
:102590001fb29700afb297003fb39700cfb3970039
:1025a000090007006fb09700ffb097000fb99700c0
:1025b0009fb997004f06be004f05be004f04be00f6
:1025c0000080fa000000060001000700000006007d
:1025d000a4b79f00b5b79f00c6b79f00d7b79f00ad
:1025e000000006004f09de0082817100b3b79f0032
:1025f0004f01de008180400082807000a1b79f0003
:102600008fb097004f09de0000004000020070000c
:1026100090b79f007fa897004f01de0081804000a7
:102620008280700081b79f000d0007004f3ade00e6
:102630000000400004007000f0af9f000800070099
:102640000402420085824a0006034b0087834b0048
:10265000dfff07000802be000a03be0000000600fc
:102660002fb29700bfb297004fb39700dfb3970028
:1026700000000600881f780018002000881f7800de
:1026800089ff07008f87e9004f04780000000600eb
:10269000801feb0084ff07008f87e9000000060021
:1026a000889fbe008a9fbe00e00f5000e08f580058
:1026b000e00f5900e08f59000c003d006044b80065
:1026c0006055b8000000540081805c0002015d008c
:1026d00083815d00180020001500070008003d0000
:1026e000180007000004eb00050037000004eb00b1
:1026f0000f00070002003d00120007001800200034
:10270000dcff07000800e000060032006022b8008d
:102710006033b8000000520081805a0002015b0063
:1027200083815b004f05be004f04be000000060021
:10273000e00f5200e08f5a00e00f5b00e08f5b007b
:10274000000006006044b8006055b8000402540060
:1027500085825c0006035d0087835d000000060043
:10276000889fbe008a9fbe008c1f7800e00f50003b
:10277000e08f5800e00f5900e08f59000d003d0038
:102780006044b8006055b8000000540081805c00cf
:1027900002015d0083815d001c0020000820e10033
:1027a00009a8e1000ab0e1000bb8e1000d003d000e
:1027b000080037000006eb00e00f5200e08f5a00df
:1027c000e00f5b00e08f5b0006003d006044b80056
:1027d0006055b8000402540085825c0006035d0069
:1027e00087835d00aaff07000c00e00006003200ae
:1027f0006022b8006033b8000000520081805a00a7
:1028000002015b0083815b004f0678004f05be002c
:082810004f04be0000000600a9
:020000040000fa
:10281800434c0000454100005245000044200000a0
:1028280000570000524900005445000020440000b1
:102838004f4e0000452000000052000045410000b6
:1028480044200000444f00004e45000020000000d6
:10285800256c000075000000256c00007520000044
:10286800000000002564000000250000730000003f
:020000040000fa
:102878000000fa0033c8bf000080fa00000006001c
:102888000200fa00004f78001e41780031832000d2
:10289800824878000080fa00000006000000fa0074
:1028a80032c8bf000080fa00000006000200fa00eb
:1028b800004f78001e41780021832000824878006c
:1028c8000080fa00000006000000fa0032c8bf00cd
:1028d8000080fa00000006000200fa00000f7800ed
:1028e800a18320001e007800e5f707000080fa00a9
:1028f800000006000600fa001007980041479800fb
:102908001e009000e4f70700000f78001e00780012
:102918009e00900000804000ce4090000148780062
:102928001e0078000000e8009e0090000080400033
:102938008040eb00014878000080fa0000000600a3
:10294800ce00fa0060a798000000eb00100798007e
:102958000000eb00000f7800140037001e0078001c
:10296800eea0900000804000104078000080fb003e
:10297800b9f707000000e0000b003a001e007800dd
:10298800eea090000080400090407800640147006d
:102998001e00900000004100014878001e009000d1
:1029a8000000e800100798001e0fe8001e007800dd
:1029b800eea0900000804000104078000004e00085
:1029c800e6ff3a00e40047001e0090000080400047
:1029d8008040eb00014878006ea0900006000700d8
:1029e80064004700800078006ea09000a4f70700fc
:1029f8000080fa00000006000200fa00000f7800cc
:102a08001e0078008040eb00014878000080fa0042
:102a1800000006000000fa00a0832000f6ff07006f
:102a28000080fa00000006000800fa00100798006d
:102a380021079800624798000000eb00000f78001b
:102a48000e0037006e4090000000fb008af7070078
:102a58001e007800000040009e00900000804000aa
:102a680010007800801f780060432900801f7800dc
:102a78006cf80700e48757001e0fe8002e0090004e
:102a88009e007800808f5000eeff350038c8bf00e8
:102a98000000fb0078f707000080fa00000006003d
:102aa8000400fa00000f7800110798001e00780053
:102ab80079f707009e009000810f50000200310056
:102ac8000040eb00030037001e0090001e0040008d
:102ad800104078000080fa00000006000200fa00aa
:102ae8001a003700b3070700004f780030c2b30060
:102af8009e40780080cf500005003a0010c0b30017
:102b080032e8b7003568ef00c2ff07000f00370052
:102b180010c0b30035e8b7001e407800ea4f5000f7
:102b2800030032001e407800ed4f500004003a00c8
:102b380010c0b30033e8b7003568ef00070037006e
:102b48009e407800a08320006aff0700c4070700a2
:102b58000004e000e3ff3a00000000000080fa00f3
:102b6800000006000400fa000000eb00000f7800e7
:102b78008000eb00a0832000c9ff070020479800d1
:102b88002e4090000000fb00c1032000810f500080
:102b98002d003200c1032000810f500011003c00bd
:102ba800e1022000810f50002c003200e1022000d9
:102bb800810f500007003c0011022000810f5000d7
:102bc8002300320041022000810f5000250032000e
:102bd8002c00370001032000810f5000250032002f
:102be8002800370081052000810f50000f003200b7
:102bf80081052000810f500007003c00e103200000
:102c0800810f50000b00320001042000810f50009a
:102c1800160032001b00370081072000810f50008a
:102c280018003a001d000700160037006900070069
:102c38001400370011002000a083200098ff07002f
:102c4800ac0007000f003700b30007000d00370085
:102c5800a0c5b300a70007000a003700b2000700ac
:102c680008003700bc00070006003700bf00070057
:102c780004003700cf00070010002000000f780084
:102c88000000000063ff07000040eb00fcfe0700a7
:102c98001e0078000080fa00000006000600fa0016
:102ca8000000eb0010079800a083200024ff070015
:102cb800a0832000f8f607002007980022000700ec
:102cc8000004e0001e00320010002000000f780011
:102cd800170037009e007800a083200070ff0700cf
:102ce8000000fb001006b100100798001e009000bd
:102cf8008000400040d6200000804000900078000e
:102d08001e00900000014000e0de200000004100ad
:102d180010007800808040001e00900000014000f4
:102d280040d6200000004100010878001e0fe8008e
:102d38002e0090009e007800808f5000e5ff35003f
:102d48000080fa00000006000600fa0010c0b30078
:102d5800004f7800a0832000cff6070020079800d6
:102d68001000200010079800130037009e00900004
:102d7800a08320004aff070001c6b300814f50001e
:102d88000a0034009e009000a083200044ff070042
:102d980041c7b300814f500004003c001e00900062
:102da8000000e80010079800030037000040eb001f
:102db800004f7800040037009e0090002e0090001d
:102dc800808f5000e9ff35001e4078000080fa002f
:102dd800000006000600fa000000eb00100798004b
:102de800a0832000d6fe0700a0832000aaf60700d3
:102df800200798001c0007000004e00018003200bb
:102e080010002000000f7800110037009e007800a5
:102e1800a083200022ff07000000fb001004b1007f
:102e2800100798001e00900080004000e0de20009f
:102e380000804000900078001e00900000014000d3
:102e480060dc200000004100010878001e0fe80047
:102e58002e0090009e007800808f5000ebff350018
:102e68000080fa00000006000600fa0010c0b30057
:102e7800004f7800a083200087f6070020079800fd
:102e88001000200010079800130037009e009000e3
:102e9800a083200002ff070001c4b300814f500047
:102ea8000a0034009e009000a0832000fcfe07006a
:102eb80041c5b300814f500004003c001e00900043
:102ec8000000e80010079800030037000040eb00fe
:102ed800004f7800040037009e0090002e009000fc
:102ee800808f5000e9ff35001e4078000080fa000e
:102ef800000006000200fa00004f7800800520005c
:102f0800104888001e407800820007000200070071
:102f18000080fa00000006000000fa00f90007002f
:102f28000080fa00000006000000fa00800520007a
:102f38001048880080052000a04a880080052000ed
:102f4800304d8800a0c5b30072000700f2ff0700eb
:102f58000080fa00000006000000fa0080c5b300f7
:102f68006c0007000080fa00000006000200fa006a
:102f7800a8fe0700e3000700304d8000004f7800ee
:102f880040c2b3009e40780080cf500006003a004f
:102f9800a0832000801f780090432900801f7800bc
:102fa80020f70700e4875700650107000080fa0052
:102fb800000006000c00fa0020002000100798000e
:102fc8000000eb0020079800010037000000000017
:102fd8000000eb00000f780005003700660047008e
:102fe8001e0040008040eb00014878001e0fe800fa
:102ff8001e007800e50f5000f8ff34000000eb00d9
:10300800000f78001e003700a18320001e009000ea
:103018000080400090407800f0c2b30080cf50009c
:1030280007003c00a18320001e00900000804000a3
:103038009040780090c3b30080cf500008003c0057
:10304800a18320001e00900000804000904078007e
:10305800660047001e004000014878000400370061
:10306800660047001e004000d1c2b3000148780046
:103078001e0fe8001e0090000000e80010079800ee
:10308800a18320001e00900000804000904078003e
:10309800c0c2b30080cf5000dbff3a001e00900092
:1030a8000000e8001007980066004700a200200012
:1030b8008000eb00fef50700800078002e009000ed
:1030c80000014000c0d8200000004100010878003d
:1030d8002e0090000000e80020079800a18320003f
:1030e8001e00900000804000104078000004e000be
:1030f80006003200a18320001e00900000804000de
:1031080010407800ea4f5000b0ff3a000080fa0003
:10311800000006000400fa0020479800ae40900026
:1031280030c4b30080cf500026003a00300420009d
:103138001048880010002000000f78000b003700ae
:103148001e00e9008000400040d6200000804000ba
:10315800900078001e0078000001400020902000b8
:1031680000004100010878001e0fe8001e007800ea
:10317800f40f5000f2ff340050012000000f7800d7
:103188000c0037009e0078007580500080004000d9
:1031980060dc200000804000900078001e0078006d
:1031a8000001400020902000000041000108780044
:1031b8001e0fe800800220009e007800808f5000db
:1031c800f0ff3400ae40900060c4b30080cf5000e0
:1031d80028003a0060042000a04a8800a0022000cd
:1031e800000f78000c00370061fd2f001e804000a2
:1031f8008000400040d62000008040009000780009
:103208001e007800000140002090200000004100ce
:10321800010878001e0fe800d00320009e00780007
:10322800808f5000f0ff3400e0032000000f78008a
:103238000c00370021fc2f001e8040008000400059
:1032480060dc200000804000900078001e007800bc
:103258000001400020902000000041000108780093
:103268001e0fe800100520009e007800808f500097
:10327800f0ff3400ae40900080c5b30080cf50000e
:103288001a003a0020052000000f78000b003700d4
:10329800e1fa2f001e804000a183200061407800e1
:1032a8008000fb001e0078000001400020902000f4
:1032b80000004100010878001e0fe800e1fa2f0025
:1032c8001e804000a1832000614078000004e000d7
:1032d800efff3a001e007800800040002090200098
:1032e800008040008000eb00010878000001eb003e
:1032f800810c2000209020001a0707000080fa00a7
:10330800000006000400fa000001eb00810c200018
:10331800209020005e070700104880002047980092
:10332800ae40900030c4b30080cf500025003a0072
:1033380010002000000f78000b0037001e00e90085
:103348009e0078000181400021902000810041000a
:10335800910078000001400040d6200000004100a4
:10336800010878001e0fe8001e007800f40f5000d6
:10337800f2ff340050012000000f78000c003700e5
:103388009e007800758050009e0078000181400002
:103398002190200081004100910078000001400048
:1033a80060dc200000004100010878001e0fe800e2
:1033b800800220009e007800808f5000f0ff3400cb
:1033c80040003700a04a800020479800ae40900097
:1033d80060c4b30080cf500027003a00a00220004c
:1033e800000f78000c00370062fd2f001e0041001e
:1033f8009e0078000181400021902000810041005a
:10340800910078000001400040d6200000004100f3
:10341800010878001e0fe800d00320009e00780005
:10342800808f5000f0ff3400e0032000000f780088
:103438000c00370021fc2f001e8040009e00780001
:103448000181400021902000810041009100780016
:103458000001400060dc2000000041000108780005
:103468001e0fe800100520009e007800808f500095
:10347800f0ff3400130037000000eb00000f780065
:103488000d0037001e0078008000400040d6200064
:10349800008040008000eb00010878001e007800e2
:1034a8008000400060dc20000080400001712200a4
:1034b800010878001e0fe8001e007800f30f500086
:1034c800f0ff340020052000000f78000b003700c3
:1034d800e2fa2f009e0041001e0078000001400023
:1034e8002090200000004100100078000041780082
:1034f800a083200002f078001e0fe8001e0078006c
:1035080080004000209020000080400010007800db
:103518000000e000eeff3a00e1fa2f001e804000b4
:10352800a18320000041eb00827078000080fa003f
:10353800000006000000fa000080fa000000060003
:0c3548000000fa000080fa0000000600fd
:020000040000fa
:103554000000fe00c2f12000001978000109780083
:10356400000006000000fe000000eb008000eb00fd
:10357400f8ff07006627ef00000006000000fe00c9
:10358400801f7800811f7800c1f120000600fc0034
:1035940031007800303b880011007800303b88000f
:1035a40061e7a8000000000000000000cf007800e0
:1035b4004f00780000000600a2028000a1028800eb
:1035c4009080ba001000ba00a20288000000060031
:1035d400a2028000a10288001000ba00a2028800a2
:1035e400000006000000fe0061e7af00feff3700a8
:1035f400f23f2000000161000c003a002204240084
:10360400023b8800a2028000a10288000008bb00df
:10361400c21a02000000000061e7af00feff37009d
:10362400a20288001000200061a7af000000200063
:103634000000060061e7af00feff37000000a700ae
:103644000d003700a4028000a1028800310024008c
:10365400013b88000208bb000388bb00c21a0200b9
:103664000000000061e7af00feff3700a4028800fd
:103674001000200061a7af00000020000000060039
:1036840061e7af00feff37000000a7000e0037001f
:1036940033002400033b8800a3028000a1028800b9
:1036a4000208bb00f20f20000288bb00c21a02000d
:1036b4000000000061e7af00feff3700a3028800ae
:1036c4001000200061a7af000000200000000600e9
:1036d40061e7af00feff3700f3072000808161003f
:1036e40010003a0013002400033b8800a30280006a
:1036f400a1028800040420003208bb003298bb00f9
:103704001400b100fcff3a00c21a020000000000dd
:1037140061e7af00feff3700a3028800100020001d
:1037240061a7af00000020000000060061e7af00c1
:10373400e7ff3700f30720008081610011003a00a1
:1037440013002400033b8800a3028000a102880028
:1037540004042000f10f20003208bb000198bb00d4
:103764001400b100fcff3a00c21a0200000000007d
:1037740061e7af00feff3700a302880010002000bd
:1037840061a7af000000200000000600f23f200007
:10379400000061000000060002c02f00000061006c
:0c37a400f2ff2f00810061000000060011
:020000040000fa
:1037b0000000fa0021068000f0f82f000080600071
:1037c0000040a000200688005105800080ff2f00e7
:1037d000008060000000a0005005880041058000c6
:1037e000f0ff28000080600000c0a00040058800b5
:0837f0000080fa000000060051
:020000040000fa
:1038000000000000000000000000000000000000b8
:1038100000000000000000000000000000000000a8
:103820000000000000000000000000000000000098
:103830000000000000000000000000000000000088
:020000040000fa
:020000040000fa
:104800000000fa009580a9009560a90080002000b2
:10481000001188002222ef00f00c200040118800d7
:10482000a0b52000d0408800a0b52000c04088007e
:10483000b0bd2000b0408800b0bd2000a04088007e
:104840001c68ef0000442200070007000049220016
:104850002d0007009560a80021e2a8002342a800cf
:104860000080fa00000006000200fa00000f780045
:104870001e007800f04088000080fa00000006006a
:104880000000fa00d1408000c0408000808f5000be
:1048900002003a009580a900190037008580a90020
:1048a00010003700d0408000904078008180fb00ed
:1048b000211188000000e800d0408800d14080002d
:1048c000b0bd2000808f500002003a00a0b520004b
:1048d000d0408800d1408000c0408000808f5000d0
:1048e00006003200111180000020200000806000ce
:1048f0000000e000ebff3200010037000000000084
:104900000080fa00000006000200fa00000f7800a4
:104910001e007800004188000080fa0000000600b8
:104920000000fa001e003700a04080003111800016
:104930008140780001487800a1408000b0cd20007f
:10494000808f500009003200a04080008000e80005
:10495000b0408000808f500004003200a0408000f2
:104960000000e800a04088000d003700a140800052
:10497000b0cd2000808f500007003a00b140800089
:10498000b0bd2000808f500003003200b0bd200079
:10499000a04088000200370010c0b3001ce8b70038
:1049a00010118000610060000000e000deff3a00ae
:1049b0008560a9000080fa00000006000200fa00ed
:1049c0000040eb00004f780000000000b140800084
:1049d000a0408000808f5000fcff3200b04080007b
:1049e000104f7800b04080000000e800b040880020
:1049f000b1408000c0cd2000808f500002003a00fe
:104a0000b0bd2000b04088001e4078000080fa0051
:104a1000000006000200fa00004f780000000000cd
:104a20001c0007000004a2000004e000fcff3a00a4
:104a3000c04080001e487800c04080000000e800b0
:104a4000c0408800c1408000b0bd2000808f500071
:104a500002003a00a0b52000c04088009580a80060
:104a60000080fa00000006000000fa00b14080005b
:104a7000a04080000080680000f0a7000000ea006d
:104a80000000ea004f00de00004078000080fa00dd
:104a9000000006000400fa00d140800011079800d1
:104aa000c14080001e009000808f50000600310041
:104ab0009e009000c0408000008050000000e9008f
:104ac000000f7800050037009e009000c040800075
:104ad000008050000008b000000f78001e00780031
:104ae00000f0a7000000ea000000ea004f00de002e
:104af000004078000080fa00000006000000fa0084
:104b0000c1408000d0408000808f500009003a00f2
:104b100011118000001020000080600000f0a7004c
:104b20000000ea000000ea004f00de0000407800cc
:104b3000010037000040eb000080fa000000060092
:104b40000400fa00a140800011079800b0408000e6
:104b50009e009000808f5000060031009e00900063
:104b6000b0408000008050001010b000000f7800ae
:104b7000040037009e009000b0408000008050008c
:104b8000000f7800f00f20009e007800808f50000a
:104b90000200360000c0eb00020037001e00780063
:104ba000004078000080fa00000006000400fa00cf
:104bb000d140800011079800c14080001e00900085
:104bc000808f5000060031009e009000c0408000a1
:104bd000008050000000e900000f78000500370059
:104be0009e009000c0408000008050000008b0008f
:104bf000000f7800f00f20009e007800808f50009a
:104c00000200360000c0eb00020037001e007800f2
:104c1000004078000080fa00000006000800fa005a
:104c20002007980031079800c5ff07000080fb00af
:104c3000000f78003e0090009e0f500002003100ef
:104c4000be009000010f78000000eb0010079800f4
:104c50000900370059ff0700ae0090008048780037
:104c60002e0090000000e800200798001e00900031
:104c70000000e800100798001e0090009e0f5000f2
:104c8000f4ff39001e0078000080fa0000000600e2
:104c90000800fa002007980031079800c3ff0700ba
:104ca0000080fb00000f78003e0090009e0f500037
:104cb00002003100be009000010f78000000eb0000
:104cc00010079800090037002e009000104078006f
:104cd000ae0090008100e800210798004dff07001a
:104ce0001e0090000000e800100798001e009000d1
:104cf0009e0f5000f4ff39001e0078000080fa007b
:104d0000000006000400fa000000eb00000f78002d
:104d10008bff070020479800a4ff0700304798004a
:104d20002e4090000080fb000000e00002003a00ee
:104d30001e20a000020037001e10a000000000008e
:104d40003e4090000080fb000000e00002003a00be
:104d50001e30a00001003700000000001e00780097
:104d60000080fa00000006000400fa001007980016
:104d7000b14080001e009000008f4000020037000c
:104d8000f1ef2f001e8f4000c0cd20009e00780064
:104d9000808f5000faff3e001e007800104078001f
:104da0000080fa00000006000000fa0064ff07001f
:104db0000080fb000000e9004f00de0000407800aa
:104dc0000080fa00000006000000fa0077ff0700ec
:104dd0000080fb000000e9004f00de00004078008a
:104de0000080fa00000006000000fa0010118000a8
:104df0000080fa00000006000000fa006bff0700c8
:104e00000004e0000f003200d1408000c04080006c
:104e1000808f500005003600d04080008000780070
:104e2000c04080000080500007003700d040800064
:104e300080007800c0408000008050001008b00062
:104e4000010037000000eb000080fa0000000600bf
:104e50000000fa003aff07000004e0000f003200f3
:104e6000b1408000a0408000808f500005003600d7
:104e7000b040800080007800a0408000008050009a
:104e800007003700b040800080007800a04080001c
:104e9000008050001010b000010037000000eb004f
:104ea0000080fa00000006000000fa0021e2a800dd
:104eb0002342a8000080fa00000006000000fa006b
:104ec00021e2a9002342a9000080fa0000000600a8
:104ed0000a00fa0030079800410798000040eb00f4
:104ee000004f780002002200031020000200be00e4
:104ef0002afa070010079800210798004e0090003a
:104f000000004000400798004e009000cf80de0077
:104f10001e019000ae019000020040008380480016
:104f2000100798002107980050052000a10a2000d2
:104f300089f907001e009000ae009000abf9070051
:104f4000004f78003e009000000178001e009000a5
:104f5000ae009000cbf90700004f780083f90700fe
:104f60001e4078000080fa00000006000e00fa00e3
:104f7000400798005107980062079800040022003b
:104f8000051020000400be0004fa0700008fbe00d8
:104f90006e00900000004000600798006e009000d6
:104fa000cf80de001e0f40005e97480050052000b5
:104fb000a10a200068f907001e00be008bf9070057
:104fc000404798000000eb003007980014003700bd
:104fd0003e00900000004000ce00900000804000a5
:104fe00010007800000178001e00be00a5f907003f
:104ff000404798004e4090000004a2000004e000ea
:105000000c003a0022002000030020001e0f410087
:105010005e9749003e0090000000e80030079800cd
:10502000be0090005e009000808f5000e8ff3500c9
:1050300001003700000000004cf907004e409000ce
:105040000080fa00000006000800fa00300798000f
:1050500002002200031020000200be00cff907006a
:10506000008fbe003e009000000040003007980016
:105070003e009000cf80de001e0f40005e9748008b
:105080001e00be0053f90700200798002e00900074
:105090000080fa00000006000e00fa0040079800a9
:1050a00051079800620798000400220005102000b4
:1050b0000400be00b9f90700008fbe006e0090002a
:1050c00000004000600798006e009000cf80de0076
:1050d0001e0f40005e9748000000eb00200798007c
:1050e000100037001e00be003af907003007980094
:1050f0002e00900000004000ce0090000080400094
:10510000be0090000108780022002000030020006b
:105110001e0f41005e9749002e0090000000e8003d
:1051200020079800ae0090005e009000808f500035
:10513000ecff35000080fa00000006000a00fa00cb
:1051400060479800410798000200220003102000e9
:105150000200be0091f90700008fbe004e009000d3
:1051600000004000400798004e009000cf80de0015
:105170001e0f40005e97480050052000a10a200045
:10518000f5f807001e00be0018f907004047980018
:105190006e4090000000fb00000178001e00be0081
:1051a00038f9070040479800f0f807004e4090009b
:1051b0000080fa00000006001000fa005007980076
:1051c0006107980072079800040022000510200073
:1051d0000400be0071f90700008fbe007e00900041
:1051e00000004000700798007e009000cf80de0035
:1051f0001e0f40005e97480050052000a10a2000c5
:10520000d5f807001e00be00f8f8070040479800d8
:105210000000eb0030079800160037003e009000b9
:10522000de0090000080400090407800014f980020
:105230000e4890000000fb00000178001e00be0038
:1052400010f90700404798004e4090000004a2006b
:105250000004e0000c003a002200200003002000bf
:105260001e0f41005e9749003e0090000000e800dc
:1052700030079800be0090006e009000808f5000b4
:10528000e6ff350001003700000000000040eb00a1
:10529000004f98004e4090000004e00006003200ed
:1052a0000e4890000000fb00000178001e00be00c8
:1052b000f4f8070040479800acf807004e40900013
:1052c0000080fa00000006000800fa00300798008d
:1052d00002002200031020000200be002ff9070088
:1052e000008fbe003e009000000040003007980094
:1052f0003e009000cf80de001e0f40005e97480009
:105300001e00be00b3f80700404798004e409000d2
:105310000080fa00000006000c00fa004007980028
:10532000510798000000eb003007980002002200af
:10533000031020000200be0018f90700008fbe0015
:105340005e00900000004000500798005e00900052
:10535000cf80de001e0f40005e97480000c3b30000
:10536000404798000f0037001e00be0099f8070064
:10537000404798003e009000ce0090000080400022
:10538000ce40900001487800220020000300200059
:105390001e0f41005e9749003e0090000000e800ab
:1053a000300798004e4090000004e000eeff3a0005
:1053b0000080fa00000006000a00fa00400798008a
:1053c0000000eb00000f7800020022000310200014
:1053d0000200be00f1f807001007980021079800ae
:1053e0004e00900000004000400798004e009000e2
:1053f000cf80de001e019000ae0190000200400050
:10540000838048001007980021079800500520006d
:10541000a10a200050f807001e009000ae00900086
:1054200072f80700604798001e00780000017800bd
:105430001e009000ae00900092f8070060479800b0
:105440004af807006e4090000080fa000000060055
:105450000e00fa0050079800610798000000eb006a
:105460004007980002002200031020000200be0046
:10547000caf80700008fbe006e00900000004000d8
:10548000600798006e009000cf80de001e0f400085
:105490005e97480050052000a10a20002ef8070062
:1054a0001e00be0051f80700404798000000eb00c6
:1054b00030079800100037004e009000000178007f
:1054c0001e00be006ff80700404798004e40900055
:1054d0000004a2000004e0000c003a0022002000ba
:1054e000030020001e0f41005e9749003e0090001f
:1054f0000000e80030079800be0090005e009000b9
:10550000808f5000ecff35000100370000000000e4
:1055100016f807004e4090000080fa0000000600d8
:105520000000fa00ffff37000000fa00ffff37001d
:105530001600fa00881f78006000b8006011b800fb
:1055400030079800410798005207980063079800b9
:105550006000b8006011b80070079800010f980053
:10556000120f9800230f980004c02100051020009e
:105570000400be0089f80700008fbe00500520001f
:10558000a10a2000f4f707001e00be0017f807006c
:10559000404798004e4090000004a2000004e00044
:1055a00001003200deff0700c0402900801f7800a4
:1055b0009eed07008f87e9003023220011012000b3
:1055c00030079800410798006056250041042000ec
:1055d00050079800610798003e009000ce009000b0
:1055e0000001be001e00be0013f8070040479800ef
:1055f0004e4090000084fb005e009000ee009000a2
:1056000022002000030020003e024100ae8249003b
:105610000001be000400be0007f807000080fb0088
:105620000000640000f0a7000000ea000000ea00ab
:105630004f00de00404798004e4090000004a2005a
:105640000004e00001003200b5ff070050412900ce
:10565000801f780075ed07008f87e900c3f707000a
:105660001e00be00d5f7070070079800010f9800d4
:1056700022002000030020003e004100ae804900cf
:10568000cef70700100f9800210f98003e01900000
:10569000ce0190007e0090008e089000800f510097
:1056a000818f590007003a005e019000ee019000e2
:1056b0001e089000ae089000800f5100818f5900a5
:1056c0000100320098ff070010422900801f780077
:1056d00056ed07008f87e9003e009000ce00900055
:1056e000809fbe00c0422900801f78004fed070058
:1056f000e68757005e009000ee009000809fbe009d
:1057000000432900801f780048ed0700e687570016
:105710007e0090008e089000809fbe00c04229004d
:10572000801f780041ed0700e68757001e089000b3
:10573000ae089000809fbe00c0422900801f780004
:105740003aed0700e68757004f0478000080fa0022
:10575000000006000e00fa0000c021000110200029
:105760000ef8070020079800310798005005200028
:10577000a10a200078f707002e009000be009000dc
:105780009af70700004f98000e4890000004a2000e
:105790000004e0000100320061ff07006000b80073
:1057a000008fbe00110037002e009000be00900058
:1057b0003e014000ae8148000200be001e01be0056
:1057c0009df70700004f98000e4890000004a200cb
:1057d0000004e0000100320051ff07002200200019
:1057e000030020001e0f41005e974900f03f20009b
:1057f000010020001e01be00800f5100818f590062
:10580000e9ff360059f707006000b800008fbe00be
:10581000120037002e009000be0090003e014000b4
:10582000ae8148000200be0064f7070050079800f0
:10583000610798005e009000ee009000be0f5000df
:10584000ae8f58000100320037ff07002200200011
:10585000030020001e0f41005e974900f03f20002a
:10586000010020001e01be00800f5100818f5900f1
:10587000e8ff36000080fa00000006000000fa0091
:105880002bff0700b3ff07000080fa0000000600ae
:020000040000fa
:105890001c0f00000400000082000000ffffff005a
:1058a000ff000000c80e0000200000008000000083
:1058b000360800000200000082000000ffff000028
:1058c0005a0b000082010000800000001408000054
:1058d0000e00000080000000e80e00001a0000002a
:1058e0008200000048656c006c6f2000576f7200ea
:1058f0006c642e002e2e210000000000000000002d
:105900000000000000000000620e000044000000e3
:105910008000000022080000080000008000000055
:105920002a0800000800000082000000d20487005e
:10593000109cff00460000003a0800002003000011
:105940008000000032080000040000008000000019
:105950003808000002000000820000000a00000079
:10596000c60d000052000000820000001027100049
:1059700027102700102710002710270010271000dd
:1059800027102700102710002710270010271000cd
:1059900027102700102710002710270010271000bd
:1059a00027e80300ca03f80002dafd00a20378002a
:1059b00000a802001c02270022760c008e1cdc00ce
:1059c000f630ee002a036c0002a807000000000079
:1059d000000000000000800002000000640d0000d4
:1059e00062000000800000000008000014000000b9
:1059f00080000000dc0c0000880000008200000035
:105a00000100000000020d00030d02000d020d0058
:105a1000020d02000df20c0000000000000000006a
:105a20000000000000000000000000000000000076
:105a3000000000000002080001012a000d2b0d00eb
:105a40002a0d2a000d2a0d002a0d1a000d00000053
:105a50000000000000000000000000000000000046
:105a60000000000000000000000002000802020028
:105a7000520d53000d520d00520d52000d520d00eb
:105a8000420d0000000000000000000000000000c7
:105a90000000000000000000000000000000000006
:105aa000dc0c04000d2c0d000000000000000000c4
:105ab0000000000000000000180e00004a00000076
:105ac0008200000030313200333435003637380080
:105ad000396162006364650066676800696a6b002b
:105ae0006c6d6e006f707100727374007576770064
:105af00078797a0000000000211511000e0d0c00cd
:105b00000b0b0a000a090900090909000808080026
:105b1000080808000807070007070700070707002d
:105b20000707070007070000200f0000040000001f
:105b300080000000020f00001a0000008200000038
:105b4000686a6c00747a4c000000010000020000da
:105b50000400080000100000000020002b2d23008e
:105b600030000000a60e00002200000082000000ad
:105b70003031320033343500363738003941420095
:105b8000434445004600300031323300343536009e
:105b90003738390061626300646566000000000008
:105ba000280f000002000000800000002a0f000003
:105bb000020000008200000004000000240f00002a
:105bc00004000000800000002c0f00000200000014
:085bd00080000000000000004d
:020000040000fa
:105bd8000000fa00c422ef00cc22ef00d422ef002c
:105be800dc22ef00e422ef00ec22ef00f422ef00c9
:105bf800f06f2c00001688000080eb00401688002b
:105c0800e0012900801688000080eb00c01688009b
:105c1800f03f200000178800701f230040178800fd
:105c2800f03c2f00801788005620ef005820ef0026
:105c38005a20ef005c20ef005e20ef006020ef00ac
:105c48006e20ef007020ef007220ef007420ef004c
:105c58007620ef007820ef00c622ef00ce22ef007a
:105c6800d622ef00de22ef00e622ef00ee22ef0060
:105c7800f622ef00002c200000278800c0ff2f002c
:105c880010278800000120002027880000cc200071
:105c980030278800002f200040278800003c200083
:105ca80060278800113a8000f00b20000081600016
:105cb80060042000710520002374200080497800ca
:105cc80081497800824978002135800000fc2f0046
:105cd80000806000e001b300203588008136800034
:105ce80000fc2f00008060003000b3008036880080
:105cf800103a8000000178000260a00060042000d3
:105d080071052000237420008049780081497800bb
:105d1800824978000080fa00000006000000fa00be
:105d28004700070077f507003af30700d0f20700ad
:105d38000004e000090032008af3070030418800bf
:105d480030418000e10f500004003a0002c2b30065
:105d580041012000c0d8200033f30700daf2070021
:105d68000004e0000e0032000040eb00cff2070014
:105d780002c2b30051012000e0de20002af3070030
:105d880002c2b3004101200040d6200026f30700dc
:105d980002c2b3004101200060dc200022f30700aa
:105da8004ef30700e1ff37000000fa00001023005f
:105db800203a88004827ef004e27ef007027ef00b1
:105dc8007227ef007427ef007627ef007a27ef009d
:105dd8007c27ef002200200080072000a109200076
:105de800337420008049780081497800824978001e
:105df8002200200060042000710520002374200088
:105e08008049780081497800824978000080fa004a
:045e18000000060080
:020000040000fa
:105e1c00000f78009e007800b1418800ffff37002a
:105e2c000000fa0080ec20008007780000ee2000d3
:105e3c00000188000080fa00000006000000fa0053
:105e4c0062ff070057f60700d6ff070069fa070044
:105e5c000080fa00000006000000fa00d1ff0700e5
:085e6c000080fa0000000600ae
:020000040000fa
:020000040002f8
:04aff0003ffe000020
:020000040000fa
:020000040002f8
:04aff4007fe30000f7
:020000040000fa
:020000040002f8
:04aff8009e7a00003d
:020000040000fa
:020000040002f8
:04affc009f3f000073
:00000001FF
