:020000040000fa
:080000000002040000000000f2
:020000040000fa
:040008004a060000a4
:020000040000fa
:04000c0010030000dd
:020000040000fa
:0400100022030000c7
:020000040000fa
:0400140018030000cd
:020000040000fa
:040018002a030000b7
:020000040000fa
:04001c004a06000090
:020000040000fa
:040020004a0600008c
:020000040000fa
:040024004a06000088
:020000040000fa
:040028004a06000084
:020000040000fa
:04002c004a06000080
:020000040000fa
:040030004a0600007c
:020000040000fa
:040034004a06000078
:020000040000fa
:040038004a06000074
:020000040000fa
:04003c004a06000070
:020000040000fa
:040040004a0600006c
:020000040000fa
:040044004a06000068
:020000040000fa
:040048004a06000064
:020000040000fa
:04004c004a06000060
:020000040000fa
:040050004a0600005c
:020000040000fa
:040054009e03000007
:020000040000fa
:04005800320300006f
:020000040000fa
:04005c004a06000050
:020000040000fa
:040060004a0600004c
:020000040000fa
:040064004a06000048
:020000040000fa
:040068004a06000044
:020000040000fa
:04006c00fa03000093
:020000040000fa
:040070004a0600003c
:020000040000fa
:040074004a06000038
:020000040000fa
:040078004a06000034
:020000040000fa
:04007c004a06000030
:020000040000fa
:040080004a0600002c
:020000040000fa
:040084004a06000028
:020000040000fa
:040088004a06000024
:020000040000fa
:04008c004a06000020
:020000040000fa
:040090004a0600001c
:020000040000fa
:040094004a06000018
:020000040000fa
:040098004a06000014
:020000040000fa
:04009c004a06000010
:020000040000fa
:0400a0004a0600000c
:020000040000fa
:0400a4004a06000008
:020000040000fa
:0400a8004a06000004
:020000040000fa
:0400ac004a06000000
:020000040000fa
:0400b0004a060000fc
:020000040000fa
:0400b4004a060000f8
:020000040000fa
:0400b8004a060000f4
:020000040000fa
:0400bc004a060000f0
:020000040000fa
:0400c0004a060000ec
:020000040000fa
:0400c4004a060000e8
:020000040000fa
:0400c8004a060000e4
:020000040000fa
:0400cc004a060000e0
:020000040000fa
:0400d0004a060000dc
:020000040000fa
:0400d4004a060000d8
:020000040000fa
:0400d8004a060000d4
:020000040000fa
:0400dc004a060000d0
:020000040000fa
:0400e0004a060000cc
:020000040000fa
:0400e4004a060000c8
:020000040000fa
:0400e8004a060000c4
:020000040000fa
:0400ec004a060000c0
:020000040000fa
:0400f0004a060000bc
:020000040000fa
:0400f4004a060000b8
:020000040000fa
:0400f8004a060000b4
:020000040000fa
:0400fc004a060000b0
:020000040000fa
:040100004a060000ab
:020000040000fa
:040104004a060000a7
:020000040000fa
:040108004a060000a3
:020000040000fa
:04010c004a0600009f
:020000040000fa
:040110004a0600009b
:020000040000fa
:040114004a06000097
:020000040000fa
:040118004a06000093
:020000040000fa
:04011c004a0600008f
:020000040000fa
:040120004a0600008b
:020000040000fa
:040124004a06000087
:020000040000fa
:040128004a06000083
:020000040000fa
:04012c00e4030000e8
:020000040000fa
:040130004a0600007b
:020000040000fa
:040134004a06000077
:020000040000fa
:040138004a06000073
:020000040000fa
:04013c004a0600006f
:020000040000fa
:040140004a0600006b
:020000040000fa
:040144004a06000067
:020000040000fa
:040148004a06000063
:020000040000fa
:04014c004a0600005f
:020000040000fa
:040150004a0600005b
:020000040000fa
:040154004a06000057
:020000040000fa
:040158004a06000053
:020000040000fa
:04015c004a0600004f
:020000040000fa
:040160004a0600004b
:020000040000fa
:040164004a06000047
:020000040000fa
:040168004a06000043
:020000040000fa
:04016c004a0600003f
:020000040000fa
:040170004a0600003b
:020000040000fa
:040174004a06000037
:020000040000fa
:040178004a06000033
:020000040000fa
:04017c004a0600002f
:020000040000fa
:040180004a0600002b
:020000040000fa
:040184004a06000027
:020000040000fa
:040188004a06000023
:020000040000fa
:04018c004a0600001f
:020000040000fa
:040190004a0600001b
:020000040000fa
:040194004a06000017
:020000040000fa
:040198004a06000013
:020000040000fa
:04019c004a0600000f
:020000040000fa
:0401a0004a0600000b
:020000040000fa
:0401a4004a06000007
:020000040000fa
:0401a8004a06000003
:020000040000fa
:0401ac004a060000ff
:020000040000fa
:0401b0004a060000fb
:020000040000fa
:0401b4004a060000f7
:020000040000fa
:0401b8004a060000f3
:020000040000fa
:0401bc004a060000ef
:020000040000fa
:0401c0004a060000eb
:020000040000fa
:0401c4004a060000e7
:020000040000fa
:0401c8004a060000e3
:020000040000fa
:0401cc004a060000df
:020000040000fa
:0401d0004a060000db
:020000040000fa
:0401d4004a060000d7
:020000040000fa
:0401d8004a060000d3
:020000040000fa
:0401dc004a060000cf
:020000040000fa
:0401e0004a060000cb
:020000040000fa
:0401e4004a060000c7
:020000040000fa
:0401e8004a060000c3
:020000040000fa
:0401ec004a060000bf
:020000040000fa
:0401f0004a060000bb
:020000040000fa
:0401f4004a060000b7
:020000040000fa
:0401f8004a060000b3
:020000040000fa
:0401fc004a060000af
:020000040000fa
:040208004a060000a2
:020000040000fa
:04020c004a0600009e
:020000040000fa
:040210004a0600009a
:020000040000fa
:040214004a06000096
:020000040000fa
:040218004a06000092
:020000040000fa
:04021c004a0600008e
:020000040000fa
:040220004a0600008a
:020000040000fa
:040224004a06000086
:020000040000fa
:040228004a06000082
:020000040000fa
:04022c004a0600007e
:020000040000fa
:040230004a0600007a
:020000040000fa
:040234004a06000076
:020000040000fa
:040238004a06000072
:020000040000fa
:04023c004a0600006e
:020000040000fa
:040240004a0600006a
:020000040000fa
:040244004a06000066
:020000040000fa
:040248004a06000062
:020000040000fa
:04024c004a0600005e
:020000040000fa
:040250004a0600005a
:020000040000fa
:040254004a06000056
:020000040000fa
:040258004a06000052
:020000040000fa
:04025c004a0600004e
:020000040000fa
:040260004a0600004a
:020000040000fa
:040264004a06000046
:020000040000fa
:040268004a06000042
:020000040000fa
:04026c004a0600003e
:020000040000fa
:040270004a0600003a
:020000040000fa
:040274004a06000036
:020000040000fa
:040278004a06000032
:020000040000fa
:04027c004a0600002e
:020000040000fa
:040280004a0600002a
:020000040000fa
:040284004a06000026
:020000040000fa
:040288004a06000022
:020000040000fa
:04028c004a0600001e
:020000040000fa
:040290004a0600001a
:020000040000fa
:040294004a06000016
:020000040000fa
:040298004a06000012
:020000040000fa
:04029c004a0600000e
:020000040000fa
:0402a0004a0600000a
:020000040000fa
:0402a4004a06000006
:020000040000fa
:0402a8004a06000002
:020000040000fa
:0402ac004a060000fe
:020000040000fa
:0402b0004a060000fa
:020000040000fa
:0402b4004a060000f6
:020000040000fa
:0402b8004a060000f2
:020000040000fa
:0402bc004a060000ee
:020000040000fa
:0402c0004a060000ea
:020000040000fa
:0402c4004a060000e6
:020000040000fa
:0402c8004a060000e2
:020000040000fa
:0402cc004a060000de
:020000040000fa
:0402d0004a060000da
:020000040000fa
:0402d4004a060000d6
:020000040000fa
:0402d8004a060000d2
:020000040000fa
:0402dc004a060000ce
:020000040000fa
:0402e0004a060000ca
:020000040000fa
:0402e4004a060000c6
:020000040000fa
:0402e8004a060000c2
:020000040000fa
:0402ec004a060000be
:020000040000fa
:0402f0004a060000ba
:020000040000fa
:0402f4004a060000b6
:020000040000fa
:0402f8004a060000b2
:020000040000fa
:0402fc004a060000ae
:020000040000fa
:040300004a060000a9
:020000040000fa
:040304004a060000a5
:020000040000fa
:040308004a060000a1
:020000040000fa
:04030c004a0600009d
:020000040000fa
:040310004a06000099
:020000040000fa
:040314004a06000095
:020000040000fa
:040318004a06000091
:020000040000fa
:04031c004a0600008d
:020000040000fa
:040320004a06000089
:020000040000fa
:040324004a06000085
:020000040000fa
:040328004a06000081
:020000040000fa
:04032c004a0600007d
:020000040000fa
:040330004a06000079
:020000040000fa
:040334004a06000075
:020000040000fa
:040338004a06000071
:020000040000fa
:04033c004a0600006d
:020000040000fa
:040340004a06000069
:020000040000fa
:040344004a06000065
:020000040000fa
:040348004a06000061
:020000040000fa
:04034c004a0600005d
:020000040000fa
:040350004a06000059
:020000040000fa
:040354004a06000055
:020000040000fa
:040358004a06000051
:020000040000fa
:04035c004a0600004d
:020000040000fa
:040360004a06000049
:020000040000fa
:040364004a06000045
:020000040000fa
:040368004a06000041
:020000040000fa
:04036c004a0600003d
:020000040000fa
:040370004a06000039
:020000040000fa
:040374004a06000035
:020000040000fa
:040378004a06000031
:020000040000fa
:04037c004a0600002d
:020000040000fa
:040380004a06000029
:020000040000fa
:040384004a06000025
:020000040000fa
:040388004a06000021
:020000040000fa
:04038c004a0600001d
:020000040000fa
:040390004a06000019
:020000040000fa
:040394004a06000015
:020000040000fa
:040398004a06000011
:020000040000fa
:04039c004a0600000d
:020000040000fa
:0403a0004a06000009
:020000040000fa
:0403a4004a06000005
:020000040000fa
:0403a8004a06000001
:020000040000fa
:0403ac004a060000fd
:020000040000fa
:0403b0004a060000f9
:020000040000fa
:0403b4004a060000f5
:020000040000fa
:0403b8004a060000f1
:020000040000fa
:0403bc004a060000ed
:020000040000fa
:0403c0004a060000e9
:020000040000fa
:0403c4004a060000e5
:020000040000fa
:0403c8004a060000e1
:020000040000fa
:0403cc004a060000dd
:020000040000fa
:0403d0004a060000d9
:020000040000fa
:0403d4004a060000d5
:020000040000fa
:0403d8004a060000d1
:020000040000fa
:0403dc004a060000cd
:020000040000fa
:0403e0004a060000c9
:020000040000fa
:0403e4004a060000c5
:020000040000fa
:0403e8004a060000c1
:020000040000fa
:0403ec004a060000bd
:020000040000fa
:0403f0004a060000b9
:020000040000fa
:0403f4004a060000b5
:020000040000fa
:0403f8004a060000b1
:020000040000fa
:0403fc004a060000ad
:020000040000fa
:100400008fa520000e7f22000e0188000000000052
:10041000000020000000e000020032000001200087
:1004200020028800140007005e0207000000e000c0
:1004300003003a00c0f02100010020000200370054
:100440000000200001002000810f70000100320038
:1004500014000700000020000000e000020032004d
:100460000000020000000000ae20020000000000ba
:100470000040da000000fe004440a900c000200057
:100480000000e000030032000020200090018800fe
:100490004440a800000006008a1f78008b1f7800e7
:1004a00000000600a1028800800478000000eb0034
:1004b0001f003700e284440054a0b4009905ba003c
:1004c000e284440054a0b4009906ba00e2844400d7
:1004d00054a0b4000006eb00476fde00fd07b20039
:1004e000ae018800636ce10003003a00eaff0700f8
:1004f0000000eb000e003700606ce10008003a00dd
:10050000004deb000a05e800020039003420ec0041
:100510000af0a0008b05e900f9ff3e000400370057
:100520006168e100010032000086eb000b0007006b
:1005300019c7ba001905ba000e04e00003003a001a
:100540000a00e000dbff3a0000000600fe07b200f0
:10055000ae0288008a047800f5ff37000cd0a300b3
:10056000e20f4d001c00390089027800354dba00b9
:100570000a05e800020039003420ec000af0a0006f
:100580008b05e9000f003200254dba000a05e8008e
:10059000020039003420ec000af0a0008b05e900cd
:1005a000080032000c00e0000600320015cdba0051
:1005b0000a05e800020039003420ec000af0a0002f
:1005c0008b05e9008984e80054a0b4000b00e0002a
:1005d000e2ff3a00000006009902ba00055d7800cb
:1005e0008b05e900f7ff3200c82ade00055d7800c0
:1005f0008b05e900f3ff32000c00e000f1ff320050
:1006000019ddba00eeff37002c09040000000000dd
:10061000560b040000000000000004000000000071
:100620003600f8008020a9000000eb002d0f070025
:100630003600f8002f0f07008040a90010002000ae
:10064000280f07003600f8008060a9002000200075
:10065000240f07003600f8008080a9003000200039
:10066000200f0700809fbe000000fa00c1418000fb
:10067000b0418000808f500010003a00d1418000ce
:1006800000102000008060000000e0000b003a0035
:1006900000000000111180000010200000806000a8
:1006a0000000e000fbff3200d04180000090a0007d
:1006b000d04188009580a9001d0037008580a900e1
:1006c00014003700c0418000104078000080fb001b
:1006d00020118800c04180000000e800c04188006f
:1006e000c141800040842000808f500002003a0009
:1006f000c0832000c0418800d04180000080a1005c
:10070000d0418800c1418000b0418000808f5000fe
:1007100006003200111180000020200000806000df
:100720000000e000e7ff3200010037000000000099
:100730000080fa004f00be0000400600809fbe000f
:100740000000fa001800370090418000311180004d
:100750008140780001487800904180000000e80066
:10076000904188009141800040942000808f50008b
:1007700002003a004084200090418800d04180006f
:100780000010a100d041880091418000a04180006c
:10079000808f500004003a00d04180000000a0008b
:1007a000d041880004003700101180006100600013
:1007b0000000e000e4ff3a008560a9000080fa0034
:1007c0004f00be0000400600801f78000000fa00c5
:1007d00010118000620060000000e00001003200a3
:1007e0002222a9008c20a9000080fa004f00780086
:1007f000004006003600f800809fbe00829fbe00c9
:10080000849fbe00869fbe000000fa008620a900db
:100810004110800000082000008060000000e0001f
:100820000800320008e2a9000828ef0070408000ac
:10083000200090008000eb00010878000e28ef00f7
:100840000d013700404080008000eb00b200200026
:1008500003002000820f5000838f5800fc003e00f0
:10086000006001000b0037003900370075003700c9
:100870009c003700f3003700c8003700d90037006c
:10088000f0003700db003700f1003700340037009c
:1008900050003700008020002000900062006000bf
:1008a0000000e000f3003a000080200010009000fb
:1008b00070408800008020001000900010407800f8
:1008c0000ae8b7000080200010009000100090009f
:1008d000604088000080200010009000e60040008a
:1008e00000802000110098000080200090009000ff
:1008f000e0a22000808f500003003a00008020001a
:1009000081a220001100980000802000a00090002b
:100910000100a100210098000080200090009000bc
:100920000080200010007800808f500004003a0002
:1009300000802000a00090000110a000210098007d
:100940000602a8002000200040408800ca003700ae
:100950000622a8002000200040408800c600370082
:100960004110800000002800008060000000e000ce
:100970000800320000802000604090008040e800c5
:10098000008020006140980040002000670c0700b4
:10099000b9003700804080008000d100f00f2000b7
:1009a00000806000101088008040800061006000be
:1009b000004078000004e00003003200b000200096
:1009c00040408800ac0037003000200040408800e4
:1009d000a90037004110800000002800008060005e
:1009e0000000e0000800320000802000604090001d
:1009f0008040e80000802000614098004000200016
:100a00004a0c07009c0037000622a80080408000a6
:100a10004800de00e6006000000f200001007000ca
:100a200080408800804080000000a0008040880056
:100a300010c0b30012e8b70020002000404088003a
:100a40008d00370012c8bf00e14f50000a0032008d
:100a50006040800010007800804088006040800086
:100a600020009000a040880060408000204090005e
:100a700016e8b700010037001268ef0081408000df
:100a8000f00f2000808f5000090036008040800069
:100a90004800de00e6006000000f2000010070004a
:100aa00010108800a000200040408800720037002d
:100ab000804080001010880080408000610060004d
:100ac000004078000004e0000300320050002000e5
:100ad0004040880068003700300020004040880017
:100ae0006500370041108000000028000080600091
:100af0000000e0000900320000802000604090000b
:100b00008040e800008020006140980009e2a900d0
:100b100050002000050c07005700370016c8bf0022
:100b20008080fb008100e900cf08de008140780072
:100b30000040e90016e8b7000104e00010003200b0
:100b40006040800066004000604088000ac8bf0026
:100b50000040e9000ae8b7000ac8bf000004e0004e
:100b600003003a0020002000f00b0700420037008d
:100b70000622a80020002000404088003e003700e8
:100b8000a0408000904078008180fb001110880018
:100b90000000e800a04088003700370041108000c6
:100ba00000002800008060000000e0000900320022
:100bb00000802000604090008040e800008020001d
:100bc0006140980040002000d80b070009e2a9000e
:100bd000290037000662a8008000200040408800fd
:100be0002500370080002000404088000662a800f1
:100bf00021003700a0408000011080008140780073
:100c0000014878000000e800a040880016c8bf0036
:100c10000040e90016e8b70016c8bf000004e00075
:100c20000400320006a2a9006000200040408800b5
:100c30000200370006a2a800ab0b07000682a8003e
:100c40000d00370020002000b80b07000a00370015
:100c500000802000604090008040e800008020007c
:100c60006140980060002000b00b07000000000009
:100c700001003700000000000080fa004f03be00b2
:100c80004f02be004f01be004f00be003600f9000b
:100c9000004006000040da000000fe000a00fa00f2
:100ca00011002000b1bf9f00c0bf9f006a805700a5
:100cb0002a0707004fb897000080fa0000000600de
:100cc0000a00fa0051002000b1bf9f00c0bf9f0082
:100cd0006a805700230707005fb897000080fa007a
:100ce00000000600889fbe0080047800b05280009b
:100cf0000000e00004003a000e0007000084eb0052
:100d00000000e00008003500b85280000900e00053
:100d10000500320009004400060007000000e00062
:100d200001003d000084eb00080078004f04be0085
:100d300000000600800078000100e00003003a0097
:100d400000002000b0528800000005000080eb0089
:100d500002002000828f500002003e00b152880045
:100d60000000eb00000006000600fa00000f78000b
:100d70001107980022079800000000001111800060
:100d800000102000008060000000e000fbff320047
:100d90001e009000ae009000480a07000080fa0094
:100da0000000060000000500889fbe008a9fbe006c
:100db0008c1f78009d000700a400330003866c00a0
:100dc0006450e1002e0032006420e1003300320064
:100dd0006150e1002f0032006120e100310032005b
:100de00085855500eb07b0000900200008042000ad
:100df000050037000804440089844c000a003100d3
:100e00000603430087834b000001530081815b0090
:100e1000f8ff33000203be000800a00008044400ed
:100e200089844c00f6ff3900c639dd008301730068
:100e300001003200130020008904d1000884d3008f
:100e40000998a300050032000800a7000300a000d5
:100e50008904d1000884d3008b05e8008904d100ff
:100e60000884d3000001eb000281d20034000700a7
:100e700001f0a1000cf0a70001f0a0007c003700f9
:100e80006420e1007e0032000801be000200be00c6
:100e9000f7ff37006120e100790032006000b80000
:100ea000f3ff37000000200001f82700f0ff3700b3
:100eb0000001be00480007000470a70003f0a10075
:100ec0006509b100160032000d0035006828e10008
:100ed00006003500f0ff2f00f1ff27000300e000bf
:100ee00013003b0001002800000005000000400046
:100ef000818048008502e900fcff3a0008003700c5
:100f0000f88f420002003c008000eb00000005006a
:100f10008100d1000080d3008502e800fcff3a0088
:100f20000300e00002003b0060001000e0801800b9
:100f3000000006004f89de0082017800870037003c
:100f400081002000618055000b003d000b00200057
:100f500061fe2f000100e1001d003400828171005c
:100f6000610164008904d1000884d3000000e80016
:100f7000faff3a0071002000610064000300700075
:100f8000020060000900320061044400e0844c006b
:100f90000988a500050032008b05e8006808e1001b
:100fa00002003a008904d1000884d300f20f200027
:100fb0000258e10005003d00c75ddd00f907b20001
:100fc0008980750008007800000006000bf82700f3
:100fd0008b00780000000500c70ade00f107b200b0
:100fe000f50fb20008003200e1cf420002003200eb
:100ff0000170a00024000500810f70000100320084
:101000000408050044000500810f700002003a004a
:10101000140005008502e9000000400081c048007e
:10102000fcff3b000170a000240005000004be008e
:10103000e9ff07000003be000405be000200be0079
:10104000e5ff0700844f7500000006000200be00a7
:101050006450e100050036006420e1000200360023
:101060000968a30001003a000800be000160a0006a
:101070004f0678004f05be004f04be00000006007a
:10108000f0ff2f00f1ff2700f9ff3700889fbe0017
:101090008a9fbe008c1f7800e4ff0700ebff33003f
:1010a00003866c006450e100240032006420e100fb
:1010b000270032006150e100220032006120e1008f
:1010c000210032008b854200eb07b1000134b800eb
:1010d000003ab8000804420089844a00013ab80086
:1010e0000030b8008880400009014a000400330045
:1010f0000000400081804800020149008b05e900a2
:10110000c909dd00830170000100320013002000d6
:10111000c814de004814dd004709de001200b200ea
:10112000c808de000884700085ff070001f0a100f8
:101130000cf0a70001f0a000cdff37006120e10016
:10114000cfff32000801be000200be00f7ff3700eb
:101150006150e100fcff3a00c9ff3700881f7800aa
:10116000030478000300e00007003d006000100069
:10117000e080180060011900e081190002003b00c6
:1011800001f02d00030037000400070008f0a7005d
:1011900001f0a0004f04780000000600889fbe0008
:1011a0008a9fbe00008270000402710004827100f8
:1011b000260032000004be000200be006011b8002c
:1011c0006b092000950220000182cf000a0039003f
:1011d0000541b1000082cf00070039000541b10090
:1011e0000982cf00040039000541b1000882cf0018
:1011f000010039000541b1000542520012003200e1
:101200000a003b0082817100610164008100d1000d
:101210000080d3008984d3000884d3008b05e800c4
:101220000442e800f7ff3a000700370008044400d2
:1012300089844c0000004800818048008b05e9004b
:101240000442e900f9ff3a003dff07004f05be00e8
:101250004f04be0000000600889fbe000004780016
:101260000100780082047800880178000901780084
:10127000110020000e000700890f5000010032000d
:101280000004eb00080078004f04be0000000600d8
:101290000000fa00e88157004fb99700c19620007e
:1012a000c0922000570107000080fa0000000600ed
:1012b000889fbe008a9fbe008c9fbe008e1f780054
:1012c00000067800010478000200780083047800aa
:1012d0000881b900020778000200e00042003200f5
:1012e0000800e0004100320082057800c90090004b
:1012f00069009000808f50000400390009007800d8
:10130000500007000000e0002900350000402000e8
:10131000190060000a0032000b017800a1002000d3
:101320000c00780036000700800678000d00e00011
:1013300006003200610516000a85460004003700e9
:101340000b0578008006eb00010037000b057800e4
:1013500049009000e9009000808050008a8f500082
:1013600002003100010578008006eb000a017800d8
:101370008c0078002c0007008a85550049009000f9
:101380000a004000c00498000d00e0000400320094
:1013900009007800d50007000000e00004003a00d2
:1013a0000b00e000020032000a064600cfff3700c3
:1013b000008020001900600002003200090078005f
:1013c000ca00070000c020001900600002003200bf
:1013d00049009000e00498008b05570011000900b7
:1013e0008885d800010037000000eb004f07780027
:1013f0004f06be004f05be004f04be0000000600b1
:1014000003003700b0cf1000050032000201e900f0
:10141000800178000200e000faff3a0000000500b9
:101420000300780000000600800178000200370009
:10143000b15978000201e9000200e000fcff3a0027
:1014400000000600889fbe008a1f78000004780014
:10145000c8009000680190000000eb00828f5000ef
:101460003c003900180078002200290002016000c9
:10147000e20f510007003200012024000000e000cc
:1014800001003d0001202000008c70000080eb0076
:10149000300037000200260002006000820f50007a
:1014a00009003a0038009000808f50000600390093
:1014b000080078008d000700800078000080eb00b5
:1014c0000100e00023003a001805780000c0200069
:1014d0000000650018003a00a80490006002200097
:1014e00008004000808f540013003a0000202000c4
:1014f000ed020700200498000000e00005003a001b
:1015000029049800490498008904e80039049800e7
:10151000080037000a60a0000a0c78004004980018
:10152000012020008080400031049800400c980089
:10153000500c98000c000700280090005004980000
:10154000380090006004980000002600180c70001d
:101550000000eb004f0578004f04be0000000600bd
:1015600060b520009b003700881f780028a5200068
:101570001804e00003003a00f9ff070020c0b300a0
:10158000004c78004f04780000000600889fbe00e1
:1015900000047800080078005400070080047800f8
:1015a00000042000180060000200320028009000b3
:1015b000580207000000eb0020049800384090001b
:1015c0000004e000050035000000fb00b3fd07004b
:1015d0000000e000010032008084eb001810900051
:1015e0000000e00008003200b5fd07000000e00048
:1015f000010032008084eb001810900045020700c3
:101600000000eb0010149800000820001800600093
:10161000150032000001eb006000b800c39b200001
:101620000202d00063027a00880f520005003a00df
:101630000000400081804800008041000008eb006d
:101640000600370061004000e08048000201e80029
:10165000e80f5000e08f5800f0ff3a0008007800d3
:101660002c0207000e003700000c780000c0eb00d1
:1016700030449800600220000800400020049800d8
:101680004004980050049800400c980060049800b2
:10169000500c98007004980076004400000c9800ec
:1016a000090078004f04be0000000600881f780083
:1016b0000004eb006140b800e2ff2f00f3ff2f00b1
:1016c000cc040700a29c2000620078000000e0002b
:1016d00001003200adff07000804e800e80f5400e5
:1016e000f4ff3a004f04780000000600889fbe0017
:1016f000000478000800e0000e003a008004eb00cf
:101700008800d000c09b2000610078000000e0004d
:1017100004003200f5ff07000000e00001003d007a
:101720008084eb000804e800e80f5400f4ff3a005e
:101730002500370000002200180060008004eb0044
:1017400021003200a80490000f0037000901510069
:10175000384090000000fb008900780082fd0700ff
:101760000000e00007003c002800900040049800c2
:1017700060049800500c98001890a0008084eb0042
:10178000110037008084440048019000828f54008b
:10179000eeff39002800900040049800980078007f
:1017a00002c020000281600001003a003800900071
:1017b00001e8a30002003200600498000100370035
:1017c000500c98008004eb00090078004f04be0024
:1017d00000000600010020000100e00008003200c7
:1017e000010080000100e000050032008100e900f6
:1017f000010088008100d0000200800000b1780064
:10180000000006006200fa00889fbe008a1f780070
:1018100000057800810478000204780083007800d5
:1018200080f92f000f0040004a0407009a979f009c
:10183000a9979f000000eb00b09f9f001885fb0058
:101840008a04fb000a05ea004f55de005002200022
:10185000808f54000d003200e10f55000b003a005c
:101860000a017800880078002f9097009f919700d8
:1018700003000100a0979f000000e0008e003200ee
:101880003f9897000000e800b09f9f000a044400c2
:1018900050022000808f5400040032000900e00054
:1018a000e6ff3a003f989700840037000000eb0005
:1018b000909f9f00809f9f00f0979f00e0979f0060
:1018c000d0979f00c0979f000700370021a22000fb
:1018d000010050000000400061a12000610078007c
:1018e000df98970001007000d09f9f008804780067
:1018f00009047800384578008a00fb0020a2200007
:10190000130207000000e000f0ff3a00a1c2b3009c
:10191000814f55000e003a00cf8897000180e90002
:10192000c08f9f0010007800c09f9f000000e00063
:1019300005003d000000ea00c09f9f005f989700ef
:101940000020a000d09f9f000904e8000f0037008e
:10195000c09f9f000000eb0005003700f2ff27004a
:10196000820f5000020032006a01b900028040007c
:101970000904780088047800b900fb000103b10075
:10198000e98f5000f5ff3600c09f9f00e0c2b30012
:10199000984f1000020032000080eb001900370061
:1019a000a0c2b300d84f100007003a00cf889700bc
:1019b0000180e900c08f9f0010007800a09f9f0069
:1019c0000804e800100037000000eb00a09f9f0013
:1019d0008800780005003700f3ff2700830f5000d0
:1019e000020032006a02b9000400410001047800dc
:1019f000880078003101fb000203b100e90f5100bb
:101a0000f5ff3600a09f9f00984478008900fb00f6
:101a1000e0a02000ce0107000000e000020032003c
:101a20000804e800010037008044eb00c97f9f00f4
:101a300080c6b30080cf540004003a0098cf140051
:101a40000a003a006640500006003700c0c6b300e6
:101a500080cf540005003a0098cf140003003a00ec
:101a600065404000c07f9f000804e8001801fb00ab
:101a7000e3fb2f008f81410081f92f008f80400010
:101a8000a0f92f000f004000100007000000e00048
:101a900009003a00e1fb2f008f804000a0f92f00e1
:101aa0000f004000ef0207000000e00002003500d8
:101ab0000804e80061ff37000080eb004f05780064
:101ac0004f04be000080fa0000000600889fbe00a0
:101ad0008a9fbe00e4c6b300844f5100be003200ae
:101ae00010003c006b425200844f5100180032003d
:101af00005003c0054c2b300844f5100f600320090
:101b000084c5b3000f00370044c6b300844f5100b2
:101b10001400320065424200844f5100f1003a0047
:101b20001000370004c7b300844f5100dd003200bd
:101b30005600350065424200844f51005300320088
:101b400063424200844f5100e6003a004f003700e4
:101b50001181e90082087800f000900012417800bd
:101b6000de00370020629000c5c6b300854f5200ea
:101b700007003a00910278006482520084087800dd
:101b80001402be004fabde0086037800140037005d
:101b900015c7b300854f520003003a0011047800c6
:101ba0006802540005003700a5c6b300854f5200f7
:101bb00006003a0091047800688254008408780096
:101bc0005403be004402be00050037001182e90044
:101bd0008408780014027800cfa2de00612bb900df
:101be0000498be000690be00a060900088c6b300b6
:101bf00088cf50000d00320028c6b30088cf5000b7
:101c000004003a000402fb00cfa2de00612bb90001
:101c10000800370048c7b30088cf500003003200e7
:101c20006644440088cf500004003a00cfa2de0092
:101c3000612bb9000498be000690be003002be00c1
:101c40002003be00f0009000e00f5200e08f5a0029
:101c5000e00f5b00e08f5b0002003d00d4c2b300e8
:101c600008003700001290000418a30002003200a0
:101c7000b4c2b300030037000408a30051003200cf
:101c800004c2b30084f178004c0037002062900059
:101c9000c5c6b300854f520008003a001105780010
:101ca00064025500840878001404be006055b80032
:101cb0000802be000a03be001400370015c7b300b7
:101cc000854f520003003a00910478006882540066
:101cd00005003700a5c6b300854f520006003a0044
:101ce0001105780068025500840878005403be008e
:101cf0004402be00050037001182e9008408780024
:101d0000140278008002eb006033b8000498be0033
:101d10000690be00a060900088c6b30088cf500037
:101d20000d00320028c6b30088cf500004003a00ee
:101d30000482fb008002eb006033b800080037002b
:101d400048c7b30088cf5000030032006644440007
:101d500088cf500004003a008002eb006033b800e6
:101d60000498be000690be00801090000138a300c9
:101d7000140032003002be002003be00e00f52000b
:101d8000e08f5a00e00f5b00e08f5b000d00320037
:101d900081c7b300814f51000300320081c5b300f9
:101da000814f510007003a00f000900004c3b300d7
:101db00084f178008100e80082f178008100e80079
:101dc00071009800f000900081814100630098004c
:101dd000824078003e003700a0619000c4c6b30086
:101de0001181e90084cf5100220032000a003c003a
:101df0006442520084cf51002500320004c2e80042
:101e000084cf5100130032006842520084cf510049
:101e10001e003a000a00370044c7b30084cf5100c7
:101e20001b0032006642420084cf5100180032008d
:101e30006942520084cf510014003a000500370077
:101e4000820878009200780040589000804878001e
:101e50002c0037008208780092007800600a900019
:101e6000cfa2de00612bb9008498be008690be0030
:101e70002400370082087800920078006009900002
:101e8000cf91de008288be001e0037001181e9007c
:101e9000820878009200780060089000800878003e
:101ea000180037001181e9008208780012027800da
:101eb000cfa2de00612bb9000498be000690be00e0
:101ec000f0009000818141006300980081c7b30059
:101ed000b50007000b003700f000900082f1780099
:101ee00006003700f0009000818141000204e0000c
:101ef00001003a0052c2b300824978008100e80034
:101f0000710098000000eb004f05be004f04be00ba
:101f1000000006000000e0002f003200c001780041
:101f2000e38f51002c0036000308a3002a003a007a
:101f3000815280000100e00002003200810f500059
:101f4000040031001100980080528800160037000c
:101f500082007800110190000200e00002003200cf
:101f6000800f5100faff390011027800848240008e
:101f7000850f500018003900808f520003003a008e
:101f80008308420001007800070037000200e000eb
:101f90000300320083014000830f51000e0039001e
:101fa0001200980090009800900090000100e0005e
:101fb0000900320010014000828f500006003a00f4
:101fc000e2a420000009eb00100178001108410094
:101fd000910090001100980000000600889fbe004c
:101fe00000047800715280000100e000020032001d
:101ff000010078000d0037008152800000a520000c
:1020000004003700910f5400250036000180e800dd
:10201000910090000100e000faff3a001000370044
:10202000920f54001e0036000280e8001001780074
:102030000200e000faff3a001101780081528000ae
:1020400000a5200004003700910f54001400360052
:102050000180e80091009000828f5000faff3a0062
:10206000a9528000888f5400010031008804780054
:1020700009007800420007000000e00004003a0078
:10208000888f5400050032008904d100f5ff370025
:10209000091878009fff0700d2ff37000000eb000f
:1020a0004f04be0000000600881f78006304400053
:1020b0000800a1008000eb00800f540021003600d2
:1020c000e30f540001003e004800200008007800a3
:1020d000c2ff07008000eb000000e00019003200a2
:1020e000900078009101780064815100880f5100c0
:1020f000030031001101900002087800070037004a
:1021000008814000020878009101900013019800b6
:102110001001780011091400880878001001780077
:102120000000eb000200e000040032009201900089
:102130000300e000010032000280e80070528800d5
:102140008180e800010078004f047800000006005c
:10215000020037000304e0000600320000017800ae
:1021600002007800b041780081cf5100f9ff3a00b9
:10217000010037000001eb000200780000000600bb
:10218000800078000000eb000100e0000500340052
:1021900001007800d3fa0700e10f400001003a0087
:1021a0000000eb0000000600fc874700889fbe008f
:1021b0008a9fbe008c9fbe008e1f780000067800ac
:1021c00080c5b30080cf50000a0032007740400045
:1021d00080cf50000a0032006940400080cf50009c
:1021e0000b003200d09d200080bf9f00ae00200079
:1021f0000a003700c29c200082bf9f000600370003
:10220000d39d200083bf9f008e0020000300370075
:10221000d49d200084bf9f000e0120003c02be0020
:102220002c03be000605be000404be0040c6b30079
:1022300080cf5000030032006540400080cf500046
:102240000b003a00e00f5200e08f5a00e00f5b00f5
:10225000e08f5b0006003d006000b8006011b80030
:1022600004045000858458000605590087855900ec
:10227000e80f57000400320040002000f00f570024
:1022800038003a000100370030002000e00f540011
:10229000e08f5c00e00f5d00e08f5d0004003a001d
:1022a000dc0890008d0120000100e00006003200f3
:1022b0008e00e900888060008fba9700e5c0780042
:1022c000f1ef9f007d012000800078008100e9008f
:1022d000050033008b05d1000a85d3008984d30023
:1022e0000884d300f9ff3700089ebe000a96be009e
:1022f000120037008d06e9008e00e900848060003e
:102300000fb99700e2c1780082fd2f000f01410054
:1023100003f17e00800078008100e90005003300b1
:102320008783d1000683d3008582d3000482d30043
:10233000f9ff3700049ebe000696be003c02be00b8
:102340002c03be00e00f5200e08f5a00e00f5b004c
:10235000e08f5b008b0034000d00e000e5ff3c00e7
:10236000880037002c60900081c6b300814f500078
:102370000b00320006003c000004e00008003200c0
:10238000e6c05000814f50004e003a000400370074
:10239000c1c6b300814f50004a003a002100370007
:1023a0000800e00004003a005c0890008d01200065
:1023b0000000e00006003200110009000e84d80081
:1023c0000fb99700e2c07800f1ef9f007d01200077
:1023d000110009000e84d8000a003700110009001e
:1023e0000e04d8008d06e9000e81b90002045400e5
:1023f0008fb8970061417c0081fd2f008f804000e5
:1024000082f07e00000478000800e0000200320044
:102410000d00e000f1ff3c00cfc4de00614db900cb
:1024200025003700e00f5400e08f5c0004003a0004
:102430005c0890008d0120000000e00007003200e1
:102440006171b9000800be00670107008fb99700ed
:10245000e3417800f3ef9f007d0120006171b90036
:102460000800be00500107000b0037006171b90081
:102470000800be003d0107008d06e90000f1b9002b
:10248000020454000fba9700e4427c0084fd2f0040
:102490000f02420005f27e000004be00e00f500073
:1024a000e08f5800020032000d00e000efff3c001a
:1024b0004fcdde008a057800089ebe000a96be0059
:1024c00030003700e00f5400e08f5c00e00f5d004b
:1024d000e08f5d0004003a005c0890008d01200050
:1024e0000000e000090032006172b900612bb90000
:1024f0000800be000a01be00e40107000fba970001
:1025000064427800f4ef9f007d0120006172b90001
:10251000612bb9000800be000a01be00d40107000b
:102520000d0037006172b900612bb9000800be00d0
:102530000a01be00d90107008d06e90000f2b900ca
:10254000040454008fba970065427c0085fd2f007b
:102550008f82420084f27e00009ebe000296be0082
:102560003c04be002c05be00e00f5400e08f5c0070
:10257000e00f5d00e08f5d00020034000d00e00020
:10258000e8ff3c00e80f570010003a000c109000e4
:102590000038a3000d003200f78f560006003e0001
:1025a00085fd2f008f824200e5c07e0000c3b3008e
:1025b00080cf5000050032008d06e90002c3b30051
:1025c00081fd2f008f80400082f07e007881160010
:1025d000120e98006c00900083fd2f008f81410047
:1025e0008d80410090fb07001c089000dc089000e3
:1025f000810f500006003d0000805000000e980042
:102600000c1090000040a100001698000f00370049
:102610000100e0000d003d008c109000f48060008f
:10262000f08f500009003a007c099000fc009000f7
:10263000810051000c099000828050000080500001
:102640004240a90001003400000e98004f077800b6
:102650004f06be004f05be004f04be00cf01b100c3
:10266000000006000400fa00889fbe008a9fbe009a
:102670008c1f78000004780001067800f80d9000a7
:1026800078009000808555000808900080855500ee
:102690001808900080855500280890008085550016
:1026a00038089000808555004808900080855500c6
:1026b0000002220090bf9f0000032300a0bf9f00e4
:1026c000081090000028a30015003a000b00e0005d
:1026d000130034000b0578008a047800e20f5500df
:1026e0000100360029002000c8019000090178008f
:1026f000ee8057005800900003000100500498003d
:102700000000e0008c0032006808900009004000e2
:10271000600c9800090555004240a900eeff3c00fe
:10272000780190000200e0000c003400c801900025
:102730008c007800580090000300010050049800bd
:102740008080eb000000e0007c003200e808900090
:102750007800900000804000600c9800880c900089
:102760000900e0001100340009057800e28f5400f0
:10277000010036002a002000c80190000a017800fc
:10278000ec805700580090000300010050049800ae
:102790000000e00068003200680890000a00400075
:1027a000600c98008a845400edff370018099000ef
:1027b0000200e0000c003400c8019000e800900026
:1027c0005800900003000100500498008080eb0046
:1027d0000000e00059003200e8089000180890005e
:1027e00000804000600c9800a80c90000900e000f8
:1027f0001100340009057800e28f54000100360012
:102800002a002000c80190000a017800ec805700df
:102810005800900003000100500498000000e00000
:1028200045003200680890000a004000600c9800e3
:102830008a845400edff3700380990000200e00060
:102840000e003400e80090001808900080804000de
:10285000c801900058009000030001005004980047
:102860008080eb000000e00034003200e8089000b7
:102870003808900000804000600c9800c80c900060
:102880000900e0001100340009057800e28f5400cf
:10289000010036002a002000c80190000a017800db
:1028a000ec8057005800900003000100500498008d
:1028b0000000e00020003200680890000a0040009c
:1028c000600c98008a845400edff370008109000d7
:1028d0008000eb000028a300180032000b00e0008d
:1028e000160034008b04780009057800e28f54004c
:1028f000010036002a002000c80190000a0178007b
:10290000ee8057005800900003000100500498002a
:102910000000e00008003200680890000a00400053
:10292000600c98008a8454004240a900eeff3c00ed
:102930008000eb00010037008080eb000100780090
:102940004f0678004f05be004f04be000080fa001d
:1029500000000600010878000000060000c0da0050
:102960000000060000c0da0000000600839f680037
:102970000100e00002003d0060001000e08018004f
:102980000300e00002003d0060011100e081190039
:10299000050007004f00e00002003b00600010004f
:1029a000e0801800000006006022b8000602200047
:1029b0000000d0008180d2000482d2008582d20043
:1029c0000000a0000202520083825a00030031007e
:1029d0000202420083824a000000a1000603e900cf
:1029e000f3ff3a0000000600efff07000400be00fe
:1029f00000000600020ab900001bb9000200b8007e
:102a0000810042008100430000000600889fbe0054
:102a10008a9fbe0030044200b0844a0030054b005b
:102a200090854b006000b1000898be000a90be007f
:102a30000440e10005c8e10006d0e10007d8e1004c
:102a400002003100680040001008e8004f05be0099
:102a50004f04be0000000600889fbe008a9fbe0093
:102a60003004be002005be000418540005985c0028
:102a700006185d0007985d00110020000440e10089
:102a800005c8e10006d0e10007d8e10001003900e7
:102a90008000eb00108810004f05be004f04be0000
:102aa000000006001200fa00889fbe008a9fbe0048
:102ab0008c9fbe00e0b79f00f1b79f0082bf9f00d0
:102ac00093bf9f000605be000404be000000eb009b
:102ad000d0b79f00c0b79f00b0b79f00a0b79f00be
:102ae00090b79f000006eb005fb19700cfb0970052
:102af000820141003fb097000200e00004003d0069
:102b0000370007007e805700c0ff07000300370032
:102b1000330007007e805700cfff0700dfb6970025
:102b20000d00e0000c0035006fb29700ffb2970077
:102b30000fbb97009fbb97001000200001002000f2
:102b40006011b800000272008182720002037300fb
:102b5000838373001b0007000c06e80001042000bb
:102b6000810f5600e0ff3a000d00e00004003d0038
:102b70000802be000a03be007e805700a3ff0700c4
:102b80005fa897000000e00005003a001fb2970020
:102b9000afb297003fb39700cfb39700090007008b
:102ba0006fb09700ffb097000fb997009fb99700db
:102bb0004f06be004f05be004f04be000080fa0065
:102bc000000006000100070000000600a4b79f00f7
:102bd000b5b79f00c6b79f00d7b79f00000006009b
:102be0004f09de0082817100b3b79f004f01de0004
:102bf0008180400082807000a1b79f008fb0970055
:102c00004f09de00000040000200700090b79f00f6
:102c10007fa897004f01de00818040008280700015
:102c200081b79f000d0007004f3ade000000400012
:102c300004007000f0af9f0008000700040242008b
:102c400085824a0006034b0087834b00dfff0700a5
:102c50000802be000a03be00000006002fb2970063
:102c6000bfb297004fb39700dfb397000000060094
:102c7000881f780018002000881f780089ff07004f
:102c80008f87e9004f04780000000600801feb00ea
:102c900084ff07008f87e90000000600889fbe00c0
:102ca0008a9fbe00e00f5000e08f5800e00f5900ef
:102cb000e08f59000c003d006044b8006055b8003a
:102cc0000000540081805c0002015d0083815d0092
:102cd000180020001500070008003d00180007003c
:102ce0000004eb00050037000004eb000f000700b4
:102cf00002003d001200070018002000dcff070062
:102d00000800e000060032006022b8006033b8001e
:102d10000000520081805a0002015b0083815b0049
:102d20004f05be004f04be0000000600e00f520039
:102d3000e08f5a00e00f5b00e08f5b0000000600b0
:102d40006044b8006055b8000402540085825c00fd
:102d500006035d0087835d0000000600889fbe00bb
:102d60008a9fbe008c1f7800e00f5000e08f580053
:102d7000e00f5900e08f59000d003d006044b8009d
:102d80006055b8000000540081805c0002015d00c5
:102d900083815d001c0020000820e10009a8e100fb
:102da0000ab0e1000bb8e1000d003d00080037005b
:102db0000006eb00e00f5200e08f5a00e00f5b00ce
:102dc000e08f5b0006003d006044b8006055b8002d
:102dd0000402540085825c0006035d0087835d0069
:102de000aaff07000c00e000060032006022b800d5
:102df0006033b8000000520081805a0002015b007d
:102e000083815b004f0678004f05be004f04be0073
:042e100000000600b8
:020000040000fa
:102e1400486500006c6c00006f2000000025000075
:082e2400642000000000000022
:020000040000fa
:102e2c000200fa00004f780080c6b30024e8b70017
:102e3c0041822000914078001e40780000c0700054
:102e4c0024e8b7000080fa00000006000400fa0035
:102e5c00004f78001107980024c8bf000000fb0049
:102e6c008001780012c0b3008e007800e0a320002f
:102e7c00be03070024c8bf000000fb0080017800df
:102e8c0012c0b3009e00900040a420009f030700d6
:102e9c0002832000e1a3200020c0b3005f030700e1
:102eac000000000080418000e10f5000fdff320067
:102ebc00804180000010a20000f0a7000000ea0092
:102ecc000000e9004f00de00004078000080fa00ae
:102edc00000006000600fa002047980031479800d1
:102eec0042479800534798003e409000ec4f5000ea
:102efc000c0032003e409000ee4f500009003200b2
:102f0c003e409000f04f5000060032003e409000d2
:102f1c00f24f500003003200c0c0b30025e8b700e8
:102f2c00030037003e419000518220008248780017
:102f3c003e409000ec4f500002003a000040eb0085
:102f4c00004f78003e409000ee4f500002003a00d7
:102f5c0010c0b300004f78003e409000f04f50007e
:102f6c0002003a0020c0b300004f78003e409000b1
:102f7c00f24f500002003a0030c0b300004f78000e
:102f8c0000c8b30027e8b7002e4090000040e900cd
:102f9c0020479800ae409000500020000008dd0053
:102fac002047980071822000914078002e409000bc
:102fbc0000c0700027e8b700ce4090004000200011
:102fcc000008dd0040479800718220009140780095
:102fdc004e40900000c0700027e8b7001e00fb00b8
:102fec004200dd00004f780027c8bf001e40700073
:102ffc0027e8b7005e4090000040e9005047980079
:10300c0071822000914078005e40900000c07000fa
:10301c0027e8b70024c8bf000000fb000383200092
:10302c000001780011c0b30070822000c9020700b3
:10303c000000000080418000e10f5000fdff3200d5
:10304c000080fa00000006000000fa0027c8bf004c
:10305c000074a00027e8b70024c8bf000000fb00e4
:10306c00038320000001780011c0b300708220009f
:10307c00b80207000000000080418000e10f500002
:10308c00fdff32000080fa00000006000000fa008c
:10309c0025c8bf00f24f50000300320030c0b3000f
:1030ac002ae8b7000200370040c0b3002ae8b70096
:1030bc0024c8bf000001fb00a182200091407800d1
:1030cc00a0a3200003832000bb0207000000000027
:1030dc0080418000e10f5000fdff32002ac8bf0084
:1030ec000080fb000000e900a1a3200061407800f3
:1030fc0029e8b7002ac8bf000080fb000000e900e7
:10310c00a1a32000614078008040780000c8b30083
:10311c0000c060000080fa00000006000200fa0007
:10312c00889fbe000000eb00000f7800000000003c
:10313c00d6ff0700e14f5000fdff320025c8bf004d
:10314c000080fb00ee0f500050003200ee0f5000dc
:10315c0003003c00ec0f500006003200e200370088
:10316c00f00f500089003200f20f50009000320036
:10317c00dd003700a0a32000104078000001fb0008
:10318c00cf91de00f0002000010020000202780048
:10319c0003017800800178000100780003026200ce
:1031ac00000061008000eb00c000dd00000020008a
:1031bc000001be006120b800000171008181710026
:1031cc004818dd00c810de00810070004810dd00da
:1031dc0080007800b0a32000104078000001fb00b4
:1031ec00f00f200000006100008f7000a0a32000f1
:1031fc00104078000001fb00cf91de000008200099
:10320c0001002000020278000301780080017800a0
:10321c000100780003026200000061008000eb00f6
:10322c00c000dd00000020000001be006120b800dd
:10323c000001710081817100c810dd0000002000c8
:10324c00000078001e0f70001e007800cf80de009a
:10325c0035f7070002002000a347240088f7070079
:10326c000004be0028c8bf000080fb00cf80de0039
:10327c002df707000001be000800be00c7f60700ce
:10328c0008f70700000f780097003700a0a3200074
:10329c00104078000001fb00cf91de00f00b200005
:1032ac000100200002027800030178008001780000
:1032bc000100780003026200000061008000eb0056
:1032cc00c000dd00000020000001be006120b8003d
:1032dc0000017100818171004818dd00c810de000a
:1032ec00810070004810dd0080007800b0a3200041
:1032fc00104078000001fb00f00f2000000061007e
:10330c00008f7000a0a32000104078000001fb008b
:10331c00cf91de000008200001002000020278009e
:10332c00030178008001780001007800030262003c
:10333c00000061008000eb00c000dd0000002000f8
:10334c000001be006120b800000171008181710094
:10335c00c810dd0000002000000078001e0f700077
:10336c009e007800a00f20000088b9008000780033
:10337c0028c8bf000080fb00000178001100090084
:10338c008200d800000f780057003700a0a320005f
:10339c00104078000000fb00c800dd00b0a3200046
:1033ac00104078000000fb00008f70004e003700ca
:1033bc00a0a32000104078000001fb00cf91de009c
:1033cc0010002000010020000202780003017800a8
:1033dc0080017800010078000302620000006100a7
:1033ec008000eb00c000dd00000020000001be00ea
:1033fc006120b8000001710081817100c010dd00f6
:10340c000000200000027800b0a3200010407800db
:10341c000001fb00cf91de004818dd00c810de0073
:10342c00810070004810dd000000780084007000fe
:10343c00c0a32000104078000001fb00f00f20001a
:10344c0000006100008f7000a0a3200010407800e5
:10345c000001fb00cf91de000008200001002000dd
:10346c0002027800030178008001780001007800e6
:10347c0003026200000061008000eb00c000dd0070
:10348c00000020000001be006120b80000017100a6
:10349c0081817100c810dd00000020000000780060
:1034ac001e0f70001e007800cf80de009ef6070015
:1034bc0002002000a3172400f1f607000004be0050
:1034cc0028c8bf000080fb00cf80de0096f6070006
:1034dc000001be000800be0030f6070071f60700c0
:1034ec00000f7800000000001e0078004f04be00a2
:1034fc000080fa00000006000000fa0080002000a6
:10350c00001188002222ef00f00c200040118800ee
:10351c009560a80045010700c0832000c0418800c9
:10352c00c0832000b041880040842000a041880066
:10353c004084200090418800d04180000010a00001
:10354c00d0418800d04180000090a000d04188007c
:10355c00d04180000080a100d0418800d041800083
:10356c000000a100d04188000080fa000000060095
:10357c000200fa000040eb00004f7800a0418000f0
:10358c00104f7800a04180000000e800a0418800a6
:10359c00a141800040942000808f500002003a002e
:1035ac0040842000a0418800a1418000904180000f
:1035bc00808f500003003a00d04180000010a00022
:1035cc00d0418800d04180000000a100d04188008b
:1035dc001e4078000080fa00000006000600fa0089
:1035ec00881f780010079800210798000000eb0056
:1035fc00000f780009003700d041800062006000a5
:10360c000000e0000a003a001e0090001e0440007a
:10361c00d7ff0700004c78001e0fe8002e0090002a
:10362c009e007800808f5000f3ff390001003700b6
:10363c00000000001e0078004f0478000080fa00a3
:10364c00000006000200fa00004f78009580a900e7
:10365c00b04180001e487800b04180000000e800b6
:10366c00b0418800b141800040842000808f500020
:10367c0002003a00c0832000b0418800d041800095
:10368c000090a100d0418800c1418000b041800071
:10369c00808f500003003a00d04180000080a000d1
:1036ac00d04188009580a8000080fa000000060038
:1036bc000600fa0010079800210798000000eb00a4
:1036cc00000f78000a003700d14180000010200064
:1036dc00008060000000e0000a003a001e0090002c
:1036ec001e004000104078001e0fe800d5ff0700b8
:1036fc002e0090009e007800808f5000f2ff390061
:10370c0001003700000000001e0078000080fa0065
:10371c00000006000200fa000000eb00000f780029
:10372c00d141800000202000008060000000e000fb
:10373c00010032001e40a000d1418000001020008a
:10374c00008060000000e000010032001e30a0008c
:10375c00d0418000610060000000e00001003200f8
:10376c001e00a000d0418000620060000000e0005c
:10377c00020032001e20a000010037001e10a00025
:10378c001e0078000080fa00000006000200fa001b
:10379c00000f7800a04180009e0040004094200063
:1037ac00808f500008003900a04180009e0040002e
:1037bc00409420000000ea0000804000418420007a
:1037cc006140780003003700a04180001e004000db
:1037dc00104078000080fa00000006000800fa0093
:1037ec0020079800310798000000eb0010079800a4
:1037fc0010c0b300004f7800be009000f00f200006
:10380c00808f500007003e00d041800062006000b5
:10381c000000e00003003a002e0090000000e000e1
:10382c0003003a000040eb00004f780031003700f5
:10383c00a0418000800078003e0090008080400015
:10384c00408420000000ea0080804000f00f20003f
:10385c000080600010079800a1418000904180001a
:10386c00808f50000a003100a14180003e00900082
:10387c0080804000904180000000e900808f500063
:10388c00150036000040eb00004f780012003700a6
:10389c00a141800090418000808f50000e003600c6
:1038ac009e0090004084200080804000a041800059
:1038bc00808f5000080031009e0090004084200052
:1038cc008080400090418000808f500002003900c1
:1038dc000040eb00004f78001e4078000004e00030
:1038ec00040032003e009000a8ff0700ae009000dc
:1038fc00804878001e4078000080fa000000060026
:10390c000000fa00d0418000610060000000e0007f
:10391c000f003a00a141800090418000808f500040
:10392c0005003600a04180008000780090418000a6
:10393c000080500007003700a04180008000780014
:10394c0090418000008050000010b0000100370052
:10395c000000eb000080fa00000006000000fa00f6
:10396c00d141800000102000008060000000e000c9
:10397c000f003a00c1418000b0418000808f5000a0
:10398c0005003600c041800080007800b041800006
:10399c000080500007003700c04180008000780094
:1039ac00b0418000008050006800400001003700ea
:1039bc000000eb000080fa00000006000000fa0096
:1039cc00d04180000000d100614060000080fb000d
:1039dc0000f0a7000000ea000000ea004f00de0043
:1039ec00004078000080fa00000006000000fa0099
:1039fc00d04180004800de00614060000080fb0088
:103a0c0000f0a7000000ea000000ea004f00de0012
:103a1c00004078000080fa00000006000000fa0068
:103a2c00101180000080fa00000006000000fa006f
:103a3c0021e2a8002342a8000080fa000000060042
:103a4c000000fa0021e2a9002342a9000080fa003c
:103a5c00000006000000fa000080200081a2200077
:103a6c00110098000080200081a22000010878003d
:103a7c0000802000a00090000110a0002100980000
:103a8c0000802000a00090000100a10021009800ff
:103a9c00008020008040eb0061409800e004200092
:103aac002010880000002800301088000822ef0049
:103abc008620a9009620a8000080fa0000000600cd
:103acc000200fa0000802000e0409000014f7800d6
:103adc001e4078000080fa00000006000000fa008a
:103aec006040800066004000604088000ac8bf004b
:103afc000040e9000ae8b7000ac8bf000004e00073
:103b0c0003003a00400020004040880002003700cb
:103b1c0010002000404088000080fa0000000600e1
:103b2c000200fa00000f78000642a80070408000e6
:103b3c00200090000000e000030032007040800084
:103b4c00200090001e0878000828ef000080fa0082
:103b5c00000006000800fa00000f780021479800ca
:103b6c002207980033079800008020002000900066
:103b7c00610060000000e0000a003a00ae01900015
:103b8c002e4190009e00780040a320007700070093
:103b9c003e01900041a3200010c0b3001f0007009d
:103bac00030037003e0090008000eb000108780015
:103bbc000080fa00000006000800fa00000f7800f0
:103bcc0021479800220798003307980000802000b6
:103bdc0020009000610060000000e0000a003a0044
:103bec00ae0190002e4190009e007800e0a22000d3
:103bfc00460007003e019000e1a2200010c0b30077
:103c0c0006000700030037003e0090008000eb0028
:103c1c00010878000080fa00000006000600fa0097
:103c2c00004f7800110798002207980000802000b0
:103c3c0020009000610060000000e0002e003a00bf
:103c4c002e00900011002000010878000080200058
:103c5c00100078009e009000110098000080200059
:103c6c00100078001e4878000080200010007800ba
:103c7c00ae00900021009800008020001000780019
:103c8c00e600400000802000010878000080200041
:103c9c0090007800e0a22000808f500003003a00d2
:103cac000080200081a22000010878000080200004
:103cbc00a00090000110a1002100980000802000bd
:103ccc00900090000080200010007800808f500041
:103cdc0004003a0000802000a00090000100a00029
:103cec0021009800404080000000e00005003a00f0
:103cfc008620a800030037002e0090008000eb0007
:103d0c00010878000080fa00000006000800fa00a4
:103d1c00000f78001107980042479800330798006d
:103d2c003e00900000004000800078001e007800eb
:103d3c00010878001e0078001000780080007800e0
:103d4c000100a0001e007800010878001e00780019
:103d5c00ce409000214098001e0078009e009000fc
:103d6c00210098000080fa00000006000800fa000c
:103d7c00000f78001107980042479800330798000d
:103d8c003e00900000004000800078001e0078008b
:103d9c00010878001e007800ce4090002140980069
:103dac001e0078009e009000210098000080fa0010
:103dbc00000006000000fa000080200020009000a7
:103dcc006200600000f0a7000000ea000000ea00ba
:103ddc004f00de00004078000080fa000000060072
:103dec000000fa00008020002000900061006000bc
:103dfc0000f0a7000000ea000000ea004f00de001f
:0c3e0c00004078000080fa000000060072
:020000040000fa
:103e1800ee09000020000000800000002c080000cf
:103e28000200000082000000ffff000032080000ce
:103e38001201000080000000280a000012000000a3
:103e4800800000000008000018000000800000004a
:103e58004a0a000004000000800000001808000062
:103e68000c000000800000002e0800000200000086
:103e78008200000068e000003a0a0000100000001c
:103e880080000000300800000200000082000000ee
:103e98000100000024080000080000008000000065
:103ea80044090000880000008200000001000000b2
:103eb800006a09006b096a00096a09006a096a0050
:103ec800095a09000000000000000000000000007e
:103ed80000000000000000000000000000000000da
:103ee800000208000101920009930900920992005a
:103ef80009920900920982000900000000000000f0
:103f080000000000000000000000000000000000a9
:103f1800000000000000020008020200ba09bb000d
:103f280009ba0900ba09ba0009ba0900aa090000c1
:103f38000000000000000000000000000000000079
:103f480000000000000000000000000044096c00b0
:103f580009940900000000000000000000000000b3
:103f680000000000520a000002000000800000006b
:103f78000e0a00001a00000082000000686a6c0047
:103f8800747a4c00000001000002000004000800e0
:103f980000100000000020002b2d2300300000003e
:103fa800540a000002000000820000000400000023
:103fb8004e0a00000400000080000000cc09000048
:103fc8002200000082000000303132003334350016
:103fd8003637380039414200434445004600300036
:103fe80031323300343536003738390061626300c6
:103ff8006465660000000000560a00000200000028
:08400800800000000000000030
:020000040000fa
:104010000000fa00c422ef00cc22ef00d422ef000f
:10402000dc22ef00e422ef00ec22ef00f422ef00ac
:10403000f06f2c00001688000080eb00401688000e
:10404000e0012900801688000080eb00c01688007f
:10405000f03f200000178800701f230040178800e1
:10406000f03c2f00801788005620ef005820ef000a
:104070005a20ef005c20ef005e20ef006020ef0090
:104080006e20ef007020ef007220ef007420ef0030
:104090007620ef007820ef00c622ef00ce22ef005e
:1040a000d622ef00de22ef00e622ef00ee22ef0044
:1040b000f622ef00002c200000278800c0ff2f0010
:1040c00010278800000120002027880000cc200055
:1040d00030278800002f200040278800003c200067
:1040e00060278800113a8000f00b200000816000fa
:1040f00060042000710520002374200080497800ae
:1041000081497800824978008136800000fc2f00c8
:10411000008060003000b3008036880021358000c8
:1041200000fc2f0000806000e001b3002035880013
:10413000103a8000000178000260a00060042000b6
:10414000710520002374200080497800814978009f
:10415000824978000080fa00000006000000fa00a2
:10416000881f78006a000700a0702900801f78006f
:1041700047f407008f87e9000040eb002bfb0700a6
:1041800010002000004188001b0037000041800023
:104190000040780013c0b3000041eb0001c1b30040
:1041a0004ffb0700004180000004e900defb070030
:1041b000828120008800440081004100800878004e
:1041c000004180000000e9008181200000004000e3
:1041d0000080400010007800801f780010712900d6
:1041e000801f78002af40700e48757000041800010
:1041f0000000e8000041880000418000e40f50000a
:10420000e2ff3400deff37000000fa0061058000a5
:10421000f0f82f00008060000040a00060058800da
:104220006105800080ff2f00008060000000a0007a
:104230006005880021068000f0f82f0000806000f3
:104240000040a000200688005105800080ff2f005c
:10425000008060000000a00050058800410580003b
:10426000f0ff28000080600000c0a000400588002a
:104270000080fa00000006000000fa000010230091
:10428000203a88004827ef004e27ef007027ef0004
:104290007227ef007427ef007627ef007a27ef00f0
:1042a0007c27ef002200200080072000a1092000c9
:1042b0003374200080497800814978008249780071
:1042c0000001eb0060042000710520002374200031
:1042d0008049780081497800824978000080fa009e
:1042e00000000600000f78009e0078006141880001
:1042f000ffff37000000fa00e09e200080077800f2
:1043000060a02000000188000080fa000000060084
:104310000000fa003eff0700bbff0700d6ff0700c2
:10432000cffd070077fc07000080fa0000000600c0
:104330000000fa00d0ff07000080fa00000006002d
:020000040000fa
:020000040002f8
:04aff0003fff00001f
:020000040000fa
:020000040002f8
:04aff4007fe20000f8
:020000040000fa
:020000040002f8
:04aff800967a000045
:020000040000fa
:020000040002f8
:04affc009f3f000073
:00000001FF
