:020000040000FA
:08000000803102288731E92F4D
:10026E008034163021009700080071082100DB0051
:10027E007008DA000800F1007108813160218131C7
:10028E000800640080010131890B4929003468306F
:10029E0021009900980122009601080008302300E1
:1002AE009F0080309D0024309E0067309B009C0193
:1002BE000800F00062292000111E662967296229B4
:1002CE006829700823009A0008008131FC218131D1
:1002DE0081314E21813181313821813181317C2131
:1002EE0081318131552181310800F93028009D007E
:1002FE009C0120009311210093150030F000003076
:10030E00F10081313C2181313D3028009E000800F2
:10031E0058302000DA005A08DD005708CF00560882
:10032E00CE005D30DA005A08D00000308231DA2279
:10033E00813120004F08DC004E08DB00A6290800A2
:10034E00823162228131AB2921000E12823162226A
:10035E008131B12922000E12823162228131B729F8
:10036E0022008E15823162228131BD2922008E112A
:10037E008231622281310800823162228131C729A5
:10038E0021000E12823162228131CD2922000E16F9
:10039E00823162228131D32922008E15823162226E
:1003AE008131D92922008E118231622281310800D9
:1003BE007C08803A2000A00080302002031DE9292D
:1003CE0001307B020318EC29ED29FA297B09200064
:1003DE00A0007C09A100A00A0319A10A2008FB00B5
:1003EE002108FC00FB29FB290800220090018F0147
:1003FE008C018D018E010F3021009000FF308C009A
:10040E00FF308D00BF308E00FF308F00FF30230095
:10041E008F003F308D00073090003E308C0024005E
:10042E0090018D012100951722009D010800823157
:10043E0062228231222A21000E1282316222823100
:10044E00282A22000E168231622282312E2A2200A2
:10045E008E15823162228231342A22000E128231AE
:10046E00622282313A2A22008E1182316222823138
:10047E000800823162228231442A21000E1282311A
:10048E00622282314A2A22000E1282316222823187
:10049E00502A22008E15823162228231562A220083
:1004AE000E168231622282315C2A22008E11823136
:1004BE00622282310800F101F2017208803AF000E6
:1004CE0080307002031D6D2A10307102031C702AD9
:1004DE00712A732A862A862A00000130F10700301D
:1004EE00F23D7208803AF00080307002031D812ABE
:1004FE0010307102031C842A852A732A862A08006A
:10050E00F7007708F2007208F600922A0130F20026
:10051E007208F707922A7708860087010108031DE3
:10052E00992A9A2A8D2A9B2A7608F2000030F30027
:10053E00F209F309F20A0319F30A7708F4000030FE
:10054E00F50072087407F0007308753DF100AF2ACC
:10055E0008002000A300A101A201C92A2008FB0067
:10056E00FC017B08F2007C08F3007A08FD007D0890
:10057E00F40083314523823101302000A107003081
:10058E00A23DC92A21082307FB007B0886008701AC
:10059E000108FC007C08A0002008031DD72AD82AD9
:1005AE00B52AD92A08002000D3004F08D5004E08DE
:1005BE00D400E501E601F52A5430D1005108C200FD
:1005CE005008D2005208C30053088531EC25823101
:1005DE0020004208E5074308E63DF52A540884004A
:1005EE00550885001200031DFD2AFE2AE32AFF2A64
:1005FE006608CF006508CE00042B08008231622207
:10060E008331092B21000E16823162228331F501CE
:10061E00F40108307402031C152B162B182B422BD9
:10062E00422B22008E151B2B8231622283317535AF
:10063E00F3007308F50020000E1E262B272B2D2B02
:10064E0075080138F3007308F5002D2B82316222F4
:10065E008331312B22008E11342B82316222833171
:10066E000130F3007308F40708307402031C402BAA
:10067E00412B182B422B7508442B080074080319C4
:10068E00492B4A2B502B7408031D4E2B4F2B552BE9
:10069E00502B7208813142218331882B7408033E1E
:1006AE00860087011600010403195E2B5F2B7D2B3C
:1006BE007408033E86008701403FF500413FF60077
:1006CE00740A86008701403FF700413FF800780822
:1006DE00803AF9007608803A7902031D782B750866
:1006EE00770203187B2B7C2B882B7D2B740A8600BC
:1006FE0087010130810741310318810A882B882B2D
:10070E00882B08002000AC006B1C8E2B8F2B982B97
:10071E002C08A7002708FA0024088231B022833162
:10072E00982B2000A61B9C2B9D2BA22B2608AB00E2
:10073E002508AA00A42BAA01AB01A801A901B92B77
:10074E002030F2000030F30020002C08A70027080C
:10075E00F40083314523833101302000A807003097
:10076E00A93DB92B2908803AA7002B08803A270209
:10077E00031DC32B2A082802031CC62BC72BA72B2D
:10078E0020006B18CB2BCC2BD42B2C08A7002708C2
:10079E00FA0024088231B0228331200024088231ED
:1007AE008722833120002A087007A4002B08713D90
:1007BE00A500E12B0800F500823162228331E72B80
:1007CE0021000E128231622283318030F3007308D1
:1007DE00F7007508F3007308F6001E2C82316222B2
:1007EE00833177087605F300F40173087404031956
:1007FE00012C022C062C22000E160A2C0A2C22008A
:10080E000E120A2C0A2C8231622283310E2C220007
:10081E008E15823162228331142C22008E11823188
:10082E00622283317736F3007308F7001E2C7708A7
:10083E00031D222C232CF52B242C21000E16272CE5
:10084E008231622283312B2C22008E15823162225C
:10085E00833120000E1E342C352C382CF601F60A6E
:10086E003A2CF6013A2C8231622283313E2C220040
:10087E008E11412C8231622283310800FA01F71F5A
:10088E00492C4A2C572CF409F509F609F709F40AF4
:10089E000319F50A0319F60A0319F70AFA01FA0AF7
:1008AE00F31F5A2C5B2C672CF009F109F209F3099E
:1008BE00F00A0319F10A0319F20A0319F30A672C55
:1008CE00730872047104700403196E2C6F2CAE2C15
:1008DE00F901F90A7E2C0130F035F10DF20DF30D10
:1008EE00890B732C0130F8007808F9077E2CF31F62
:1008FE00812C822C722C842C842C73087702031D7D
:10090E00922C72087602031D922C71087502031D3B
:10091E00922C70087402031C952C962C9F2C700838
:10092E00F4027108F53B7208F63B7308F73B9F2CF7
:10093E000130F336F20CF10CF00C890BA02C0130C7
:10094E00F902031DAB2CAC2C842CAE2CAE2C7A08E9
:10095E000319B22CB32CBF2CF409F509F609F709CB
:10096E00F40A0319F50A0319F60A0319F70ABF2C3C
:10097E007708F3007608F2007508F1007408F000AD
:10098E00C82C080081316C21843182311E228431C1
:10099E00D0308331E2238431D8308331E223843165
:1009AE00823140228431823162228431823162224C
:1009BE0084318231622284318231622284318231E9
:1009CE001E228431D1308331E223843183310523D9
:1009DE0084312000DE005E08E4008131A7218431DD
:1009EE0020006408E200E301E21BE30383310523E8
:1009FE0084312000DE005E08E4008131A7218431BD
:100A0E0020006308DF006208DE005E08DF00DE0102
:100A1E0064085E04E200E301E41F162DE3032000E8
:100A2E005F08E3048331052384312000DE005E0875
:100A3E00E4008131C32184318231402284318231FC
:100A4E006222843182316222843182316222843187
:100A5E00823162228431200064087F39DE005E0814
:100A6E00E1000030D6008830D7006108D800D901E7
:100A7E00D81BD90381318F21843104302000D60058
:100A8E008830D7006308D9006208D80081318F21E1
:100A9E008431502D803102282000A101F31F582DE2
:100AAE00592D662DF009F109F209F309F00A03191F
:100ABE00F10A0319F20A0319F30AA101A10AF71F99
:100ACE00692D6A2D7A2DF409F509F609F709F40A4C
:100ADE000319F50A0319F60A0319F70A0130F8008B
:100AEE007808A1067A2D0030A5000030A400003051
:100AFE00A3000030A200730872047104700403197D
:100B0E00892D8A2DD12DA001A00A992D0130F03505
:100B1E00F10DF20DF30D890B8E2D0130F8007808D2
:100B2E00A007992DF31F9C2D9D2D8D2D9F2D9F2D53
:100B3E000130A235A30DA40DA50D890BA02D7308B0
:100B4E007702031DB42D72087602031DB42D7108B1
:100B5E007502031DB42D70087402031CB72DB82D39
:100B6E00C22D7008F4027108F53B7208F63B73084B
:100B7E00F73B2214C22D0130F336F20CF10CF00CBF
:100B8E00890BC32D0130A002031DCE2DCF2D9F2D1D
:100B9E00D12DD12D21080319D52DD62DE22DA20947
:100BAE00A309A409A509A20A0319A30A0319A40AF1
:100BBE000319A50AE22D2508F3002408F2002308E4
:100BCE00F1002208F000EB2D08002000CD004208B5
:100BDE0086008701403FC400413FC50044088400A1
:100BEE00450885001200253A031DFE2DFF2D992E76
:100BFE004208860087010130810741310318810ABE
:100C0E00E701E801EB01EC01FF30E900FF30EA00FB
:100C1E00420886008701403FC400413FC50044089A
:100C2E008400450885001200643A03191F2E202EF9
:100C3E00322E420886008701403FC400413FC50066
:100C4E0044088400450885001200693A031D302EC1
:100C5E00312E622E322E4208860087010130810726
:100C6E0041310318810A4308860087010108840078
:100C7E00850102308107003FC400013FC5004408D2
:100C8E00C9004508CA00890D893B8909CB00CC00F3
:100C9E004C08B0004B08AF004A08AE004908AD0042
:100CAE004D088631C126853120002E08C3002D083F
:100CBE00C200C02EC02E420886008701403FC400ED
:100CCE00413FC50044088400450885001200253ABE
:100CDE00031D722E732E8D2E420886008701013061
:100CEE00810741310318810A2530F2000030F300EC
:100CFE004D08C4004408F40083314523853101308A
:100D0E002000C2000030C300C02EC02E4208860054
:100D1E0087010130810741310318810AC201C301E5
:100D2E00C02EC02E420886008701403FC400413FBE
:100D3E00C50044088400450885000008C600C701A8
:100D4E004608F2004708F3004D08C8004808F400B2
:100D5E00833145238531200042088600870101300A
:100D6E00810741310318810A0130C2000030C300EF
:100D7E00C02E08002000B7003008BF002F08BE00AC
:100D8E002E08BD002D08BC00BF1BCE2ED02E01306C
:100D9E00D12E0030B100B2013108BA003208BB00CA
:100DAE003A083B040319DC2EDD2EE82EBC09BD09E2
:100DBE00BE09BF09BC0A0319BD0A0319BE0A0319ED
:100DCE00BF0AEA1BEB2EEC2EF02EFD30EB05FF30AA
:100DDE00EC056A08803AB10080303102031DF92E0D
:100DEE00013069020318FC2EFD2E032F0130200066
:100DFE00B5000030B600082F20006A08B60069085A
:100E0E00B5006808B9006708B8003A083B04031D2E
:100E1E00112F122F172F6B1D152F162F1B2F172F5C
:100E2E00FF30B807FF30B93D1F30C0000030C100A1
:100E3E004008BA3E860087018101732FFF302000E3
:100E4E00C007FF30C13D0030F3000030F20000302B
:100E5E00F1000A30F0003F08F7003E08F6003D08AA
:100E6E00F5003C08F4008431452486317108FC00FD
:100E7E007008FB008131DF2186317B08303E200077
:100E8E00B1004008BA3E8600870131088100FF306C
:100E9E00B507FF30B63DFF30B807FF30B93D003023
:100EAE00F3000030F2000030F1000A30F0003F088D
:100EBE00F7003E08F6003D08F5003C08F4008531C9
:100ECE005325863173082000BF007208BE007108DA
:100EDE00BD007008BC00732F4108803AB10080300D
:100EEE003102031D7C2F01304002031C7F2F802F07
:100EFE00AC2F20003F083E043D043C04031D882F08
:100F0E00892F252F3608803AB10080303102031D1B
:100F1E00922F013035020318952F962F252F200082
:100F2E003908803AB10080303102031DA02F013004
:100F3E003802031CA32FA42FAC2F2000EB18A82FD0
:100F4E00A92F252FAC2FAC2FAC2F20003A083B0435
:100F5E00031DB22FB32FB82F6B1DB62FB72FD52F62
:100F6E00B82FFF30C007FF30C13D3A083B04031DC8
:100F7E00C12FC22FC72F2B30B3000030B400CC2F9F
:100F8E002D30B3000030B400CC2F3308B100400830
:100F9E00BA3E8600870131088100D52F4008BA3E3F
:100FAE00B1003108A4003908A6003808A50037089A
:100FBE0083318923863120002508AE002408AD0038
:100FCE00E82F0800813137218731EE00653084002B
:100FDE00003085000930813148218731A0308400EE
:100FEE00003085003A30813148218731200084312C
:100FFE00C92C253464342034003425346434003450
:020000040001F9
:04000E00E4FFFFDE2E
:00000001FF
