:020000040000fa
:080000000002040000000000f2
:020000040000fa
:040008002a030000c7
:020000040000fa
:04000c0008030000e5
:020000040000fa
:040010001a030000cf
:020000040000fa
:0400140010030000d5
:020000040000fa
:0400180022030000bf
:020000040000fa
:04001c002a030000b3
:020000040000fa
:040020002a030000af
:020000040000fa
:040024002a030000ab
:020000040000fa
:040028002a030000a7
:020000040000fa
:04002c002a030000a3
:020000040000fa
:040030002a0300009f
:020000040000fa
:040034002a0300009b
:020000040000fa
:040038002a03000097
:020000040000fa
:04003c002a03000093
:020000040000fa
:040040002a0300008f
:020000040000fa
:040044002a0300008b
:020000040000fa
:040048002a03000087
:020000040000fa
:04004c002a03000083
:020000040000fa
:040050002a0300007f
:020000040000fa
:040054002a0300007b
:020000040000fa
:040058002a03000077
:020000040000fa
:04005c002a03000073
:020000040000fa
:040060002a0300006f
:020000040000fa
:040064002a0300006b
:020000040000fa
:040068002a03000067
:020000040000fa
:04006c002a03000063
:020000040000fa
:040070002a0300005f
:020000040000fa
:040074002a0300005b
:020000040000fa
:040078002a03000057
:020000040000fa
:04007c002a03000053
:020000040000fa
:040080002a0300004f
:020000040000fa
:040084002a0300004b
:020000040000fa
:040088002a03000047
:020000040000fa
:04008c002a03000043
:020000040000fa
:040090002a0300003f
:020000040000fa
:040094002a0300003b
:020000040000fa
:040098002a03000037
:020000040000fa
:04009c002a03000033
:020000040000fa
:0400a0002a0300002f
:020000040000fa
:0400a4002a0300002b
:020000040000fa
:0400a8002a03000027
:020000040000fa
:0400ac002a03000023
:020000040000fa
:0400b0002a0300001f
:020000040000fa
:0400b4002a0300001b
:020000040000fa
:0400b8002a03000017
:020000040000fa
:0400bc002a03000013
:020000040000fa
:0400c0002a0300000f
:020000040000fa
:0400c4002a0300000b
:020000040000fa
:0400c8002a03000007
:020000040000fa
:0400cc002a03000003
:020000040000fa
:0400d0002a030000ff
:020000040000fa
:0400d4002a030000fb
:020000040000fa
:0400d8002a030000f7
:020000040000fa
:0400dc002a030000f3
:020000040000fa
:0400e0002a030000ef
:020000040000fa
:0400e4002a030000eb
:020000040000fa
:0400e8002a030000e7
:020000040000fa
:0400ec002a030000e3
:020000040000fa
:0400f0002a030000df
:020000040000fa
:0400f4002a030000db
:020000040000fa
:0400f8002a030000d7
:020000040000fa
:0400fc002a030000d3
:020000040000fa
:040100002a030000ce
:020000040000fa
:040104002a030000ca
:020000040000fa
:040108002a030000c6
:020000040000fa
:04010c002a030000c2
:020000040000fa
:040110002a030000be
:020000040000fa
:040114002a030000ba
:020000040000fa
:040118002a030000b6
:020000040000fa
:04011c002a030000b2
:020000040000fa
:040120002a030000ae
:020000040000fa
:040124002a030000aa
:020000040000fa
:040128002a030000a6
:020000040000fa
:04012c002a030000a2
:020000040000fa
:040130002a0300009e
:020000040000fa
:040134002a0300009a
:020000040000fa
:040138002a03000096
:020000040000fa
:04013c002a03000092
:020000040000fa
:040140002a0300008e
:020000040000fa
:040144002a0300008a
:020000040000fa
:040148002a03000086
:020000040000fa
:04014c002a03000082
:020000040000fa
:040150002a0300007e
:020000040000fa
:040154002a0300007a
:020000040000fa
:040158002a03000076
:020000040000fa
:04015c002a03000072
:020000040000fa
:040160002a0300006e
:020000040000fa
:040164002a0300006a
:020000040000fa
:040168002a03000066
:020000040000fa
:04016c002a03000062
:020000040000fa
:040170002a0300005e
:020000040000fa
:040174002a0300005a
:020000040000fa
:040178002a03000056
:020000040000fa
:04017c002a03000052
:020000040000fa
:040180002a0300004e
:020000040000fa
:040184002a0300004a
:020000040000fa
:040188002a03000046
:020000040000fa
:04018c002a03000042
:020000040000fa
:040190002a0300003e
:020000040000fa
:040194002a0300003a
:020000040000fa
:040198002a03000036
:020000040000fa
:04019c002a03000032
:020000040000fa
:0401a0002a0300002e
:020000040000fa
:0401a4002a0300002a
:020000040000fa
:0401a8002a03000026
:020000040000fa
:0401ac002a03000022
:020000040000fa
:0401b0002a0300001e
:020000040000fa
:0401b4002a0300001a
:020000040000fa
:0401b8002a03000016
:020000040000fa
:0401bc002a03000012
:020000040000fa
:0401c0002a0300000e
:020000040000fa
:0401c4002a0300000a
:020000040000fa
:0401c8002a03000006
:020000040000fa
:0401cc002a03000002
:020000040000fa
:0401d0002a030000fe
:020000040000fa
:0401d4002a030000fa
:020000040000fa
:0401d8002a030000f6
:020000040000fa
:0401dc002a030000f2
:020000040000fa
:0401e0002a030000ee
:020000040000fa
:0401e4002a030000ea
:020000040000fa
:0401e8002a030000e6
:020000040000fa
:0401ec002a030000e2
:020000040000fa
:0401f0002a030000de
:020000040000fa
:0401f4002a030000da
:020000040000fa
:0401f8002a030000d6
:020000040000fa
:0401fc002a030000d2
:020000040000fa
:040208002a030000c5
:020000040000fa
:04020c002a030000c1
:020000040000fa
:040210002a030000bd
:020000040000fa
:040214002a030000b9
:020000040000fa
:040218002a030000b5
:020000040000fa
:04021c002a030000b1
:020000040000fa
:040220002a030000ad
:020000040000fa
:040224002a030000a9
:020000040000fa
:040228002a030000a5
:020000040000fa
:04022c002a030000a1
:020000040000fa
:040230002a0300009d
:020000040000fa
:040234002a03000099
:020000040000fa
:040238002a03000095
:020000040000fa
:04023c002a03000091
:020000040000fa
:040240002a0300008d
:020000040000fa
:040244002a03000089
:020000040000fa
:040248002a03000085
:020000040000fa
:04024c002a03000081
:020000040000fa
:040250002a0300007d
:020000040000fa
:040254002a03000079
:020000040000fa
:040258002a03000075
:020000040000fa
:04025c002a03000071
:020000040000fa
:040260002a0300006d
:020000040000fa
:040264002a03000069
:020000040000fa
:040268002a03000065
:020000040000fa
:04026c002a03000061
:020000040000fa
:040270002a0300005d
:020000040000fa
:040274002a03000059
:020000040000fa
:040278002a03000055
:020000040000fa
:04027c002a03000051
:020000040000fa
:040280002a0300004d
:020000040000fa
:040284002a03000049
:020000040000fa
:040288002a03000045
:020000040000fa
:04028c002a03000041
:020000040000fa
:040290002a0300003d
:020000040000fa
:040294002a03000039
:020000040000fa
:040298002a03000035
:020000040000fa
:04029c002a03000031
:020000040000fa
:0402a0002a0300002d
:020000040000fa
:0402a4002a03000029
:020000040000fa
:0402a8002a03000025
:020000040000fa
:0402ac002a03000021
:020000040000fa
:0402b0002a0300001d
:020000040000fa
:0402b4002a03000019
:020000040000fa
:0402b8002a03000015
:020000040000fa
:0402bc002a03000011
:020000040000fa
:0402c0002a0300000d
:020000040000fa
:0402c4002a03000009
:020000040000fa
:0402c8002a03000005
:020000040000fa
:0402cc002a03000001
:020000040000fa
:0402d0002a030000fd
:020000040000fa
:0402d4002a030000f9
:020000040000fa
:0402d8002a030000f5
:020000040000fa
:0402dc002a030000f1
:020000040000fa
:0402e0002a030000ed
:020000040000fa
:0402e4002a030000e9
:020000040000fa
:0402e8002a030000e5
:020000040000fa
:0402ec002a030000e1
:020000040000fa
:0402f0002a030000dd
:020000040000fa
:0402f4002a030000d9
:020000040000fa
:0402f8002a030000d5
:020000040000fa
:0402fc002a030000d1
:020000040000fa
:040300002a030000cc
:020000040000fa
:040304002a030000c8
:020000040000fa
:040308002a030000c4
:020000040000fa
:04030c002a030000c0
:020000040000fa
:040310002a030000bc
:020000040000fa
:040314002a030000b8
:020000040000fa
:040318002a030000b4
:020000040000fa
:04031c002a030000b0
:020000040000fa
:040320002a030000ac
:020000040000fa
:040324002a030000a8
:020000040000fa
:040328002a030000a4
:020000040000fa
:04032c002a030000a0
:020000040000fa
:040330002a0300009c
:020000040000fa
:040334002a03000098
:020000040000fa
:040338002a03000094
:020000040000fa
:04033c002a03000090
:020000040000fa
:040340002a0300008c
:020000040000fa
:040344002a03000088
:020000040000fa
:040348002a03000084
:020000040000fa
:04034c002a03000080
:020000040000fa
:040350002a0300007c
:020000040000fa
:040354002a03000078
:020000040000fa
:040358002a03000074
:020000040000fa
:04035c002a03000070
:020000040000fa
:040360002a0300006c
:020000040000fa
:040364002a03000068
:020000040000fa
:040368002a03000064
:020000040000fa
:04036c002a03000060
:020000040000fa
:040370002a0300005c
:020000040000fa
:040374002a03000058
:020000040000fa
:040378002a03000054
:020000040000fa
:04037c002a03000050
:020000040000fa
:040380002a0300004c
:020000040000fa
:040384002a03000048
:020000040000fa
:040388002a03000044
:020000040000fa
:04038c002a03000040
:020000040000fa
:040390002a0300003c
:020000040000fa
:040394002a03000038
:020000040000fa
:040398002a03000034
:020000040000fa
:04039c002a03000030
:020000040000fa
:0403a0002a0300002c
:020000040000fa
:0403a4002a03000028
:020000040000fa
:0403a8002a03000024
:020000040000fa
:0403ac002a03000020
:020000040000fa
:0403b0002a0300001c
:020000040000fa
:0403b4002a03000018
:020000040000fa
:0403b8002a03000014
:020000040000fa
:0403bc002a03000010
:020000040000fa
:0403c0002a0300000c
:020000040000fa
:0403c4002a03000008
:020000040000fa
:0403c8002a03000004
:020000040000fa
:0403cc002a03000000
:020000040000fa
:0403d0002a030000fc
:020000040000fa
:0403d4002a030000f8
:020000040000fa
:0403d8002a030000f4
:020000040000fa
:0403dc002a030000f0
:020000040000fa
:0403e0002a030000ec
:020000040000fa
:0403e4002a030000e8
:020000040000fa
:0403e8002a030000e4
:020000040000fa
:0403ec002a030000e0
:020000040000fa
:0403f0002a030000dc
:020000040000fa
:0403f4002a030000d8
:020000040000fa
:0403f8002a030000d4
:020000040000fa
:0403fc002a030000d0
:020000040000fa
:100400002f8220000e7f22000e01880000000000d5
:10041000000020000000e000020032000001200087
:1004200020028800140007008c0007000000e00094
:1004300003003a00804f2000010020000200370036
:100440000000200001002000810f70000100320038
:1004500014000700000020000000e000020032004d
:100460000000020000000000b003020000000000d5
:100470000040da000000fe004440a90020002000f7
:100480000000e0000300320010002000900188000e
:100490004440a800000006008a1f78008b1f7800e7
:1004a00000000600a1028800800478000000eb0034
:1004b0001f003700e284440054a0b4009905ba003c
:1004c000e284440054a0b4009906ba00e2844400d7
:1004d00054a0b4000006eb00476fde00fd07b20039
:1004e000ae018800636ce10003003a00eaff0700f8
:1004f0000000eb000e003700606ce10008003a00dd
:10050000004deb000a05e800020039003420ec0041
:100510000af0a0008b05e900f9ff3e000400370057
:100520006168e100010032000086eb000b0007006b
:1005300019c7ba001905ba000e04e00003003a001a
:100540000a00e000dbff3a0000000600fe07b200f0
:10055000ae0288008a047800f5ff37000cd0a300b3
:10056000e20f4d001c00390089027800354dba00b9
:100570000a05e800020039003420ec000af0a0006f
:100580008b05e9000f003200254dba000a05e8008e
:10059000020039003420ec000af0a0008b05e900cd
:1005a000080032000c00e0000600320015cdba0051
:1005b0000a05e800020039003420ec000af0a0002f
:1005c0008b05e9008984e80054a0b4000b00e0002a
:1005d000e2ff3a00000006009902ba00055d7800cb
:1005e0008b05e900f7ff3200c82ade00055d7800c0
:1005f0008b05e900f3ff32000c00e000f1ff320050
:1006000019ddba00eeff37006003040000000000af
:100610003600f8008020a9000000eb00e900070088
:100620003600f800eb0007008040a9001000200011
:10063000e40007003600f8008060a90020002000d8
:10064000e00007003600f8008080a900300020009c
:10065000dc0007000040da000000fe00000005009a
:020000040000fa
:100660000600fa002007980000002300000f780021
:100670002e0090001e0f7000013620001e00780032
:10068000010001001e0090000080fa00000006003a
:100690000600fa002007980000002b00000f7800e9
:1006a0002e0090001e0f7000013620001e00780002
:1006b000010001001e0090000080fa00000006000a
:1006c0000800fa003007980000002800000f7800aa
:1006d000be009000110798001c0037001e0090001b
:1006e0001e0060000000e00002003a00f502a900d0
:1006f00001003700f502a8000000eb002007980079
:100700000000eb00200798000000eb002007980095
:100710000000eb0020079800f4c2a8000000eb00e6
:10072000200798000000eb00200798000000eb0075
:10073000200798000000eb0020079800f4c2a900f1
:100740001e0078000000d100000f78001e00780025
:100750000000e000e1ff3a000080fa00000006001f
:100760000200fa00aa000700f522a800f582a800fe
:10077000f5a2a80000f4210001002000830007007a
:10078000f522a90080702000b5ff0700000f780057
:10079000f522a80000f42100010020007b000700e2
:1007a000f522a90040382000b9ff0700000f7800ab
:1007b000f522a80000f421000100200073000700ca
:1007c000f582a90000e12000a5ff0700000f7800d6
:1007d000f582a80000f42100010020006b00070052
:1007e000f582a90080702000a9ff0700000f7800a3
:1007f000f582a80000f4210001002000630007003a
:10080000f5a2a9004038200095ff0700000f7800ee
:10081000f5a2a80000f42100010020005b00070001
:10082000f5a2a90000e1200099ff0700000f780061
:10083000f5a2a80000f421000100200053000700e9
:10084000ffff37000000fa00c422ef00cc22ef00c7
:10085000d422ef00dc22ef00e422ef00ec22ef00d4
:10086000f422ef00f06f2c00001688000080eb00ef
:1008700040168800e0012900801688000080eb0007
:10088000c0168800f03f200000178800f01f2300ea
:1008900040178800f0082c00801788005620ef00d1
:1008a0005820ef005a20ef005c20ef005e20ef00a0
:1008b0006020ef006e20ef007020ef007220ef004c
:1008c0007420ef007620ef007820ef00c622ef00c2
:1008d000ce22ef00d622ef00de22ef00e622ef006c
:1008e000ee22ef00f622ef00002c20000027880007
:1008f000c0ff2f001027880000012000202788005b
:1009000000cc200030278800002f200040278800de
:10091000003c2000602788000080fa0000000600ec
:100920000000fa0000102300203a88004827ef005a
:100930004e27ef007027ef007227ef007427ef00bb
:100940007627ef007a27ef007c27ef0022002000b7
:1009500080072000a109200033742000804978001e
:1009600081497800824978000001eb006004200092
:1009700071052000237420008049780081497800a7
:0c098000824978000080fa0000000600a8
:020000040000fa
:10098c00f03fb1000180b10006003500ee03090014
:10099c0000000000403fb1000180b100fbff3d00b2
:1009ac001000b000203fb0000200350000800900ac
:0809bc0000000000000006002d
:020000040000fa
:1009c400000f78009e00780001408800ffff370088
:1009d4000000fa002080200080077800a081200019
:0c09e400000188000080fa0000000600fe
:020000040000fa
:1009f0000208000020000000800000000008000045
:100a00000200000082000000ffff00000000000064
:020000040000fa
:100a10000000fa008bff070007000700c0ff070077
:100a20000080fa00000006000000fa00bcff07008a
:100a30000080fa00000006000000fa000080fa00c2
:040a400000000600ac
:020000040000fa
:020000040002f8
:04aff0003fff00001f
:020000040000fa
:020000040002f8
:04aff4007fee0000ec
:020000040000fa
:020000040002f8
:04aff800967a000045
:020000040000fa
:020000040002f8
:04affc009f3f000073
:00000001FF
