:020000001028C6
:10000800FE00030EF1000408F2000A08F300831250
:1000180003137F08F4007D288B288312031306122C
:10002800F501F601F7012A280130F5070318F60A49
:100038000030F60776087504031D232824282A288B
:100048000130F0007008F7072A282A287708031DCE
:100058002E281828831203130616F501F601F70156
:1000680047280130F5070318F60A0030F607760826
:100078007504031D4028412847280130F000700806
:10008800F707472847287708031D4B283528831288
:1000980003130612F501F601F70164280130F5078C
:1000A8000318F60A0030F60776087504031D5D2864
:1000B8005E2864280130F0007008F7076428642877
:1000C8007708031D68285228831203130616883000
:1000D8008B006E280800831603138E016F3086008C
:1000E80083120313061688308B0063007928792859
:1000F80010281120740883120313FF0073088A0064
:1001080072088400710E8300FE0E7E0E0900F50150
:08011800F601F70183016F28D5
:00000001FF
