:020000001028C6
:10000800FE00030EF5000408F6000A08F700831244
:1000180003137F08F80049291128F901FA0183130D
:100028002030840065305F2183011A280B30831645
:1000380003138E000730831203139F0002308316C8
:100048000313860083120313EC0105306C020318B6
:10005800552806140630EA001330E900B130E800EC
:10006800E80B3428E90B3428EA0B34283B288312A0
:10007800031306100630EA001330E900B130E80037
:10008800E80B4428E90B4428EA0B44284B280130A4
:1000980083120313E8006808EC0705306C02031CA0
:1000A8002D288030E5002530E600762025218312B2
:1000B8000313E8006808EB006B0803195A280121AC
:1000C80083120313E8006808ED006D08523A03191B
:1000D80006146D08423A031906106D086721831249
:1000E80003135A28FF30F90083120313E700670847
:1000F800FA008928193085288130852840308528DC
:100108002A30831603139900AC2883126608253A0F
:10011800031998286E3A03199D28DD3A0319A22875
:10012800773A0319A728AC286508803A03197E286E
:10013800AC286508003A03198028AC286508003AFD
:1001480003198228AC286508003A03198428AC28CA
:10015800831603131813981618121815831203130D
:100168009817181318169811831603138C160B1763
:100178008B170800831203131A08F0007008F400A4
:1001880079083F3A03197A080319E1287A08F00038
:10019800F101F01BF10301307907F200F3010318B4
:1001A800F30AF91BF30371087306031DDD287008B1
:1001B8007206031DE928831203130130F00070084A
:1001C800FA077A08403A0319FA0179083F3A031DF9
:1001D800EF28F901F3280130F0007008F9077408D6
:1001E800F0007908203E84007008831380007A08A4
:1001F800FF3A031D0800FA0108007A08FF3A031DB8
:100208000729003008007A08203E8400831300087C
:1002180083120313E5006508E6007A087906031DD2
:100228001B29FF30F900E5006508FA002329013091
:10023800E5006508FA077A08403A0319FA016608E2
:1002480008007A08FF3A031D2B29003008007A08B5
:10025800803A83120313E5007908803AE50203180F
:100268003A297A03FF3A7907013E08007908803A6B
:10027800E5007A08803AE502031847297A03FF3A2D
:100288007907413E080001300800831603138C1ECD
:100298005229831203138C1E5229BE207808831218
:1002A8000313FF0077088A0076088400750E830020
:1002B800FE0E7E0E090064008001840A04060319FC
:1002C80000340406602983120313E5000C1E6A2912
:0602D80065089900080012
:00000001FF
