:020000001028C6
:10000800FE00030EF0000408F1000A08F200831253
:1000180003137F08F3001C29382983120313A00156
:10002800A00AA101A10AA401A501A201A301FF3010
:10003800831603138500860181308100A0308B0070
:100048008E309F004030831203139F0006148610E1
:1000580086112E288312031327082604031D35282A
:1000680036282E282008013A031D3B283C280E2953
:100078001F141F153F281F19422843283F284428CA
:100088001E08F400F5017408A4007508A5002508E9
:10009800F5002408F4007408F500F4017408A400BD
:1000A8007508A500831603131E088312031324077B
:1000B800F40025080318250AF5007408A40075083B
:1000C800A5002508803AFF0081307F02031D6E28B5
:1000D80023302402031871287228812883120313FD
:1000E8002508803AFF0080307F02031D7D288C3070
:1000F80024020318802881288B2883120313861072
:100108001430A6000030A700A101A10A8B28831291
:1001180003132508803AFF0080307F02031D9628CC
:10012800C8302402031C99289A28B628831203137E
:100138002508803AFF0080307F02031DA528F13092
:1001480024020318A828A928B628831203138614A2
:10015800A1012308A701A7072208A601A6070610E0
:10016800A001B628831203132508803AFF008030C7
:100178007F02031DC128C83024020318C428C528DB
:10018800E52883120313A108031DCB28CC28E528F2
:100198002409F4002509F500F40A0319F50A74087E
:1001A800C83EA20075080318013E003EA3002308BC
:1001B800A701A7072208A601A60786110610A00115
:1001C800E528831203132508803AFF0080307F0258
:1001D800031DF028F1302402031CF328F4282E28EC
:1001E80083120313A108031DFA28FB282E282408CC
:1001F800103EA20025080318013EFF3EA300230875
:10020800A701A7072208A601A60786150610A001C0
:100218002E282E280614A001A00A2308A701A70744
:100228002208A601A6072E282E282E282E281028B8
:100238002608FF3EA60027080318013EFF3EA70038
:10024800A71F272928292A29A601A70181010B11FF
:100258002D297308FF0072088A0071088400700E47
:100268008300FE0E7E0E0900A601A7018301112856
:00000001FF
