:0600000000F048EF1CF0C7
:10388E00FFFF00EE80F0500EEE6AE806FDE1000E3E
:10389E00F86E00012DEF1DF0FFFF01500302F3CF74
:1038AE0005F0F4CF06F001500402F3500626025044
:1038BE000302F350062605C001F006C002F0120006
:1038CE00FFFFFFFF0AD0030E036EEC0EE82EFED7AD
:1038DE00032EFCD70106D8A002060250800AF36E12
:1038EE00800EF35C010ED8B4015CD8A01200FFFF6D
:1038FE00EAD7FFFFFFFF02C006F001C005F002D0BD
:10390E00054A062A05C0D9FF06C0DAFFDF50D8A443
:10391E00F7D701C003F002C004F0031E041E034AD1
:10392E00042A05500324016E06500420026E120074
:10393E00FFFFFFFF000E066E000E056E0450031013
:10394E00D8B41CD0010E076E04D0D89003360436BE
:10395E00072A04AEFAD7D890053606360350015C16
:10396E0004500258D8A005D00350015E0450025AEC
:10397E000580D89004320332072EEDD705C001F032
:10398E0006C002F01200FFFFFFFF000E826E000E57
:10399E00146E000E136E050E135C000E1458D8B084
:1039AE0050D0000E106E010E0F6E000E126E000E35
:1039BE00116E080E115C000E1258D8B03FD007C021
:1039CE0001F008C002F0000E046E0A0E036E53ECF6
:1039DE001CF0800E096E000E0A6E01500926025070
:1039EE000A22D8901334D96E1434DA6E0950D926BF
:1039FE000A50DA22DECF0BF0DDCF0CF00F500B1495
:103A0E000D6E10500C140E6E0E500D10D8A405D065
:103A1E00829000F0828200F082920E500D10D8B487
:103A2E0005D0828000F0828200F08292D8900F340E
:103A3E000F6E1034106E114A122ABBD7134A142A75
:103A4E00AAD7828400F082941200FFFFFFFF060EB9
:103A5E00C16E000E926E000E936E000E946E000EEE
:103A6E00966E000E956E000E836E000E826E000E28
:103A7E00816E000E556E010E546ED90EF66E7F0ECF
:103A8E00F76E20EE1DF0250E0900FFFFF5CFDEFFCD
:103A9E00E82EFAD7000E026E1D0E016E81EC1CF0A0
:103AAE0001C046F002C047F0000E536E000E526E7B
:103ABE00060E525C000E5358D8B012D08468030E16
:103ACE00026EE80E016E68EC1CF0000E846E030EA2
:103ADE00026EE80E016E68EC1CF0524A532AE8D7CB
:103AEE00000E536E000E526E000E4D6E000E4C6E9A
:103AFE0079D2000E516E000E506E62D2000E576ECD
:103B0E00000E566E080E565C000E5758D8B026D2D0
:103B1E001D0E4C24D96E000E4D20DA6EDF50156E40
:103B2E001550426E436A56C015F057C016F0D89025
:103B3E0015361636000E176EFE0E186E42C019F0B0
:103B4E0043C01AF0193A1A3AF00E1A1619500F0B02
:103B5E001A12F00E19161750192618501A22E90EBD
:103B6E001B6E790E1C6E19501B261A501C221550F6
:103B7E001B2616501C221BC0F6FF1CC0F7FF0900A7
:103B8E00FFFFF5CF44F00A00FFFFF5CF45F054508C
:103B9E000008156E080E152656C001F057C002F02B
:103BAE00000E046E0A0E036E53EC1CF0060E012678
:103BBE00000E02220001800E0124D96E0001000EBB
:103BCE000220DA6EDECF16F0DDCF17F0152A03D005
:103BDE00D89017321632152EFBD754C018F056C097
:103BEE0001F057C002F0000E046E0A0E036E53EC85
:103BFE001CF0080E0126000E02220001800E012488
:103C0E00D96E0001000E0220DA6EDECF19F0DDCF84
:103C1E001AF0182A03D0D89019361A36182EFBD758
:103C2E001650191217501A1256C001F057C002F052
:103C3E00000E046E0A0E036E53EC1CF0080E0126E5
:103C4E00000E02220001800E0124D96E0001000E2A
:103C5E000220DA6E19C0DEFF1AC0DDFF54500008D4
:103C6E00156E080E152656C001F057C002F0000E54
:103C7E00046E0A0E036E53EC1CF0040E0126000EA9
:103C8E0002220001800E0124D96E0001000E0220D6
:103C9E00DA6EDECF16F0DDCF17F0152A03D0D890EE
:103CAE0017321632152EFBD754C018F056C001F03D
:103CBE0057C002F0000E046E0A0E036E53EC1CF099
:103CCE00060E0126000E02220001800E0124D96E7E
:103CDE000001000E0220DA6EDECF19F0DDCF1AF0F1
:103CEE00182A03D0D89019361A36182EFBD716502C
:103CFE00191217501A1256C001F057C002F0000EDA
:103D0E00046E0A0E036E53EC1CF0060E0126000E16
:103D1E0002220001800E0124D96E0001000E022045
:103D2E00DA6E19C0DEFF1AC0DDFF54500008156EA2
:103D3E00080E152656C001F057C002F0000E046E94
:103D4E000A0E036E53EC1CF0020E0126000E022228
:103D5E000001800E0124D96E0001000E0220DA6EE1
:103D6E00DECF16F0DDCF17F0152A03D0D89017321C
:103D7E001632152EFBD754C018F056C001F057C09E
:103D8E0002F0000E046E0A0E036E53EC1CF0040ECD
:103D9E000126000E02220001800E0124D96E0001C0
:103DAE00000E0220DA6EDECF19F0DDCF1AF0182ADF
:103DBE0003D0D89019361A36182EFBD71650191272
:103DCE0017501A1256C001F057C002F0000E046EC2
:103DDE000A0E036E53EC1CF0040E0126000E022296
:103DEE000001800E0124D96E0001000E0220DA6E51
:103DFE0019C0DEFF1AC0DDFF54500008156E080E04
:103E0E00152656C001F057C002F0000E046E0A0EC1
:103E1E00036E53EC1CF00001800E0124D96E0001DC
:103E2E00000E0220DA6EDECF16F0DDCF17F0152A67
:103E3E0003D0D89017321632152EFBD754C018F077
:103E4E0056C001F057C002F0000E046E0A0E036E4B
:103E5E0053EC1CF0020E0126000E02220001800E11
:103E6E000124D96E0001000E0220DA6EDECF19F0A9
:103E7E00DDCF1AF0182A03D0D89019361A36182E1C
:103E8E00FBD71650191217501A1256C001F057C010
:103E9E0002F0000E046E0A0E036E53EC1CF0020EBE
:103EAE000126000E02220001800E0124D96E0001AF
:103EBE00000E0220DA6E19C0DEFF1AC0DDFF505070
:103ECE005402F35054240008156E080E152644C0F3
:103EDE0016F045C017F0152A03D0D89017321632B7
:103EEE00152EFBD754C018F056C001F057C002F083
:103EFE00000E046E0A0E036E53EC1CF00001800ED1
:103F0E000124D96E0001000E0220DA6EDECF19F008
:103F1E00DDCF1AF0182A03D0D89019361A36182E7B
:103F2E00FBD71650191217501A1256C001F057C06F
:103F3E0002F0000E046E0A0E036E53EC1CF000012C
:103F4E00800E0124D96E0001000E0220DA6E19C017
:103F5E00DEFF1AC0DDFF564A572AD4D5000E496E31
:103F6E00050E486E000E4B6E000E4A6E21D0000EEE
:103F7E004F6E010E4E6E000E536E000E526E080EF8
:103F8E00525C000E5358D8B011D052C007F053C037
:103F9E0008F0CBEC1CF04EC081FFD8904E344E6E24
:103FAE004F344F6E00F0524A532AE9D74A4A4B2AF1
:103FBE0048504A5C49504B58D8A0D9D7504A512A3C
:103FCE00000E026E080E016E54C003F055C004F0D0
:103FDE00A0EC1CF00150505C02505158D8A08ED568
:103FEE004C4A4D2A46504C5C47504D58D8B07CD563
:023FFE0080D56C
:1079E800000000000000000000000000000000008F
:1079F8000004000400040004000400040000000463
:107A0800000A000A000A0000000000000000000050
:107A18000000000A001F000A001F000A001F000AD9
:107A28000007000C0014000C000600050006001CEE
:107A38000019001A0002000400040008000B0013DB
:107A48000006000A001200140009001600160009BA
:107A58000004000400040000000000000000000012
:107A680000020004000800080008000800040002E2
:107A780000080004000200020002000200040008DE
:107A88000015000E001F000E001500000000000089
:107A98000000000000040004001F000400040000AF
:107AA80000000000000000000000000600040008BC
:107AB8000000000000000000000E000000000000B0
:107AC80000000000000000000000000000000004AA
:107AD8000001000200020004000400080008001071
:107AE800000E001100130011001500110019000EFE
:107AF8000004000C00140004000400040004001F2B
:107B0800000E001100110002000400080010001F00
:107B1800000E00110001000E000100010011000E0E
:107B28000010001000140014001F000400040004DA
:107B3800001F00100010001E000100010001001EBF
:107B4800000700080010001E001100110011000EAF
:107B5800001F0001000100010002000400080010DD
:107B6800000E00110011000E001100110011000E8E
:107B7800000E00110011000F0001000100010001BA
:107B880000000004000400000000000400040000DD
:107B980000000004000400000000000400040008C5
:107BA80000010002000400080008000400020001AF
:107BB800000000000000001E0000001E0000000081
:107BC8000010000800040002000200040008001071
:107BD800000E00110011000200040004000000045F
:107BE800000E001100110015001500110011001EF3
:107BF800000E001100110011001F001100110011EA
:107C0800001E00110011001E001100110011001EBD
:107C180000070008001000100010001000080007FE
:107C2800001C001200110011001100110012001CAC
:107C3800001F00100010001E001000100010001F90
:107C4800001F00100010001E00100010001000108F
:107C5800000E001100100010001700110011000E96
:107C6800001100110011001F001100110011001176
:107C7800001F000400040004000400040004001FA6
:107C8800001F00040004000400040004001400089D
:107C98000011001200140018001400120011001145
:107CA8000010001000100010001000100010001F3D
:107CB8000011001B001F0015001100110011001118
:107CC8000011001900190015001500130013001108
:107CD800000E001100110011001100110011000E1A
:107CE800001E00110011001E0010001000100010EE
:107CF800000E001100110011001100150013000FF3
:107D0800001E00110011001E0014001200110011C5
:107D1800000E001100100008000600010011000EFE
:107D2800001F000400040004000400040004000410
:107D38000011001100110011001100110011000EB6
:107D4800001100110011001100110011000A0004B7
:107D58000011001100110011001100150015000A92
:107D680000110011000A00040004000A00110011AB
:107D780000110011000A00040004000400040004BB
:107D8800001F000100020004000800100010001F7E
:107D9800000E000800080008000800080008000E8F
:107DA800001000080008000400040002000200019E
:107DB800000E000200020002000200020002000E93
:107DC8000004000A0011000000000000000000008C
:107DD8000000000000000000000000000000001F7C
:107DE800000800040000000000000000000000007F
:107DF800000000000000000E001200120012000F28
:107E08000000001000100010001C00120012001CDE
:107E1800000000000000000E001000100010000E0E
:107E28000000000100010001000700090009000727
:107E3800000000000000001C0012001E0010000ED0
:107E4800000000030004000400060004000400040D
:107E58000000000E000A000A000E00020002000CDA
:107E68000000001000100010001C00120012001288
:107E780000000000000400000004000400040004E6
:107E88000000000200000002000200020002000CD4
:107E98000000001000100014001800180014001052
:107EA8000000001000100010001000100010000C5E
:107EB800000000000000000A001500110011001168
:107EC8000000000000000014001A00120012001246
:107ED800000000000000000C001200120012000C4C
:107EE8000000001C00120012001C001000100010FE
:107EF8000000000E00120012000E00020002000135
:107F0800000000000000000A000C0008000800083B
:107F180000000000000E0010000800040002001E0F
:107F2800000000100010001C001000100010000CD1
:107F38000000000000000012001200120012000CE5
:107F4800000000000000001100110011000A0004E8
:107F58000000000000000011001100110015000AC7
:107F68000000000000000011000A0004000A0011CF
:107F7800000000000011000A0004000800080010BA
:107F8800000000000000001F000200040008001F9D
:107F980000020004000400040008000400040002B9
:107FA80000040004000400040004000400040004A9
:107FB8000008000400040004000200040004000893
:107FC800000000000000000A001E0014000000006D
:107FD8000057454C434F4D4520544F204541474C91
:107FE8004520434F4E54524F4C2053595354454DFE
:087FF800532E2E2E2000000084
:020000040030CA
:04000000FF220D0EC0
:0200060081FF78
:00000001FF
