:0600000000F00FEF18F004
:10300C00FFFFFFFF016E9EA8FED701C0ADFF1200AF
:10301C00FFFF00EE54F00C0EEE6AE806FDE1000135
:10302C008CEF1DF0FFFF949C948EAC98AC9CAC8400
:10303C00AC8AAB8EAB9CAB88AF681200FFFFFFFF76
:10304C000BD00A0E036EBE0EE82EFED7032EFCD755
:10305C0000D00106D8A002060250800AF36E800E42
:10306C00F35C010ED8B4015CD8A01200FFFFE9D7C5
:10307C00FFFFFFFFFFFF000E181A000E191A800E3B
:10308C001A1A15C009F016C00AF017C00BF018C0B8
:10309C000CF019C00DF01AC00EF0B4EC1CF009C005
:1030AC0015F00AC016F00BC017F01200FFFFFFFF5F
:1030BC00000E596E000E586E000E576E000E566EB6
:1030CC00000E556E000E546E000E5E6E000E5D6EA0
:1030DC00000E5C6E000E3E6E190E3D6E020E3F6EC3
:1030EC003AEC1BF01200FFFFFFFF000E036E000E08
:1030FC00026E06D00A0E00F0E82EFDD7024A032A13
:10310C009EBA06D0500E025CC30E0358D8A0F2D75C
:10311C00500E025CC30E0358D8A003D08282580E06
:10312C0004D08292AECF01F001501200FFFFFFFFDE
:10313C00000E0C6E0A50800AF36E800EF35C000ECB
:10314C00D8B4095CD8B006D0096C0A1ED8B00A2ACB
:10315C00010E0C6E09C001F00AC002F0036A8E0E5B
:10316C00046E0CC005F0A6EC19F001C009F002C009
:10317C000AF003C00BF01200FFFFFFFF21D00A0E74
:10318C005F6F818200F000F000F000F000F000F0C2
:10319C0000F000F000F0819200F000F000F000F080
:1031AC0000F000F05F2FC7EF18F05C6603D0190E2B
:1031BC00E82EFED75C04D8A403D0960EE82EFED7DA
:1031CC0080A4DDD781921200FFFFFFFF2FD00A0EE3
:1031DC005F6F818200F000F000F000F000F000F072
:1031EC0000F000F000F0819200F000F000F000F030
:1031FC0000F000F05F2FEFEF18F05E6603D000F0E8
:10320C0000D000D05E04D8A403D00A0EE82EFED75E
:10321C005E50020AD8A403D00F0EE82EFED75E50E3
:10322C00030AD8A403D0190EE82EFED780A0CFD75E
:10323C0081921200FFFFFFFF000E026E000E046E63
:10324C00000E036E2ED0026628D0050E5F6F8182B1
:10325C0000F000F000F000F000F000F000F000F0E2
:10326C0000F0819200F000F000F000F000F000F0AF
:10327C005F2F2DEF19F0010E0324036E000E0420B6
:10328C00046E510E035CC30E0458D8B080AA05D04E
:10329C00010E026E540E07EC18F08192960EE82E79
:1032AC00FED780B61200FFFFCED7FFFFFFFF03AEA5
:1032BC0016D001C007F002C008F003C009F0071EC9
:1032CC00081E091E072A000E08220922000E0724D8
:1032DC00016E000E0820026E800E0920036E06AEF1
:1032EC0016D004C007F005C008F006C009F0071E90
:1032FC00081E091E072A000E08220922000E0724A8
:10330C00046E000E0820056E800E0920066E000E5D
:10331C00011A000E021A800E031A000E041A000E77
:10332C00051A800E061A0450015C0550025806500E
:10333C000358D8B002D0D89001D0D8801200FFFF2B
:10334C00FFFF0450D8B405D0015002100310D8A4CC
:10335C000CD0000E016E000E026E000E036E44D0F7
:10336C00042AD890033202320132000E0114066E88
:10337C00000E0214076EFE0E0314086E06500710A2
:10338C000810D8B40CD0ECD7042A010E0126000E7C
:10339C000222000E0322D890033202320132000EB8
:1033AC000114066E000E0214076EFF0E0314086E55
:1033BC00065007100810D8B406D0E6D70406D890EB
:1033CC0001360236033602AEF9D704A0029ED8901D
:1033DC000432045003120550D8A4038E01C001F02E
:1033EC0002C002F003C003F01200FFFFFFFF57D032
:1033FC005D661AD0010E5F6F818200F000F000F064
:10340C0000F000F000F000F000F000F0819200F00D
:10341C0000F000F000F000F000F05F2F02EF1AF067
:10342C000A0E00F0E82EFDD75D04D8A41AD0030EC6
:10343C005F6F818200F000F000F000F000F000F00F
:10344C0000F000F000F0819200F000F000F000F0CD
:10345C0000F000F05F2F1FEF1AF00A0E00F0E82EBC
:10346C00FDD75D50020AD8A41AD0030E5F6F81827B
:10347C0000F000F000F000F000F000F000F000F0C0
:10348C0000F0819200F000F000F000F000F000F08D
:10349C005F2F3DEF1AF00A0E00F0E82EFDD780A248
:1034AC00A7D781921200FFFFFFFF30C032F0336AC2
:1034BC00346A2F34323601E3338032503C6E3C6632
:1034CC0001D038D0170E326E2EC033F02FC034F02E
:1034DC0030C035F03228366E04D0D89035323432C4
:1034EC003332362EFAD73350376E2F8EFF0E2E1600
:1034FC00FF0E2F16000E30162E50386E2F50396ED0
:10350C0030503A6E3B6A8E0E3C5E3CAE10D03C5056
:10351C00800A326EF10E800A325CD8A00BD0D890A3
:10352C003B323A32393238323C3EF9D714D0170E8E
:10353C003C640FD0000E2E6E000E2F6E000E306EFF
:10354C00000E316E1BD0D890383639363A363B36B1
:10355C003C063C66F8D73750D8B408D03B1E3A1E10
:10356C00391E386C000E39223A223B2238C02EF01C
:10357C0039C02FF03AC030F03BC031F01200FFFFE1
:10358C00FFFF0BC00FF0106A116A0A340F3601E30B
:10359C0010800F50156E156601D00CD00EC00FF0B8
:1035AC00106A116A0D340F3601E310800F50176E3C
:1035BC00176607D0000E096E000E0A6E000E0B6E19
:1035CC0051D017507B0F15260BC017F00E50171A41
:1035DC00800E17160A8E0D8EFF0E0C16FF0E0D1692
:1035EC00000E0E16000E126E000E136E000E146EF0
:1035FC00070E166E09A006D00C5012260D50132281
:10360C000E501422D8900B320A320932D8900C3654
:10361C000D360E36162EEED7090E166E09A006D0F4
:10362C000C5012260D5013220E501422D8900B322F
:10363C000A320932D890143213321232162EEED7C7
:10364C0012C001F013C002F014C003F015C004F056
:10365C0017C005F0A6EC19F001C009F002C00AF081
:10366C0003C00BF01200FFFFFFFF3F04D8B404D0DF
:10367C003F50030AD8A423D03DC009F03EC00AF045
:10368C009DEC18F009C01BF00AC01CF00BC01DF01B
:10369C00E3EC1BF01BC02EF01CC02FF01DC030F053
:1036AC005AEC1AF02EC040F02FC041F030C042F05E
:1036BC0031C043F04050476E47500A0D49D03F503F
:1036CC00040AD8A423D03DC009F03EC00AF09DECFA
:1036DC0018F009C01BF00AC01CF00BC01DF0E3EC85
:1036EC001BF01BC02EF01CC02FF01DC030F05AEC8C
:1036FC001AF02EC040F02FC041F030C042F031C063
:10370C0043F04050476E47500F0D22D03DC009F09A
:10371C003EC00AF09DEC18F009C01BF00AC01CF06A
:10372C000BC01DF0E3EC1BF01BC02EF01CC02FF0E7
:10373C001DC030F05AEC1AF02EC040F02FC041F0F2
:10374C0030C042F031C043F04050476E4750110D2D
:10375C00F3CF47F0471E8194050E00F0E82EFDD7FD
:10376C00110E446E000E466E0ED044504424446E2E
:10377C00D8B08188D8A08198818600F000D000D084
:10378C0081968198462A070E4664EFD7000E456E47
:10379C000ED047504724476ED8B08188D8A0819866
:1037AC00818600F000D000D081968198452A070EC2
:1037BC004564EFD781841200FFFFFFFF000E016EFE
:1037CC00000E026E000E036E1BC004F01CC005F050
:1037DC001DC006F05CEC19F0D8A016D01D50800A64
:1037EC00800F05E1000E1C5C02E1000E1B5CD8B0E2
:1037FC0004D0000E5B6E210E5A6E000E1B6E000E76
:10380C001C6E000E1D6EA8D01BC024F01CC025F031
:10381C001DC026F01BC01EF01CC01FF01DC020F0E8
:10382C001E1E1F1E201E1E2A000E1F222022C80E26
:10383C001E242B6E6E0E1F202C6EBE0E20202D6EA5
:10384C00D8902D322C322B32000E245E800E255A4D
:10385C00000E265A040E276E2BC021F02CC022F02D
:10386C002DC023F02BC009F02CC00AF02DC00BF09A
:10387C0024C00CF025C00DF026C00EF0C6EC1AF0DA
:10388C0009C028F00AC029F00BC02AF028C009F0A2
:10389C0029C00AF02AC00BF02BC00CF02CC00DF084
:1038AC002DC00EF0C6EC1AF009C028F00AC029F0A1
:1038BC000BC02AF028C009F029C00AF02AC00BF06E
:1038CC002BC00CF02CC00DF02DC00EF0C6EC1AF075
:1038DC0009C028F00AC029F00BC02AF02BC009F04F
:1038EC002CC00AF02DC00BF0000E0C6EC00E0D6E2D
:1038FC003F0E0E6EC6EC1AF009C02BF00AC02CF06D
:10390C000BC02DF02BC015F02CC016F02DC017F0ED
:10391C0028C018F029C019F02AC01AF040EC18F091
:10392C0015C02BF016C02CF017C02DF0272E94D7F5
:10393C002BC009F02CC00AF02DC00BF01BC00CF0F2
:10394C001CC00DF01DC00EF0C6EC1AF009C01BF027
:10395C000AC01CF00BC01DF01200FFFFFFFF0BC0D4
:10396C000FF0106A116A0A340F3601E310800F5001
:10397C00146E0EC00FF0106A116A0D340F3601E38D
:10398C0010800F50136E1450D8B40CD01350145C1C
:10399C00D8B00FD01450000813240F6E190E0F5C02
:1039AC00D8A007D00CC009F00DC00AF00EC00BF067
:1039BC00ABD01350D8B40CD01450135CD8B00FD07B
:1039CC001350000814240F6E190E0F5CD8A007D0EA
:1039DC0009C009F00AC00AF00BC00BF095D0060E16
:1039EC00126E0BBE128E0EBE128C0A8EFF0E0916B4
:1039FC00FF0E0A16000E0B160D8EFF0E0C16FF0E88
:103A0C000D16000E0E161350145CD8B01AD0D890A8
:103A1C000C360D360E36130613501418D8B40DD0C0
:103A2C00120612C00FF0070E0F16D8B406D0EFD73F
:103A3C00D8900B320A320932142A13501462F8D778
:103A4C001DD01450135CD8B019D0D89009360A3652
:103A5C000B36140613501418D8B40DD0120612C01D
:103A6C000FF0070E0F16D8B406D0EFD7D8900E3241
:103A7C000D320C32132A13501462F8D712AE0CD03C
:103A8C00FF0E091AFF0E0A1AFF0E0B1A010E092659
:103A9C00000E0A22000E0B2212AC0CD0FF0E0C1AD8
:103AAC00FF0E0D1AFF0E0E1A010E0C26000E0D2223
:103ABC00000E0E22000E126E09500C260A500D221A
:103ACC000B500E220EAE0ED0FF0E0C1AFF0E0D1A5E
:103ADC00FF0E0E1A010E0C26000E0D22000E0E22E9
:103AEC00010E126E0CC001F00DC002F00EC003F0FE
:103AFC0014C004F012C005F0A6EC19F001C009F0D6
:103B0C0002C00AF003C00BF01200FFFFFFFF926827
:103B1C00000E936E800E946E060EC16E5DEC18F066
:103B2C008192818481968198819A819C82908292E3
:103B3C00000E4E6E000E4D6E000E4C6E000E536E4F
:103B4C00010E516E000E4B6E000E4A6E000E506E42
:103B5C00000E4F6E000E526E0FD0818E030E026E51
:103B6C00E80E016E25EC18F0819E030E026EE80E35
:103B7C00016E25EC18F0522A040E5264EED7000E9A
:103B8C00526E18EC18F00A0E486EBE0EE82EFED7D8
:103B9C00482EFCD700D04A4A4B2A4C661CD04F0406
:103BAC00D8A419D04B50800A790FD00ED8B44A5CE7
:103BBC00D8A011D0000E4B6E000E4A6E4E0E07ECC4
:103BCC0018F0817E580E496E7AEC18F0496E495007
:103BDC00530AD8B4827080A80ED04C04D8A405D057
:103BEC004B0E07EC18F0000E4C6E000E026E010E20
:103BFC00016E25EC18F080B080D0620E486E760E07
:103C0C00E82EFED7482EFCD700D080B076D080B8F6
:103C1C000ED04C6605D0490E07EC18F0010E4C6E18
:103C2C00010E026EF40E016E25EC18F066D0000E3B
:103C3C00506E410E07EC18F0010E516E000E526ED4
:103C4C0024D0000E536E000E4E6E000E4D6E7AECAC
:103C5C0018F0536E5350D00F536E0A0E535CD8B0FD
:103C6C0011D053505102F3CF4DF0F4CF4EF04D50D4
:103C7C005824586E4E505920596E51500A0DF3CF9E
:103C8C0051F002D0010E506E522A020E5264D9D756
:103C9C007AEC18F05E6E5E50580AD8B404D05E50C0
:103CAC00D00F5E6E02D0010E506E50660DD058C013
:103CBC003DF059C03EF0010E3F6E3AEC1BF0440E45
:103CCC0007EC18F0EBEC18F05DEC18F0000E026E3F
:103CDC00320E016E25EC18F0450E07EC18F0000EB4
:103CEC00026E320E016E25EC18F04F6602D0010EFA
:103CFC004F6E000E4B6E000E4A6E80B286D0620E76
:103D0C00486E760EE82EFED7482EFCD700D080B237
:103D1C007CD080B80ED04C6605D0490E07EC18F05C
:103D2C00010E4C6E010E026EF40E016E25EC18F0B5
:103D3C006CD0000E506E420E07EC18F0010E516E56
:103D4C00000E526E24D0000E536E000E4E6E000EFE
:103D5C004D6E7AEC18F0536E5350D00F536E0A0E12
:103D6C00535CD8B011D053505102F3CF4DF0F4CF77
:103D7C004EF04D505624566E4E505720576E5150A3
:103D8C000A0DF3CF51F002D0010E506E522A020EE2
:103D9C005264D9D77AEC18F05D6E5D50580AD8B4DD
:103DAC0004D05D50D00F5D6E02D0010E506E506687
:103DBC0012D056C03DF057C03EF0020E3F6E3AECAA
:103DCC001BF0440E07EC18F0818C050E00F0E82E69
:103DDC00FDD7FCEC19F05DEC18F0819C000E026E26
:103DEC00320E016E25EC18F0450E07EC18F0000EA3
:103DFC00026E320E016E25EC18F04F6602D0010EE9
:103E0C004F6E000E4B6E000E4A6E80B47CD0620E6C
:103E1C00486E760EE82EFED7482EFCD700D080B424
:103E2C0072D0000E506E430E07EC18F0010E516E5E
:103E3C00000E526E24D0000E536E000E4E6E000E0D
:103E4C004D6E7AEC18F0536E5350D00F536E0A0E21
:103E5C00535CD8B011D053505102F3CF4DF0F4CF86
:103E6C004EF04D505424546E4E505520556E5150BA
:103E7C000A0DF3CF51F002D0010E506E522A020EF1
:103E8C005264D9D77AEC18F05C6E5C50580AD8B4EE
:103E9C000AD05C50D00F5C6E5C50020AD8A405D0DE
:103EAC00000E5C6E02D0010E506E506612D054C0E3
:103EBC003DF055C03EF0030E3F6E3AEC1BF0440E45
:103ECC0007EC18F0818A050E00F0E82EFDD7C3EC44
:103EDC0018F05DEC18F0819A000E026E320E016E35
:103EEC0025EC18F0450E07EC18F0000E026E320EA1
:103EFC00016E25EC18F04F6602D0010E4F6E000ECD
:103F0C004B6E000E4A6E80B63ED6620E486E760E32
:103F1C00E82EFED7482EFCD700D080B634D6000E43
:103F2C00506E4C0E07EC18F0010E516E000E526ED6
:103F3C0024D0000E536E000E4E6E000E4D6E7AECB9
:103F4C0018F0536E5350D00F536E0A0E535CD8B00A
:103F5C0011D053505102F3CF4DF0F4CF4EF04D50E1
:103F6C005424546E4E505520556E51500A0DF3CFBB
:103F7C0051F002D0010E506E522A020E5264D9D763
:103F8C007AEC18F05C6E020E5C6E506618D054C061
:103F9C003DF055C03EF0040E3F6E3AEC1BF0440E63
:103FAC0007EC18F0818A050E00F0E82EFDD721EC05
:103FBC0019F0000E026E320E016E25EC18F05DEC5D
:103FCC0018F0819A000E026E320E016E25EC18F07C
:103FDC00450E07EC18F0000E026E320E016E25EC49
:103FEC0018F04F6602D0010E4F6E000E4B6E000E95
:043FFC004A6EC9D56B
:020000040030CA
:04000000FF260D0EBC
:0200060081FF78
:00000001FF
