:020000040000FA
:040000006AEF00F0B3
:100008005982FACF01F0FBCF02F0D9CF03F0DACF53
:1000180004F0F3CF05F0F4CF06F0F2AC16EF00F0E1
:1000280018EF00F05CEF00F09DA81DEF00F01FEF47
:1000380000F036EF00F09EA824EF00F026EF00F065
:1000480036EF00F002D834EF00F005000001FA6E38
:10005800F551FD6EF651FE6EF850FF6EFA50120023
:100068005CEF00F09DAA3BEF00F03DEF00F05CEF85
:1000780000F09EAA42EF00F044EF00F05CEF00F0C1
:1000880002D852EF00F005000001FA6EF351FD6E40
:10009800F451FE6EF850FF6EFA5012005CEF00F05B
:1000A8005CEF00F05CEF00F05CEF00F05CEF00F05C
:1000B80006C0F4FF05C0F3FF04C0DAFF03C0D9FF90
:1000C80002C0FBFF01C0FAFF59921100EEEF0AF0DF
:1006000000256420000026C03EF027C03FF028C02F
:1006100040F029C041F02AC042F02BC043F02CC06A
:1006200044F02DC045F045BE18EF03F01BEF03F07A
:10063000010E1CEF03F0000E3C6E3D6A3C503D1075
:10064000D8B425EF03F027EF03F039EF03F0451E90
:10065000441E431E421E411E401E3F1E3E6C000EA5
:100660003F2240224122422243224422452239EFA6
:1006700003F00001ADBF3FEF03F041EF03F044EFA3
:1006800003F0539244EF03F0ADBF51EF03F0AD51CF
:1006900006E1AC05D8B04FEF03F051EF03F057EF90
:1006A00003F0000E396E010E386E5BEF03F0ACC044
:1006B00038F0ADC039F0AAC03AF0ABC03BF03C50C6
:1006C0003D10D8A466EF03F068EF03F071EF03F07C
:1006D00053A46DEF03F06FEF03F076EF03F071EFCB
:1006E00003F03A06D8A03B0676EF03F0000E476E03
:1006F0001F0E466EB10E4624D96E000E4720DA6EEC
:10070000000EDF6E02EF04F04606D8A04706B10ED9
:100710004624D96E000E4720DA6E3EC007F03FC077
:1007200008F040C009F041C00AF042C00BF043C0DD
:100730000CF044C00DF045C00EF00A0E0F6E000E16
:10074000106E000E116E000E126E000E136E000E73
:10075000146E000E156E000E166E4EEC06F007C0FD
:100760002EF008C02FF009C030F00AC031F00BC0E5
:1007700032F00CC033F00DC034F00EC035F02EC096
:1007800019F030C01AF026EC0AF01950300FDF6E65
:100790003806D8A039063A06D8A03B063EC007F076
:1007A0003FC008F040C009F041C00AF042C00BF061
:1007B00043C00CF044C00DF045C00EF00A0E0F6EA1
:1007C000000E106E000E116E000E126E000E136EF3
:1007D000000E146E000E156E000E166E76EC05F00F
:1007E00007C03EF008C03FF009C040F00AC041F029
:1007F0000BC042F00CC043F00DC044F00EC045F0F9
:1008000002EF04F047BE0DEF04F0475008E1460444
:10081000D8A00DEF04F00FEF04F045EF04F03E50C8
:100820003F10401041104210431044104510D8A40E
:100830001CEF04F01EEF04F084EF03F039BE2BEF41
:1008400004F0395006E13804D8B029EF04F02BEF5A
:1008500004F084EF03F03BBE36EF04F03B5008E1B8
:100860003A04D8A036EF04F038EF04F045EF04F076
:1008700053B23DEF04F03FEF04F084EF03F045EF97
:1008800004F045EF04F045EF04F03C503D10D8A4CF
:100890004CEF04F04EEF04F057EF04F053A453EF85
:1008A00004F055EF04F079EF04F057EF04F046063A
:1008B000D8A047063C503D10D8A461EF04F063EF88
:1008C00004F069EF04F0000E376E2B0E366E6FEFFA
:1008D00004F0000E376E2D0E366E6FEF04F0B10E81
:1008E0004624D96E000E4720DA6E36C0DFFF79EF5E
:1008F00004F024C019F025C01AF0B10E46241B6E76
:10090000000E47201C6E3AC01DF03BC01EF019ECD3
:1009100008F019C024F01AC025F08FEF04F012007F
:100920004AC0D9FF4BC0DAFFDECFF6FFDDCFF7FFBD
:100930000800F550250AD8A4A0EF04F0A2EF04F0B7
:1009400056EF05F04AC0D9FF4BC0DAFFDE2A000E91
:10095000DD22000E0001AB6F000EAA6FAAC053F09B
:10096000ABC054F0AC69AD694AC0D9FF4BC0DAFFE7
:10097000DECFF6FFDDCFF7FF0800F550640AD8B4EC
:10098000C4EF04F0C6EF04F0DAEF04F04AC0D9FF78
:100990004BC0DAFFDECFF6FFDDCFF7FF0800F550E2
:1009A000690AD8A4D6EF04F0D8EF04F01CEF05F0E4
:1009B000DAEF04F04AC0D9FF4BC0DAFFDE2A000E9E
:1009C000DD224CC0D9FF4DC0DAFFDFCF4EF0020E62
:1009D000DE26DFCF4FF0000EDD224EC0D9FF4FC024
:1009E000DAFFDECFD1F0DDCFD2F0000ED2BFFF0EA6
:1009F000D36FD46FD56FD66FD76FD86F48C024F040
:100A000049C025F0D1C026F0D2C027F0D3C028F0CD
:100A1000D4C029F0D5C02AF0D6C02BF0D7C02CF016
:100A2000D8C02DF003EC03F024C048F025C049F0F5
:100A300075EF05F075EF05F04AC0D9FF4BC0DAFF3E
:100A4000DECFF6FFDDCFF7FF0800F550250AD8A46A
:100A50002CEF05F02EEF05F047EF05F04AC0D9FF67
:100A60004BC0DAFFDE2A000EDD22000E0A6E250ED4
:100A7000096E48C00BF049C00CF082EC08F0000E83
:100A8000496E010E486E75EF05F075EF05F04AC02E
:100A9000D9FF4BC0DAFFDE2A000EDD22000E496EC0
:100AA000000E486E75EF05F075EF05F04AC0D9FFEE
:100AB0004BC0DAFFDECFF6FFDDCFF7FF0800F550C1
:100AC000096E0A6A48C00BF049C00CF082EC08F0CD
:100AD0004AC0D9FF4BC0DAFFDE2A000EDD22000E2D
:100AE000496E010E486E75EF05F01200000E186E8B
:100AF00016BE7FEF05F07DEF05F093EF05F0161EB3
:100B0000151E141E131E121E111E101E0F6C000E39
:100B10001022112212221322142215221622010E53
:100B2000186E93EF05F00EBE9AEF05F098EF05F002
:100B3000AEEF05F00E1E0D1E0C1E0B1E0A1E091E2A
:100B4000081E076C000E082209220A220B220C2222
:100B50000D220E22010E181AAEEF05F020EE19F04C
:100B6000070EDE6AE806FDE20F5010101110121099
:100B70001310141015101610D8B4C1EF05F0C3EF00
:100B800005F021EF06F0010E176ED3EF05F0D890B7
:100B90000F36103611361236133614361536163611
:100BA000172AD3EF05F016AED8EF05F0DAEF05F00F
:100BB000C7EF05F0DEEF05F0DEEF05F0D89019364F
:100BC0001A361B361C361D361E361F3620360F5081
:100BD000075C105008581150095812500A58135009
:100BE0000B5814500C5815500D5816500E58D8A0CC
:100BF000FCEF05F0FEEF05F011EF06F00F50075E79
:100C00001050085A1150095A12500A5A13500B5AD0
:100C100014500C5A15500D5A16500E5A198011EFD7
:100C200006F0D890163215321432133212321132C5
:100C300010320F32172EDEEF05F021EF06F021EF14
:100C400006F01850D8B427EF06F029EF06F03BEF76
:100C500006F0201E1F1E1E1E1D1E1C1E1B1E1A1E01
:100C6000196C000E1A221B221C221D221E221F227A
:100C700020223BEF06F019C007F01AC008F01BC095
:100C800009F01CC00AF01DC00BF01EC00CF01FC004
:100C90000DF020C00EF04DEF06F01200000E186EA1
:100CA0000EBE57EF06F055EF06F06BEF06F00E1E86
:100CB0000D1E0C1E0B1E0A1E091E081E076C000EC0
:100CC000082209220A220B220C220D220E22010EDA
:100CD000186E6BEF06F016BE72EF06F070EF06F0BE
:100CE00084EF06F0161E151E141E131E121E111E72
:100CF000101E0F6C000E1022112212221322142239
:100D00001522162284EF06F00F5010101110121049
:100D10001310141015101610D8B491EF06F093EFBD
:100D200006F0E7EF06F0010E176EA3EF06F0D8907D
:100D30000F3610361136123613361436153616366F
:100D4000172AA3EF06F016AEA8EF06F0AAEF06F0FA
:100D500097EF06F0AEEF06F0AEEF06F00F50075C2F
:100D6000105008581150095812500A5813500B5877
:100D700014500C5815500D5816500E58D8A0C3EFEB
:100D800006F0C5EF06F0D7EF06F00F50075E1050E3
:100D9000085A1150095A12500A5A13500B5A14503B
:100DA0000C5A15500D5A16500E5AD7EF06F0D8901F
:100DB00016321532143213321232113210320F320F
:100DC000172EAEEF06F0E7EF06F0E7EF06F018504B
:100DD000D8B4EDEF06F0EFEF06F001EF07F00E1ECE
:100DE0000D1E0C1E0B1E0A1E091E081E076C000E8F
:100DF000082209220A220B220C220D220E2201EFC8
:100E000007F007C007F008C008F009C009F00AC0E1
:100E10000AF00BC00BF00CC00CF00DC00DF00EC0B2
:100E20000EF013EF07F01200060E0001EB6F000E3C
:100E3000EA6F000EE96FE7C0E9F0E8C0EAF020ECE5
:100E40000BF0F28EF28CEBC007F0086A000E0A6E0F
:100E5000000E096E84EC0AF007500001EC6FECC044
:100E6000EBF0010EDF6F060EE06FECC0E1F0E26B1D
:100E7000A0EC0AF0EBC007F0086A000E0A6E000E44
:100E8000096E48EC0AF007500001EC6FECC0EBF083
:100E9000010EDF6F060EE06FECC0E1F0E26BA0EC3C
:100EA0000AF0EBC007F0086A000E0A6E000E096E29
:100EB00068EC0AF007500001EC6FECC0EBF0010E9B
:100EC000DF6F060EE06FECC0E1F0E26BA0EC0AF021
:100ED000EBC007F0086A000E0A6E000E096EBAEC4D
:100EE0000AF007500001EC6FECC0EBF0010EDF6F71
:100EF000060EE06FECC0E1F0E26BA0EC0AF081EFCF
:100F000007F048EC09F0526E52500001E96FEA6BAD
:100F1000E751E91909E1E851EA19D8B492EF07F06D
:100F200094EF07F081EF07F0010EDF6F060EE06F20
:100F3000E9C0E1F0EAC0E2F0A0EC0AF0E9C0E7F0B5
:100F4000EAC0E8F081EF07F081EF07F081EF07F0EA
:100F50006AEF00F05650010D600EF324D96E000EBA
:100F6000F420DA6E000EDF6EABA4B9EF07F0BBEF32
:100F700007F0D4EF07F05650010D600EF324D96E40
:100F8000000EF420DA6E0001DF8202D8D2EF07F003
:100F90000500FA6EF151FD6EF251FE6EF850FF6ED3
:100FA000FA501200D4EF07F0ABA2D9EF07F0DBEF55
:100FB00007F0F4EF07F05650010D600EF324D96EE0
:100FC000000EF420DA6E0001DF8402D8F2EF07F0A1
:100FD0000500FA6EEF51FD6EF051FE6EF850FF6E97
:100FE000FA501200F4EF07F05650010D600EF32492
:100FF000D96E000EF420DA6EDF50D8B402EF08F09C
:1010000004EF08F014EF08F002D812EF08F0050022
:101010000001FA6EED51FD6EEE51FE6EF850FF6E5E
:10102000FA50120018EF08F0D4EC0AF018EF08F0AC
:10103000120053A01EEF08F020EF08F02CEF08F08C
:101040001BC012F01CC013F019C014F01AC015F028
:1010500000EC0AF02CEF08F01EBE31EF08F033EF81
:1010600008F039EF08F01DC022F01EC023F03DEF5C
:1010700008F0000E236E000E226E000E216E000E90
:10108000206E51EF08F0000E0A6E200E096E19C096
:101090000BF01AC00CF082EC08F0204A212A51EF24
:1010A00008F02250205C2150800A1F6E2350800AD5
:1010B0001F58D8A05EEF08F060EF08F043EF08F08B
:1010C00053B065EF08F067EF08F073EF08F01BC04E
:1010D00012F01CC013F019C014F01AC015F000EC87
:1010E0000AF073EF08F01BC007F01CC008F0B0EC6A
:1010F00009F022500724196E235008201A6E81EF40
:1011000008F012000B500C10D8B489EF08F08BEFE8
:1011100008F096EF08F00B500C10D8A492EF08F0EE
:1011200094EF08F09BEF08F096EF08F0095029ECD7
:101130000BF0D6EF08F020EE04F00B50D9260C503F
:10114000DA22DE50DE10D8B4A8EF08F0AAEF08F0DB
:10115000C7EF08F020EE04F00B50D9260C50DA222D
:1011600010EE02F00B50E1260C50E222DE50E65C5D
:10117000E650800A116EDE50800A1158D8B0C3EFD5
:1011800008F0C5EF08F0D6EF08F0C7EF08F020EE42
:1011900002F00B50D9260C50DA22DE2A000EDD2296
:1011A000D6EF08F0D6EF08F0D6EF08F012009D9ABF
:1011B000540E076E0F0E086E38EC0BF09D98B20EB1
:1011C000076E130E086E33EC0BF0080EB86E900E1F
:1011D000AB6E240EAC6EA00EAF6E010EB06EA80EFC
:1011E000076E160E086E42EC0BF0980E076E160E88
:1011F000086E3DEC0BF09E0E076E160E086E47EC67
:101200000BF0000E0001AF6F000E586E000E576E0F
:10121000080EF76F000E566E000E556E000EB06F82
:101220009D8A1200076E17EF09F017EF09F0000111
:10123000F751D8B41EEF09F020EF09F017EF09F0CD
:101240009DB825EF09F027EF09F02BEF09F007C053
:10125000ADFF46EF09F09D985850010DA00EF32404
:10126000D96E000EF420DA6E07C0DFFF582A070E91
:1012700058643DEF09F03FEF09F043EF09F0000E2D
:10128000586E43EF09F0F70746EF09F09D8812000A
:1012900080A003D00001AE8102D00001AE9180AEEB
:1012A00002D0AE8302D00001AE9381A002D0AE8501
:1012B00002D00001AE9581AE02D0AE8702D000010F
:1012C000AE9782A002D0AE8902D00001AE9984A070
:1012D00002D0AE8B02D00001AE9B83A002D0AE8DB7
:1012E00002D00001AE9D83AE02D0AE8F02D00001CD
:1012F000AE9FAE517CEF09F01200DBC050F0DCC0B5
:1013000051F0000E0001A96F000EA86F9DEF09F0CB
:10131000D9C048F0DAC049F0500E4A6E000E4B6E4C
:10132000DDC04CF0DEC04DF090EC04F04850000100
:10133000A8274950A9239DEF09F050C0F6FF51C0DE
:10134000F7FF0800F5500009D8A4A9EF09F0ABEFAA
:1013500009F088EF09F0A8C0D9F0A9C0DAF01200AE
:1013600007C00BF008C00CF0BAEF09F0074A082AD2
:10137000BAEF09F007C0D9FF08C0DAFFDF50D8A4E0
:10138000C4EF09F0C6EF09F0B6EF09F0C8EF09F0B5
:101390000BC009F00CC00AF0091E0A1E094A0A2AED
:1013A00007500924076E08500A20086ED8EF09F08C
:1013B0001200080E0001F761E0EF09F0E2EF09F01A
:1013C000FCEF09F05750010DA00EF324D96E000E6A
:1013D000F420DA6EDF50AD6E572A070E5764F3EF34
:1013E00009F0F5EF09F0F9EF09F0000E576EF9EF8B
:1013F00009F0F72BFFEF09F09D98FFEF09F01200BD
:10140000000E186E000E176E13EF0AF016C009F0EA
:101410000A6A14C00BF015C00CF082EC08F0174AF1
:10142000182A13EF0AF017501224D96E18501320FF
:10143000DA6EDF50166E1650D8A421EF0AF023EFB3
:101440000AF006EF0AF025EF0AF012001ABE33EF99
:101450000AF01A5006E11904D8B031EF0AF033EF60
:101460000AF041EF0AF019C01BF01AC01CF01B1E55
:101470001C1E1B4A1C2A1BC019F01CC01AF047EF87
:101480000AF019C019F01AC01AF047EF0AF012005A
:1014900009C00BF0010E0C6E000E0D6E0B2A54EFFE
:1014A0000AF0D8900C360D360B2E51EF0AF00C1CBA
:1014B0000E6E0D1C0F6E07500E14106E08500F1498
:1014C000116E10C007F011C008F067EF0AF01200AB
:1014D00009C00BF0010E0C6E000E0D6E0B2A74EF9E
:1014E0000AF0D8900C360D360B2E71EF0AF007502B
:1014F0000C180E6E08500D180F6E0EC007F00FC0BE
:1015000008F083EF0AF0120009C00BF0010E0C6E18
:10151000000E0D6E0B2A90EF0AF0D8900C360D36A7
:101520000B2E8DEF0AF007500C100E6E08500D10A8
:101530000F6E0EC007F00FC008F09FEF0AF0120008
:10154000E10E0001E56F000EE66F000ED96F000E90
:10155000DA6FDFC0DBF0E0C0DCF0E50EDD6F000E1F
:10156000DE6F7DEC09F0D9C0E3F0DAC0E4F0B9EF4A
:101570000AF0120009C00BF007C00CF008C00DF013
:101580000B2AC6EF0AF00D340D320C320B2EC3EFCE
:101590000AF0010E0C140E6E0F6A0EC007F00FC099
:1015A00008F0D3EF0AF012005650010D000EF3249C
:1015B000D96E010EF420DA6EAECFDFFF562A3F0E51
:1015C0005664E5EF0AF0E7EF0AF0EBEF0AF0000EE1
:1015D000566EEBEF0AF00001B02B120001EE00F0A6
:1015E000400EEE6AE806FDE100EE60F0710EEE6A74
:1015F000E806FDE1586A576A566A556A546A536AA2
:1016000059905992000EF86E000114EF07F0000E89
:101610008D6E000E8C6E000E896E000E8A6E000EAE
:101620008B6E070E966E92689368BF0E946E9568E7
:10163000DE0E7E6E0F0E7F6E000E7C6EF18E12003F
:1016400052EC0BF007EC0BF02EEC0BF0D7EC08F0A3
:101650001200086E085012EC09F01200700ED36EE2
:10166000000E9B6E120007C0F5F008C0F6F01200E5
:1016700007C0F3F008C0F4F0120007C0EFF008C094
:10168000F0F0120007C0F1F008C0F2F0120007C03D
:10169000EDF008C0EEF01200AB98AB881200D4EC6D
:0A16A0000AF01200D09E12001200A2
:020000040020DA
:08000000FFFFFFFFFFFFFFFF00
:020000040030CA
:0E000000FF081F1EFF8B85FF0FC00FE00F4093
:00000001FF
