:0600000000F04BEF00F0E0
:10000800FFFFFACF3BF0FBCF3CF0E9CF3DF0EACF62
:100018003EF0E1CF3FF0E2CF40F0D9CF41F0DACF68
:1000280042F0F3CF43F0F4CF44F0F6CF45F0F7CFEA
:1000380046F0F8CF47F0F5CF48F09DBA9EAA03D016
:100048006AEC0EF006D0F2B8F2A203D077EC11F009
:10005800F29248C0F5FF47C0F8FF46C0F7FF45C019
:10006800F6FF44C0F4FF43C0F3FF42C0DAFF41C0CB
:10007800D9FF40C0E2FF3FC0E1FF3EC0EAFF3DC0FC
:10008800E9FF3CC0FBFF3BC0FAFF1100FFFF33EF65
:1000980010F0FFFF000E0101836F000E0101846F55
:1000A800000E0101856F000E4C6E010EAFEC0FF0D3
:1000B8007D0E536EB80E526EF9EC0BF0000E010176
:1000C800836F11D0FFEC10F02CEC06F00101836F68
:1000D800000E4C6E010EAFEC0FF07D0E536EB80E95
:1000E800526EF9EC0BF001018351D8B4EBD7000143
:1000F8008451030AD8A422D000018251780AD8A4D6
:100108001DD082C023F0000E4C6E010EAFEC0FF034
:100118007F0E536E250E526EF9EC0BF0780E51ECF3
:1001280009F0010E526E000EA3EC10F07D0E536E16
:10013800DA0E526EF9EC0BF0E1EC0CF00001845190
:10014800030AD8A422D000018251790AD8A41DD06C
:1001580082C023F0000E4C6E010EAFEC0FF07F0E44
:10016800536E330E526EF9EC0BF0790E51EC09F028
:10017800010E526E000EA3EC10F07D0E536EDA0ED7
:10018800526EF9EC0BF0E1EC0CF000018451030A1B
:10019800D8B483D000018251780AD8A47ED0000E4A
:1001A8004C6E010EAFEC0FF07E0E536E600E526E69
:1001B800F9EC0BF0010E526E000EA3EC10F07F0E5E
:1001C800536EA80E526EF9EC0BF0000E4A6E640ED8
:1001D800496E53EC11F0000E4C6E010EAFEC0FF0AF
:1001E8007D0E536E3D0E526EF9EC0BF0A00E2C6E88
:1001F8001BC054F01CC055F0A7EC0BF01B4A1C2A7E
:100208001CC080F180C181F10101826B0101815123
:100218000101846F1BC085F1000E4A6E000E496E05
:1002280084C14BF0C5EC10F00A0E00F0E82EFDD7A3
:10023800000E4A6E010E496E85C14BF0C5EC10F0F8
:100248000A0E00F0E82EFDD7040E1B5C000E1C58A9
:10025800D8A023D0000E4C6E010EAFEC0FF0030EA9
:100268004A6EE80E496E53EC11F07E0E536E400E46
:10027800526EF9EC0BF0010E526E000EA3EC10F06A
:100288007F0E536E090E526EF9EC0BF0030E4A6E98
:10029800E80E496E53EC11F0DDD700018451030AD2
:1002A800D8B401D700018251790AD8A4FCD6000E2F
:1002B8004C6E010EAFEC0FF07E0E536E600E526E58
:1002C800F9EC0BF0010E526E000EA3EC10F07F0E4D
:1002D800536EB30E526EF9EC0BF0000E4A6E640EBC
:1002E800496E53EC11F0000E4C6E010EAFEC0FF09E
:1002F8007D0E536E3D0E526EF9EC0BF0A20E2C6E75
:100308001DC054F01EC055F0A7EC0BF01D4A1E2A64
:100318001EC080F180C181F10101826B0101815110
:100328000101846F1DC085F1000E4A6E020E496EF0
:1003380084C14BF0C5EC10F00A0E00F0E82EFDD792
:10034800000E4A6E030E496E85C14BF0C5EC10F0E5
:100358000A0E00F0E82EFDD7040E1D5C000E1E5894
:10036800D8A0A1D6000E4C6E010EAFEC0FF0000E17
:100378004A6E640E496E53EC11F07E0E536E400EB9
:10038800526EF9EC0BF0010E526E000EA3EC10F059
:100398007F0E536E090E526EF9EC0BF0000E4A6E8A
:1003A800640E496E53EC11F0DDD7FFFFFFFF000E1E
:1003B8000101866F22EC04F07D0E536EC90E526E59
:1003C800F9EC0BF0030E4A6EE80E496E53EC11F08F
:1003D800000E0101866F54D0000E4A6E050E496E5C
:1003E8007DEC0FF00101866F3304D8A449D0000ECC
:1003F800336EEDEC0DF0000E4C6E010EAFEC0FF00D
:100408007D0E536E4F0E526EF9EC0BF0010E526ECC
:10041800040EA3EC10F02EC052F0536A020E546E74
:1004280052EC08F0010E526E060EA3EC10F07F0E8F
:10043800536EFD0E526EF9EC0BF0010E526E070E64
:10044800A3EC10F02FC052F0536A020E546E52EC17
:1004580008F0010E526E090EA3EC10F07F0E536ED9
:10046800FD0E526EF9EC0BF0010E526E0A0EA3EC63
:1004780010F032C052F0536A020E546E52EC08F07B
:1004880001018651D8B4A8D7000E4C6E010EAFEC0E
:100498000FF0000E4D6E320E4C6E92EC11F09FD0A4
:1004A8007F0E536E900E526EF9EC0BF0010E526EE9
:1004B800000EA3EC10F07E0E536ECE0E526EF9ECC9
:1004C8000BF0000E4A6E640E496E53EC11F0000EEC
:1004D8004C6E010EAFEC0FF02AEC05F079D77F0EC9
:1004E800536E410E526EF9EC0BF0010E526E000E77
:1004F800A3EC10F07E0E536E800E526EF9EC0BF0EA
:1005080031EC0AF0000E4A6E640E496E53EC11F09D
:100518005FD77F0E536EBE0E526EF9EC0BF0010ED4
:10052800526E000EA3EC10F07F0E536E6A0E526EE0
:10053800F9EC0BF0000E4A6E640E496E53EC11F0A4
:1005480005EC03F045D77E0E536EBF0E526EF9ECE4
:100558000BF0010E526E000EA3EC10F07E0E536EDF
:10056800700E526EF9EC0BF0000E4A6E640E496E76
:1005780053EC11F04DEC00F02BD77E0E536EDD0ED0
:10058800526EF9EC0BF0010E526E000EA3EC10F057
:100598007E0E536EB00E526EF9EC0BF0000E4A6EE2
:1005A800640E496E53EC11F013D77E0E536EBF0ED6
:1005B800526EF9EC0BF0010E526E000EA3EC10F027
:1005C8007E0E536E700E526EF9EC0BF0000E4A6EF2
:1005D800640E496E53EC11F04DEC00F0F9D60101B0
:1005E8008651010AD8B45CD7030AD8B478D7010A6F
:1005F800D8B48FD7070AD8B4A6D7010AD8B4BDD7BC
:10060800D4D7FFFF000E4C6E010EAFEC0FF07D0E3D
:10061800536E190E526EF9EC0BF0000E0101836F48
:10062800000E0101806FFFEC10F0780E51EC09F01C
:1006380026C023F0E1EC0CF0000E4C6E010EAFEC7E
:100648000FF07E0E536EFB0E526EF9EC0BF006D0D7
:100658002CEC06F00101836F0101802B01018367F7
:1006680004D0090E01018065F3D70101836723D007
:10067800000E4C6E010EAFEC0FF0000E4A6E640EC9
:10068800496E53EC11F07F0E536E770E526EF9ECF3
:100698000BF0010E526E000EA3EC10F07F0E536E9D
:1006A800840E526EF9EC0BF0000E4A6E640E496E21
:1006B80053EC11F0DDD7000E4C6E010EAFEC0FF0CD
:1006C8007F0E536E5D0E526EF9EC0BF088C02BF066
:1006D80087C031F086C035F089C02DF08AC02EF071
:1006E8008BC02FF08CC032F09BEC0AF0000E4A6EE3
:1006F800640E496E53EC11F0000E4C6E010EAFEC17
:100708000FF07C0E536EDE0E526EF9EC0BF0010EFC
:10071800526E000EA3EC10F07D0E536EEB0E526E6F
:10072800F9EC0BF0050E0101816F0D0E0101846FCC
:100738000D0E0101846F1BD0010181C149F04A6A85
:1007480001018451010D0001800EF324D96E0001CE
:10075800000EF420DA6EDF504B6EC5EC10F00A0E76
:1007680000F0E82EFDD70101812B0101842B2C0E0E
:1007780001018465E1D7000E4C6E010EAFEC0FF05D
:100788007C0E536EC90E526EF9EC0BF0000E01018F
:10079800826F4ED03304D8A44BD0000E336E0101C3
:1007A800822BEDEC0DF0000E4C6E010EAFEC0FF04D
:1007B8007C0E536EC90E526EF9EC0BF0010E526EA0
:1007C800040EA3EC10F02EC052F0536A020E546EC1
:1007D80052EC08F0010E526E060EA3EC10F07F0EDC
:1007E800536EFD0E526EF9EC0BF0010E526E070EB1
:1007F800A3EC10F02FC052F0536A020E546E52EC64
:1008080008F0010E526E090EA3EC10F07F0E536E25
:10081800FD0E526EF9EC0BF0010E526E0A0EA3ECAF
:1008280010F032C052F0536A020E546E52EC08F0C7
:100838003B0E01018265AED71200FFFFFFFF1F0EBE
:10084800926E010E936EA00E946E330E956E000E8E
:10085800966E84908492849482908292000E816E27
:100868008294000E2A6E0FD08480000E4A6E640EA9
:10087800496E53EC11F08490000E4A6E640E496E76
:1008880053EC11F02A2A040E2A64EED77A0E276E4A
:10089800780E236E6D0E266E780E246E790E256EF8
:1008A800000E346E000E336E000E306EA00E2C6EED
:1008B800000E4A6E000E496E9DEC11F0556E0A0E40
:1008C80000F0E82EFDD7000E4A6E010E496E9DEC31
:1008D80011F0566E0A0E00F0E82EFDD7000E586E85
:1008E800000E576E55505724576E000E5820586EFC
:1008F8005750586E576A56505724576E000E582056
:10090800586E050E575C000E5858D8A004D0000E3B
:10091800586E000E576E57C01BF058C01CF0000EE2
:100928004A6E020E496E9DEC11F0556E0A0E00F0EB
:10093800E82EFDD7000E4A6E030E496E9DEC11F0AD
:10094800566E0A0E00F0E82EFDD7000E586E000E07
:10095800576E55505724576E000E5820586E5750F2
:10096800586E576A56505724576E000E5820586EC6
:10097800050E575C000E5858D8A004D0000E586ECB
:10098800000E576E57C01DF058C01EF0000E146EB2
:10099800000E136E000E166E000E156E800E496E58
:1009A800080E66EC11F0190EC86EF8EC0AF0000E8D
:1009B8004A6E040E496E9DEC11F00009D8B422D09D
:1009C800010E2B6E010E316E0F0E356E020E2D6E5E
:1009D800010E2E6E1E0E2F6E190E326E9BEC0AF053
:1009E800000E4A6E640E496E53EC11F0000E4A6E0A
:1009F800040E496E000E4B6EC5EC10F00A0E00F0A6
:100A0800E82EFDD74BEC0CF0000E4A6E640E496ED2
:100A180053EC11F0EDEC0DF0000E4A6E640E496EC9
:100A280053EC11F08182000E6AEC0DF0000E4C6E52
:100A3800010EAFEC0FF0250E4A6E800E496EACEC3D
:100A48000DF0F18CF288F28E1200FFFFFFFF000E0E
:100A58000101806F000E0101816F1C501B10D8A48A
:100A680015D01E501D10D8A411D0000E4C6E010ECA
:100A7800AFEC0FF07D0E536E960E526EF9EC0BF044
:100A8800030E4A6EE80E496E53EC11F01C501B1011
:100A9800D8B451D0A00E2C6E000E0C6E000E0B6E4A
:100AA80028D0FFEC10F0000E4C6E010EAFEC0FF0EA
:100AB8007D0E536E2B0E526EF9EC0BF00BC054F0FA
:100AC8000CC055F028EC0DF0000E4A6E0A0E496E67
:100AD80053EC11F0000E4C6E010EAFEC0FF07E0ED1
:100AE800536E500E526EF9EC0BF0E1EC0CF00B4A21
:100AF8000C2A1B500B5C1C500C58D8A0D2D7000EE7
:100B08001C6E000E1B6E000E4A6E000E496E000E23
:100B18004B6EC5EC10F00A0E00F0E82EFDD7000E63
:100B28004A6E010E496E000E4B6EC5EC10F00A0EAF
:100B380000F0E82EFDD71E501D10D8B451D0A20EDB
:100B48002C6E000E0C6E000E0B6E28D0FFEC10F011
:100B5800000E4C6E010EAFEC0FF07D0E536E2B0E97
:100B6800526EF9EC0BF00BC054F00CC055F028ECA9
:100B78000DF0000E4A6E0A0E496E53EC11F0000E8D
:100B88004C6E010EAFEC0FF07E0E536E500E526E8F
:100B9800F9EC0BF0E1EC0CF00B4A0C2A1D500B5C45
:100BA8001E500C58D8A0D2D7000E1E6E000E1D6E17
:100BB800000E4A6E020E496E000E4B6EC5EC10F028
:100BC8000A0E00F0E82EFDD7000E4A6E030E496E9D
:100BD800000E4B6EC5EC10F00A0E00F0E82EFDD7A3
:100BE800000E4C6E010EAFEC0FF07D0E536EFC0E36
:100BF800526EF9EC0BF0030E4A6EE80E496E53EC98
:100C080011F0A00E2C6E2CEC0EF0000E4A6E010EA8
:100C1800496E53EC11F0A20E2C6E2CEC0EF0000E67
:100C28004A6E010E496E53EC11F0000E4C6E010E27
:100C3800AFEC0FF07D0E536EA70E526EF9EC0BF071
:100C4800030E4A6EE80E496E53EC11F01200FFFFD6
:100C5800FFFF000E5D6E000E5F6E000E5C6E000EF4
:100C68005B6EC6EC09F05F6E5F04D8A4D5D0000EA9
:100C78004C6E010EAFEC0FF07F0E536EC90E526E24
:100C8800F9EC0BF086EC11F07FEC10F05E6E5E5024
:100C9800D8B4A6D0000E5C6E000E5B6E9ED082802B
:100CA800E3EC10F05A6E5D50010D0001800EF32444
:100CB800D96E0001000EF420DA6E5AC0DFFF829070
:100CC800000E4C6E010EAFEC0FF07C0E536EF20E60
:100CD800526EF9EC0BF05D50010D0001800EF3240B
:100CE800D96E0001000EF420DA6EEA0EDF6273D0CE
:100CF800C3EC07F05F6E5F04D8A437D084847A0E03
:100D08005A6ED40EE82EFED75A2EFCD700D07A0E93
:100D18005A6ED40EE82EFED75A2EFCD700D0310ECC
:100D2800B2EC11F0849484847A0E5A6ED40EE82EB4
:100D3800FED75A2EFCD700D07A0E5A6ED40EE82E63
:100D4800FED75A2EFCD700D0310EB2EC11F08494A5
:100D5800000E4C6E010EAFEC0FF07C0E536EB80E09
:100D6800526EF9EC0BF0010E63D084847A0E5A6E41
:100D7800D40EE82EFED75A2EFCD700D07A0E5A6E23
:100D8800D40EE82EFED75A2EFCD700D0300EB2EC87
:100D980011F0849484847A0E5A6ED40EE82EFED70D
:100DA8005A2EFCD700D07A0E5A6ED40EE82EFED7F3
:100DB8005A2EFCD700D0300EB2EC11F08494000EFD
:100DC8004C6E010EAFEC0FF07C0E536EB20E526EED
:100DD800F9EC0BF02CD05E065D2A5E6660D754D71E
:100DE800190E5A6E5D0EE82EFED75A2EFCD75B4AB6
:100DF8005C2A5C50070AD00ED8B45B18D8A444D734
:100E0800000E4C6E010EAFEC0FF07D0E536E730E9C
:100E1800526EF9EC0BF00BD0000E4C6E010EAFECDD
:100E28000FF07E0E536EEC0E526EF9EC0BF0000EC6
:100E38001200FFFFFFFF000E606E000E5F6E000ED7
:100E4800626E000E616E000E5E6E000E5D6EDBEC73
:100E580008F0606E6004D8A48FD0000E4C6E010EAE
:100E6800AFEC0FF07E0E536EA00E526EF9EC0BF045
:100E7800190E5C6E5D0EE82EFED75C2EFCD7000EB8
:100E88005F6E80C062F022D084846250B2EC11F0B0
:100E98007A0E5C6ED40EE82EFED75C2EFCD700D0FE
:100EA8007A0E5C6ED40EE82EFED75C2EFCD700D0EE
:100EB80084945F2A5F50010D0001800EF324D96EDF
:100EC8000001000EF420DA6EDF50626E6250EA0A0A
:100ED800D8A4DAD784846250B2EC11F07A0E5C6E32
:100EE800D40EE82EFED75C2EFCD700D07A0E5C6EAE
:100EF800D40EE82EFED75C2EFCD700D08494000ECA
:100F08004C6E010EAFEC0FF07F0E536E9C0E526EBE
:100F1800F9EC0BF0000E616E000E5E6E000E5D6E59
:100F280086EC11F00CD07FEC10F0616E5D4A5E2A01
:100F3800190E5C6E5D0EE82EFED75C2EFCD761663E
:100F480006D0D00E5D5C070E5E58D8A0ECD7615075
:100F5800D8B412D08280E3EC10F0606E8290000E5C
:100F68004C6E010EAFEC0FF07E0E536E2F0E526ECC
:100F7800F9EC0BF0605001D0000E1200FFFFFFFFEC
:100F8800000E546E000E556E01D0552A5550010DB5
:100F98000001800EF324D96E0001000EF420DA6EF1
:100FA800EA0EDF62F2D7FF0E496EFF0E4A6E555009
:100FB8004B6E4C6A49504B264A504C220001800E19
:100FC8004B24D96E0001000E4C20DA6EDF50516EB2
:100FD800FE0E496EFF0E4A6E55504B6E4C6A4950D4
:100FE8004B264A504C220001800E4B24D96E00013A
:100FF800000E4C20DA6EDF50506E000E576E000E59
:10100800566E50505624566E000E5720576E565046
:10101800576E566A51505624566E000E5720576E1A
:10102800000E536E000E526E000E546E13D05450C4
:10103800010D0001800EF324D96E0001000EF4208A
:10104800DA6EDF50496E49505224526E000E53201A
:10105800536E542AFE0E496EFF0E4A6E55504B6E63
:101068004C6A49504B264A504C2254504D6E4E6A99
:101078004E50800A4F6E4B504D5C4C50800A4F5872
:10108800D8A0D5D75750531802E156505218D8A4B3
:1010980002D0010E01D0000E1200FFFFFFFF20EE6C
:1010A80001F010EE57F0050EDECFE6FFE82EFCD774
:1010B800000E5F6E040E5E6E000E5D6E000E5C6EBE
:1010C8005350800AF36E800EF35C000ED8B4525C65
:1010D800D8B02DD0010E4C6E2D0EAFEC0FF0526C27
:1010E800531ED8B0532A23D0570E5E24D96E000E53
:1010F8005F20DA6E52C049F053C04AF0000E4C6EC1
:101108000A0E4B6E97EC0CF04950DF6E52C049F056
:1011180053C04AF0000E4C6E0A0E4B6E53EC0BF0A7
:1011280049C052F04AC053F05E06D8A05F0653503B
:101138005210D8A4D9D75428D8B403D00CD05C4ABC
:101148005D2A570E5C24D96E000E5D20DA6EDF50E2
:10115800D8A410D0F4D754C055F0566A55BE5606D8
:10116800551E561E554A562A050E55245C6E000E0D
:1011780056205D6E5CC05EF05DC05FF05F50800A17
:10118800800F050ED8B45E5CD8B00FD0010E4C6E3F
:10119800570E5E24D96E000E5F20DA6EDF50300FD6
:1011A800AFEC0FF05E4A5F2AE9D71200FFFFFFFF9E
:1011B800000E5B6E000E5A6E000E596E000E576ED2
:1011C8005AEC10F0576E010E576E000E4C6E010E61
:1011D800AFEC0FF07F0E536ED40E526EF9EC0BF09D
:1011E80086EC11F084847A0E566ED40EE82EFED763
:1011F800562EFCD700D07A0E566ED40EE82EFED7A7
:10120800562EFCD700D02750B2EC11F08494000E73
:101218004C6E010EAFEC0FF07F0E536EE70E526E60
:10122800F9EC0BF00CD07FEC10F05B6E594A5A2A9F
:10123800190E566E5D0EE82EFED7562EFCD75B664D
:1012480006D0D00E595C070E5A58D8A0ECD75B5080
:10125800D8B415D08280E3EC10F0586E82902750F5
:1012680058620DD0000E4C6E010EAFEC0FF07E0EE2
:10127800536E900E526EF9EC0BF0010E0CD0000E6E
:101288004C6E010EAFEC0FF07F0E536EDE0E526EF9
:10129800F9EC0BF0000E1200FFFFFFFF5A6E000E74
:1012A8005B6EFFEC10F0020E496E030EDFEC0FF0E0
:1012B8005A50780AD8A402D0050E5B6E5A50790AA3
:1012C800D8A402D0150E5B6E000E5E6E000E5E6E28
:1012D80017D02150010D0001800EF324D96E0001B2
:1012E800000EF420DA6E5BC049F04A6A9DEC11F0FA
:1012F800DF6E0A0E00F0E82EFDD7212A5B2A5E2A4F
:101308000F0E5E64E6D7000E5D6E000E5C6E000E7A
:10131800586E000E596EA4EC0EF049C05CF04AC03D
:101328005DF05DC055F055C056F0576A5650586E7E
:101338005CC059F02150010D0001800EF324D96ED4
:101348000001000EF420DA6E58C0DFFF212A215078
:10135800010D0001800EF324D96E0001000EF42067
:10136800DA6E59C0DFFF212A2150010D0001800EDD
:10137800F324D96E0001000EF420DA6EEA0EDF6E57
:101388001200FFFFFFFF000E586E000E576E86EC2E
:1013980011F0000E4C6E010EAFEC0FF07E0E536E86
:1013A8001E0E526EF9EC0BF00BD07FEC10F0586E5D
:1013B800572A190E566E5D0EE82EFED7562EFCD70C
:1013C8005850D8B4F2D75850D8B439D08280E3EC0A
:1013D80010F0596E829059502418D8B407D059503B
:1013E8002518D8B403D02650596229D084847A0E9F
:1013F800566ED40EE82EFED7562EFCD700D07A0EA5
:10140800566ED40EE82EFED7562EFCD700D0595073
:10141800B2EC11F08494190E566E5D0EE82EFED7CC
:10142800562EFCD7000E4C6E010EAFEC0FF07F0E5F
:10143800536E4F0E526EF9EC0BF0010E0CD0000EED
:101448004C6E010EAFEC0FF07D0E536E610E526EB6
:10145800F9EC0BF0000E1200FFFFFFFF000E4C6EC0
:10146800010EAFEC0FF07F0E536EF70E526EF9ECD3
:101478000BF01BC052F01CC053F0030E546E52EC1C
:1014880008F07F0E536EF00E526EF9EC0BF01DC093
:1014980052F01EC053F0030E546E52EC08F0000ECA
:1014A800606E40D03304D8A43DD0000E336E602A5D
:1014B800010E526E040EA3EC10F02EC052F0536AC7
:1014C800020E546E52EC08F0010E526E060EA3EC9A
:1014D80010F07F0E536EFD0E526EF9EC0BF0010EFC
:1014E800526E070EA3EC10F02FC052F0536A020E92
:1014F800546E52EC08F0010E526E090EA3EC10F077
:101508007F0E536EFD0E526EF9EC0BF0010E526E0B
:101518000A0EA3EC10F032C052F0536A020E546E59
:1015280052EC08F03B0E6064BDD71200FFFFFFFFCE
:10153800329E3F0E2E1632502DEC11F0326E2F5087
:101548002DEC11F02F6E2E502DEC11F02E6E2D502B
:101558002DEC11F02D6E2B502DEC11F02B6E31501F
:101568002DEC11F0316E35502DEC11F0356EA8ECE4
:1015780011F0C580C5B0FED7D00E16EC0FF0A8EC60
:1015880011F0000E16EC0FF0A8EC11F0325016EC2A
:101598000FF0A8EC11F02F5016EC0FF0A8EC11F09A
:1015A8002E5016EC0FF0A8EC11F02D5016EC0FF0A1
:1015B800A8EC11F02B5016EC0FF0A8EC11F03150FC
:1015C80016EC0FF0A8EC11F0355016EC0FF0A8EC63
:1015D80011F0100E16EC0FF0A8EC11F0C584C5A49C
:1015E8001200FFFFFCD7FFFFFFFF000E4C6EA8ECB8
:1015F80011F0C580C5B0FED7D00E16EC0FF0A8ECE0
:1016080011F0000E16EC0FF0A8EC11F0C582C5B26F
:10161800FED7D10E16EC0FF017EC11F04C6EC58A00
:10162800C588C5B8FED7C584C5B4FED74C5040ECB4
:1016380011F04C6E4C9E4C502DEC11F04C6E020E7D
:1016480000F0E82EFDD7A8EC11F0C580C5B0FED794
:10165800D00E16EC0FF0A8EC11F0000E16EC0FF0FF
:10166800A8EC11F04C5016EC0FF0A8EC11F0C58264
:10167800C5B2FED7D00E16EC0FF0A8EC11F0070E8D
:1016880016EC0FF0A8EC11F0100E16EC0FF0A8EC09
:1016980011F0C584C5A41200FFFFFCD7FFFFFFFFB0
:1016A800000E4E6E4C50800AF36E800EF35C000EF6
:1016B800D8B44B5CD8B006D04B6C4C1ED8B04C2A72
:1016C800010E4E6E4A50800AF36E800EF35C000ED7
:1016D800D8B4495CD8B006D0496C4A1ED8B04A2A5A
:1016E800010E4E1A000E506E000E4F6E4C504B10ED
:1016F800D8B41CD0010E4D6E04D0D8904B364C3661
:101708004D2A4CAEFAD7D8904F3650364B50495CDC
:101718004C504A58D8A005D04B50495E4C504A5AB4
:101728004F80D8904C324B324D2EEDD74E50D8B416
:1017380004D04F6C501ED8B0502A4FC049F050C04A
:101748004AF01200FFFFFFFF000E5C6E000E586E9D
:10175800000E596E000E5B6E000E5A6E54C056F0A5
:1017680055C057F0070ED89056365736E82EFBD797
:1017780056C05AF057C05BF0000E5C6E15D05AC0C8
:101788004CF05BC04DF05C50010D0001800EF3245D
:10179800D96E0001000EF420DA6EDF504E6E4AEC6E
:1017A8000FF05C2A5A4A5B2A5C50010D0001800E3A
:1017B800F324D96E0001000EF420DA6EEA0EDF621F
:1017C800DED75AC04CF05BC04DF05C50010D0001F3
:1017D800800EF324D96E0001000EF420DA6EDF507B
:1017E8004E6E4AEC0FF01200FFFFFFFF43D052C0CD
:1017F800F6FF53C0F7FF0800FFFFF550250AD8A4ED
:101808002CD0524A532A52C0F6FF53C0F7FF0800A3
:10181800FFFFF550D00F556E55BE0ED05550800ABB
:10182800546E080E800A545CD8B006D0010E4C6E77
:101838005550AFEC0FF01CD0010E4C6E250EAFECDE
:101848000FF0010E4C6E52C0F6FF53C0F7FF0800B0
:10185800FFFFF550AFEC0FF00BD0010E4C6E52C0ED
:10186800F6FF53C0F7FF0800FFFFF550AFEC0FF08D
:10187800524A532A52C0F6FF53C0F7FF0800FFFF31
:10188800F5500009D8B41200FFFFB1D7FFFFFFFFE2
:10189800A8EC11F0C580C5B0FED7D00E16EC0FF03D
:1018A800A8EC11F0030E16EC0FF0A8EC11F0C582AD
:1018B800C5B2FED7D10E16EC0FF0A8EC11F017EC5C
:1018C80011F02D6EC59AC588C5B8FED717EC11F072
:1018D8002B6EC59AC588C5B8FED717EC11F0316EC6
:1018E800C59AC588C5B8FED717EC11F0356EC58AFC
:1018F800C588C5B8FED7C584C5B4FED72D507F0BA3
:1019080040EC11F02D6E2B503F0B40EC11F02B6E7C
:1019180031501F0B40EC11F0316E355040EC11F096
:10192800356E1200FFFFFFFF000E4E6E4A50800A10
:10193800F36E800EF35C000ED8B4495CD8B006D0C4
:10194800496C4A1ED8B04A2A010E4E6E4C50800A85
:10195800F36E800EF35C000ED8B44B5CD8B004D0A4
:101968004B6C4C1ED8B04C2A4C504B10D8B418D0E5
:10197800010E4D6E04D0D8904B364C364D2A4CAEE5
:10198800FAD74B50495C4C504A58D8A004D04B5019
:10199800495E4C504A5AD8904C324B324D2EF1D7B2
:1019A8004E50D8B404D0496C4A1ED8B04A2A49C00F
:1019B80049F04AC04AF01200FFFFFFFF000E636EB5
:1019C800300E646E0ED01EEC07F0646E646608D0AC
:1019D800130E4A6E880E496E53EC11F0300E646E89
:1019E800632A6450300AD8A403D0090E6364EBD785
:1019F8006450310AD8B420D0000E4C6E010EAFEC02
:101A08000FF0838E7D0E536E060E526EF9EC0BF0BE
:101A18008480000E4A6E640E496E53EC11F0000E7D
:101A28004C6E010EAFEC0FF08490000E4A6E640EFF
:101A3800496E53EC11F0E6D7000E4A6E320E496E2D
:101A480053EC11F01200FFFFFFFF000E5D6E000E59
:101A5800586E000E596E000E5A6E000E5C6E000E27
:101A68005B6E54C056F055C057F0070ED8905636E6
:101A78005736E82EFBD756C05BF057C05CF0000E17
:101A88005D6E5D50010D0001800EF324D96E0001DA
:101A9800000EF420DA6E5BC04CF05CC04DF0DDEC5B
:101AA8000EF0DF6E5D50010D0001800EF324D96E3B
:101AB8000001000EF420DA6EEA0EDF6201D004D0D5
:101AC8005B4A5C2A5D2ADDD71200FFFFFFFF536ED9
:101AD8004A0E526E180EE82EFED7522EFCD700D0B2
:101AE8000F0E9316959C959495960F0E8116839CD0
:101AF8008396839400F0838C818A00D0839C00D0E5
:101B080009EC10F0000E4C6E280EAFEC0FF0000E32
:101B18004C6E53500C09AFEC0FF0000E4C6E400E9B
:101B2800AFEC0FF0000E546E0ED0010E4C6E5450F8
:101B3800010D650EF324D96E000EF420DA6EDF5025
:101B4800AFEC0FF0542A070E5464EFD71200FFFFD2
:101B5800FFFF2868296809D0400E05D0200E03D061
:101B68000F0E01D00A0EAF6E25D049C04BF04AC007
:101B78004CF04C50250AD8B40AD06E0AD8B40CD010
:101B8800DD0AD8B40ED0770AD8B410D013D04B5091
:101B9800800AD8B4E1D70ED04B50000AD8B4DED7AB
:101BA80009D04B50000AD8B4DBD704D04B50000AF8
:101BB800D8B4D8D7949C948EAC9CAC8AAC98AC849E
:101BC800AB8EAB9CAB88AB969D8AF28CF28E1200E2
:101BD800FFFFFFFFA8EC11F0C580C5B0FED7D00EFF
:101BE80016EC0FF0A8EC11F0000E16EC0FF0A8ECB4
:101BF80011F0C582C5B2FED7D10E16EC0FF017EC66
:101C080011F0326EC59AC588C5B8FED717EC11F029
:101C18002F6EC59AC588C5B8FED717EC11F02E6E81
:101C2800C58AC588C5B8FED7C584C5B4FED73250A5
:101C38007F0B40EC11F0326E2F507F0B40EC11F00F
:101C48002F6E2E503F0B40EC11F02E6E1200FFFF4E
:101C5800FFFFA8EC11F0C580C5B0FED72C50FE0BD5
:101C680016EC0FF0A8EC11F0000E16EC0FF0A8EC33
:101C780011F0000E16EC0FF0A8EC11F0000E4E6EED
:101C8800000E4D6E4E50800A7E0F000ED8B44D5C8B
:101C9800D8B00FD0000E4F6E06D0FF0E16EC0FF026
:101CA800A8EC11F04F2A7F0E4F64F7D74D4A4E2A01
:101CB800E9D7C584C5B4FED7620E4C6E760EE82E01
:101CC800FED74C2EFCD700D01200FFFFFFFFAECF8F
:101CD8003AF028507F0AD8A403D02950D8B414D099
:101CE80029C036F0376A36BE370628C038F0396A58
:101CF80038BE3906010E3826000E392237503918F9
:101D080002E136503818D8B4292A28507F0AD8A4B6
:101D180003D0000E286E01D0282A2850010D010199
:101D2800000EF324D96E0101010EF420DA6E3AC0D8
:101D3800DFFF2928D8A402D0000E296E1200FFFF69
:101D4800FFFF000E536E000E526E000E546E13D03D
:101D58005450010D0001800EF324D96E0001000ECD
:101D6800F420DA6EDF504B6E4B505224526E000E48
:101D78005320536E542A54504B6E4C6AFF0E4D6ECE
:101D8800FF0E4E6E22504F6E506A4D504F264E50E9
:101D980050225050800A516E4B504F5C4C50800A74
:101DA8005158D8B0D5D752C049F053C04AF01200A4
:101DB800FFFFFFFF000E536E4DC04EF04EC04FF0B8
:101DC800506A4F50516E4CC052F08482A8EC11F00A
:101DD800C580C5B0FED72C50FE0B16EC0FF0A8EC52
:101DE80011F0515016EC0FF0A8EC11F0525016EC0F
:101DF8000FF0A8EC11F0C582C5B2FED72C5001092E
:101E080016EC0FF0A8EC11F017EC11F0536EC58A20
:101E1800C588C5B8FED7C584C5B4FED784925350CB
:101E28001200FFFFFFFF4B6E4BC0C9FFC6BE2CD090
:101E3800C6CF4AF00F0E4A164A50080AD8B40FD037
:101E4800C6CF4AF00F0E4A164A500B0AD8B407D02C
:101E5800C6889EA6FED7C7B417D0C75015D0C6CF20
:101E68004AF00F0E4A164A50080AD8B408D0C6CF0E
:101E78004AF00F0E4A164A500B0AD8A405D0C7B02C
:101E8800FED7A8EC11F0C5501200FFFFFFFF4DC0B0
:101E98004FF04FC050F0516A5050526E4CC053F042
:101EA8008482A8EC11F0C580C5B0FED72C50FE0B7B
:101EB80016EC0FF0A8EC11F0525016EC0FF0A8EC4D
:101EC80011F0535016EC0FF0A8EC11F04E5016EC30
:101ED8000FF0A8EC11F0C584C5B4FED7620E4F6EA2
:101EE800760EE82EFED74F2EFCD700D08492120033
:101EF800FFFFFFFF0AD0190E4B6E5D0EE82EFED7CE
:101F08004B2EFCD74906D8A04A0683AA83B809D025
:101F180082AA83B006D083B204D04A504910D8A40C
:101F2800EAD74A504910D8A402D0000E12D083AA8A
:101F380002D0010E0ED083A802D0020E0AD082AAC7
:101F480002D0030E06D083A002D0040E02D083B2C2
:101F5800050E1200FFFFFFFF506E50380F0B4E6E3C
:101F680050500F0B4F6E4C6602D0839401D083847F
:101F780000F0838C4EC04DF04D3AF00E4D16815056
:101F88000F0B4D10516E51C081FF00D0839C00D0C3
:101F9800838C4FC04DF04D3AF00E4D1681500F0B0B
:101FA8004D10516E51C081FF00D0839C00D009ECC8
:101FB80010F01200FFFFFFFF4A6EFA0E0001806F5B
:101FC8004950080DF350100F0001816F27C082F0AF
:101FD80023C083F04AC084F049C085F035C086F03C
:101FE80031C087F02BC088F02DC089F02EC08AF050
:101FF8002FC08BF032C08CF00D0E216E4950080DA9
:10200800F3500D0F226E1200FFFFFFFF000E4B6E04
:10201800F00E93128386839400F0838C00F081384D
:102028000F0B4B6E4B38F00B4B6E00F0839C00D0BF
:10203800838C00F081380F0B4A6E0F0E4A164B50F6
:102048004A104B6E4B50800B496E00F0839C00D0B9
:102058004966E3D783960F0E93161200FFFF01EE31
:1020680000F0800EEE6AE806FDE100EE80F0800EDA
:10207800EE6AE806FDE100EE01F0350EEE6AE806CC
:10208800FDE1740EF66E230EF76E000EF86E00EE8C
:1020980065F010EE08F00900F5CFEEFFE550E150CD
:1020A800FAE1000EF86E0001DAEF01F0FFFF86ECAE
:1020B80011F0000E4C6E000E4B6E000E4D6E0CD0E3
:1020C8007FEC10F04D6E4B4A4C2A190E4A6E5D0E8D
:1020D800E82EFED74A2EFCD74D6606D0C40E4B5CC0
:1020E800090E4C58D8A0ECD74D6602D0010E01D08D
:1020F800000E1200FFFFFFFF2928D8A402D0000E0F
:102108001CD02950800A496E2850800A495CD8B0F2
:1021180006D0295000082824496E49280ED0285096
:10212800800A496E2950800A495CD8B005D02950E8
:1021380000082824810F01D0010E1200FFFFFFFFC5
:10214800536E130E536408D01AD0538C12D0140E49
:1021580001D0540E53260DD05250000AD8B409D0DD
:10216800010AD8B4F2D7030AD8B4F1D7010AD8B40F
:10217800F0D7538E000E4C6E5350AFEC0FF0120098
:10218800FFFFFFFF000E4C6E49C0A9FF4BC0A8FF20
:10219800A69EA69CA684000EF2BE010E4C6EF29E70
:1021A800550EA76EAA0EA76EA682A6B2FED74CB091
:1021B80002D0F29E01D0F28EA6941200FFFFFFFF1C
:1021C8002928D8A402D0000E14D02950010D0101ED
:1021D800000EF324D96E0101010EF420DA6EDF50EF
:1021E800496E2850296203D02868296801D0292A15
:1021F80049501200FFFFFFFF000E496E000E496EA6
:102208000DD04950010D0001800EF324D96E000154
:10221800000EF420DA6EFF0EDF6E492A7F0E496445
:10222800F0D71200FFFFFFFFC6CF49F00F0E491687
:102238004950080AD8B407D0C6CF49F00F0E49163E
:1022480049500B0AD8B4C586C7A0FED7C95012009A
:10225800FFFFFFFF496E49C04BF0000E4A6E090EA2
:102268004B6405D00A0E4B5E100E4A26F8D74B5029
:102278004A264A501200FFFFFFFF4A6E4AC04BF041
:10228800D8904B32780E4B164AC049F00F0E4916BB
:102298004B40E8423F0B49244B241200FFFFFFFF4D
:1022A8000AD0190E4B6E5D0EE82EFED74B2EFCD7CA
:1022B8004906D8A04A064A504910D8B41200FFFF70
:1022C800F0D7FFFFFFFF4A6E3F0EC716000EC66E1F
:1022D800000EC56E4A50C6124950C712948694889B
:1022E800C68A1200FFFFFFFF8272010E336E342A86
:1022F80034503C0AD8A404D0010E306E000E346E5F
:102308001200FFFFFFFF02D0E3EC10F07FEC10F0AB
:102318000009D8B41200FFFFF7D7FFFFFFFF838E35
:102328004CC049F04DC04AF053EC11F0839E1200A6
:10233800FFFFFFFF49C0A9FFA69CA69EA68000F04C
:1023480000F0A8501200FFFFFFFFC5CF49F01F0E95
:102358004916D8B4C7B4F9D71200FFFFFFFF496E7A
:102368009EA8FED749C0ADFF1200FFFF0C12120C49
:0623780000000000FFFF61
:107C78000000803F72313FFE753E58633D951D3CC4
:107C8800C5AE3A79213994803793A7355615340013
:107C9800000000803FF0FFBEE2A93E8376BEAE2B17
:107CA8003E3CC3BDD2133D78D3BB57524F4E4720FD
:107CB8005041434B4554205245434549564544207D
:107CC8000055504441544520434F4D504C45544570
:107CD800442E2E2E21005550444154494E472054DD
:107CE80048524553484F4C4453004348415241433E
:107CF800544552205245434549564544200057496A
:107D080052454C455353204641494C442E2E2E2172
:107D18000052455155455354494E47205254432E1D
:107D28002E2E0052454144494E4720454550524F5A
:107D38004D2E2E2E0057524954494E472045455046
:107D4800524F4D2E2E2E00507265737320612053B2
:107D580077697463682E2E2E0045434F204E4F548A
:107D68002052454345495645442000434841524125
:107D7800435445522054494D454F5554005245539C
:107D8800455420434F4D504C4554454421004E4FD7
:107D98005448494E4720544F2053454E44210046ED
:107DA8004F524D415420434F4D504C4554452100AE
:107DB80057414954494E4720464F52204441544167
:107DC8000057656C636F6D6520746F2043454E5492
:107DD800520053454E44494E472053455454494E4A
:107DE8004753005550444154494E4720545249473F
:107DF80045525300464F524D4154494E47204D4538
:107E08004D4F525900524553455454494E47204D01
:107E1800454D4F52590057414954494E4720464F06
:107E2800522045434F20005041434B455420444580
:107E38004C495645524544004D454D4F52592046F0
:107E4800554C4C2E2E2E21005452414E534D495420
:107E580054494E472E2E2E005041434B4554205234
:107E68004543454956454400464F52205254552EE5
:107E7800205041434B455400414E44205254432026
:107E8800444953504C41590045434F2053554343AF
:107E980045535346554C200053454E44494E4720C0
:107EA8005041434B45542000464F522046555455A7
:107EB800524520555345004D4F4445203D205741DC
:107EC8004954494E47004441544120544F204345AA
:107ED8004E54455200544849532053574954434837
:107EE800204953005041434B45542054494D454F78
:107EF800555400524551554553542053454E54212D
:107F080000434F4E4E4543542050432E2E2E0052D0
:107F18004553455454494E47205254430052544304
:107F2800205245512E204259205800525443205285
:107F380045512E2042592059004D4F4445203D209F
:107F48004D454D4F52590045434F205245434549F1
:107F580056454420005550444154494E47205254F8
:107F680043005254432053455454494E47530053F9
:107F7800455454494E4753204E4F540052454345AB
:107F8800495645442E2E2E004D4F4445203D205342
:107F9800454E44005041434B45542053454E5400F0
:107FA80046524F4D205254552D310046524F4D20C8
:107FB8005254552D32004D4F4445203D20474554DD
:107FC80000474F5420414E2045434F004C494E45F1
:107FD80020465245450045434F204641494C0045FF
:107FE800434F2053454E5400204D454D323D004DE2
:087FF800454D313D003A000047
:020000040030CA
:04000000FF220D0EC0
:0200060081FF78
:00000001FF
